:020000040800F2
:10000000102400200101000885150008F30A0008EB
:1000100081150008D3090008D7200008000000005F
:10002000000000000000000000000000C5180008EB
:10003000D7090008000000000D160008D9190008B3
:100040001B0100081B0100081B0100081B01000820
:100050001B0100081B0100081B0100081B01000810
:100060001B0100081B0100081B0100081B01000800
:100070001B0100081B0100081B0100081B010008F0
:100080001B0100081B0100081B0100081B010008E0
:100090001B0100081B0100081B0100081B010008D0
:1000A0001B0100081B0100081B0100081B010008C0
:1000B0001B0100083D1A00081B0100081B01000875
:1000C0001B0100081B0100081B0100081B010008A0
:1000D0001B010008511D00081B0100081B0100083E
:1000E0001B0100081B0100081B010008DFF80CD0F1
:1000F00000F0FCFB00480047553A0008102400209F
:100100000648804706480047FEE7FEE7FEE7FEE7B1
:10011000FEE7FEE7FEE7FEE7FEE7FEE7DD19000883
:10012000ED000008F0B480EA0102D40F4200B2EB07
:10013000410F02D20246084611464A0042D0C30D82
:10014000DDB2C1F3C752AD1A202D35DAC1F3160165
:1001500041F4000204B15242C5F1200602FA06F150
:100160002A411044B3EBD05F23D0C4B1012DA0EBE2
:10017000C35009DCF0BC4FF0004202EAC352DBB2CC
:1001800000F5000000F0DFBA400000F1807000EBE5
:10019000C350A0F1807040EAD170490009E04908DD
:1001A00041EAC071A0EBC35000F50000400800EB2D
:1001B000C350F0BC00F0BEBA6142012202EB410123
:1001C000001BF6E7F0BC704781F00041AAE780F021
:1001D0000040A7E780EA010210B502F000434000AA
:1001E00022D04A001FD0010E01EB1261C0F356006D
:1001F000C2F3560240F4000042F40002A0FB0220C9
:1002000000047F39140400D0401C50EA124001D48D
:100210004000491EC2B20C0604EBD010401C40083E
:10022000802A02D003E0002010BD20F00100002948
:1002300000DA0020184310BD30B480EA010202F059
:10024000004530F0004221F0004013D090B1C30DC2
:10025000D40DC2F31601C0F31600E41A41F40001F4
:1002600040F400027D34914201D3641C00E0490057
:10027000002C02DA30BC002070474FF4000000234D
:10028000914201D3891A034340084FEA4101F7D153
:1002900051B1914202D14FF0004105E002D24FF03E
:1002A000010101E06FF0010103EBC450284430BCB0
:1002B00000F040BA2DE9FE4F804681EA0300C00FEE
:1002C0000C46009021F0004123F00045B8EB0200FD
:1002D000A94105D24046214690461C460B4602469F
:1002E00023F00040104347D0270DC7F30A00C3F3A3
:1002F0000A510290401A019040286BDAC3F31300B0
:1003000040F4801B0098924620B10023D2EB030AF0
:1003100063EB0B0B01985946C0F14002504600F0C8
:10032000E8F906460D4650465946019A00F0F0F9A4
:1003300010EB08006141002487EA115284EAE77358
:100340001A4340D0009A62B3019A012A4FEA075239
:1003500015DC001B61EB02014FF0004202EA07527C
:10036000CDE90042001C41F5801132462B4600F0D9
:1003700027FA03B0BDE8F08F40462146F9E7001B9D
:1003800061EB0201001C41F5801300185B4120184D
:10039000A2F5001747EB030140EAD570B6196D418D
:1003A00011E06D084FEA360645EAC0754FEA07527C
:1003B000001B61EB0201001C41F5801149084FEA66
:1003C00030000019514132462B4603B0BDE8F04FD2
:1003D00000F0E7B90098012240000023D0EB0202B0
:1003E00063EBE073009821464FEAE074B8EB00003D
:1003F00061EB0401E9E783F000435BE781F0004132
:1004000058E72DE9FE4F81EA030404F0004421F08F
:10041000004100944FF0000B23F0004350EA010428
:100420005ED052EA03045BD0C3F30A54C1F30A5509
:100430002C44A4F2F3340194A0FB0254C1F3130141
:1004400041F48011C3F3130343F4801301FB02440E
:1004500000FB034E840A970A44EA815447EA835713
:10046000A4FB076802958D0A05FB07854FEA932CCC
:1004700004FB0C542705029D4FEA065847EA16373D
:10048000B5EB08056EEB070C870E920E47EA811755
:1004900042EA8312A7FB0201B6EB0B0164EB0004F6
:1004A0002B0D43EA0C335E1844EB1C50DA465146E0
:1004B000E7FB0201C5F313044FEA0B3343EA14537D
:1004C0004FEA0432019C43EA0603A4F10C040294AF
:1004D000009CCDE900B400F073F903B0BDE8F08FE3
:1004E00000200146F9E72DE9F04D81EA030404F00C
:1004F000004B21F0004514464FF0000A23F0004164
:1005000050EA050220D054EA01021DD0C5F30A5773
:100510000246C5F31303C1F31300C1F30A5640F4B6
:10052000801543F48013A7EB0608101BD64608F28B
:10053000FD3873EB050002D308F1010801E09218C1
:100540005B41B8F1000F03DA00200146BDE8F08DF1
:1005500000204FF48011064684460EE0171B73EB13
:10056000050705D3121B63EB050306434CEA010C98
:1005700049084FEA300092185B4150EA0107EDD17B
:1005800052EA030012D082EA040083EA050108431C
:1005900005D0101BAB4106D20122002306E0002249
:1005A0004FF0004302E06FF0010253101AEB060017
:1005B0004CEB085110EB0A0041EB0B01BDE8F04D8C
:1005C00000F0EFB896230022114600F0BCB80EB53B
:1005D000C10F80EAE0700844CA07002140F23343AB
:1005E0008DE80E000A460B4600F0EAF803B000BDA5
:1005F00000F0004230F000400AD0C10D01F56071FA
:10060000C0F3160042EA0151C20840071143704787
:1006100000200146704701F0004330B421F0004152
:1006200050EA010206D00A0DA2F56072C1F313016F
:10063000002A02DC30BC00207047440F44EAC104A9
:10064000C100E01830BC00EBC25000F073B80000ED
:10065000002801DBC0F10040002901DBC1F10041AD
:100660008142704730B50B4601460020202201240C
:1006700009E021FA02F59D4205D303FA02F5491B70
:1006800004FA02F52844151EA2F10102F1DC30BD86
:100690002DE9F05F0546002092469B4688460646B7
:1006A000814640241BE0284641464746224600F04A
:1006B0002FF953465A46C01A914110D31146184695
:1006C000224600F016F82D1A67EB01084F46224625
:1006D0000120002100F00DF817EB00094E41201E0B
:1006E000A4F10104DFDC484631462A464346BDE812
:1006F000F09F202A04DB203A00FA02F10020704724
:100700009140C2F1200320FA03F31943904070474F
:10071000202A06DBCB17203A41FA02F043EAE073C5
:1007200006E041FA02F3D040C2F1200291400843B2
:10073000194670470029A8BF7047401C490008BFF0
:1007400020F00100704710B4B0FA80FC00FA0CF001
:1007500050EA010404BF10BC704749B1CCF1200439
:1007600021FA04F411FA0CF118BF012121430843C6
:10077000A3EB0C01CB1D4FEA00614FEA102042BFF2
:10078000002010BC704700EBC35010440029A4BFE8
:1007900010BC7047401C490008BF20F0010010BC8D
:1007A000704710B5141E73F1000408DA401C41F1C3
:1007B000000192185B411A4301D120F0010010BDE5
:1007C0002DE9F04D92469B4611B1B1FA81F202E05B
:1007D000B0FA80F220329046FFF78BFF04460F46B6
:1007E00040EA0A0041EA0B0153465A46084313D037
:1007F000114653EA010019D0C8F14002504600F0FA
:1008000087F805460E46504659464246FFF771FFA7
:10081000084305D0012004E020463946BDE8F08DAC
:100820000020054346EAE0762C4337430A986305E7
:10083000E40AA0EB08000022FD0A44EA47540A300B
:1008400002D500200146E9E7010510196941DDE9FB
:10085000084500196941BDE8F04DA2E770B521F0E7
:10086000004303430CD0C1F30A550024D5EB040523
:1008700064EB0403D617AD1AB34102DB0020014636
:1008800070BD201841EB025170BDC1F30A52C1F393
:10089000130140F2FF3341F480119A4202DA002042
:1008A0000146704740F233439A42A2F2334202DCDF
:1008B000524200F02DB8FFF71CBF000030B5041EF7
:1008C00071F1000404DB4FF00044404264EB01018D
:1008D000141E73F1000405DB1C464FF00043524226
:1008E00063EB0403994208BF904230BD064C074DAC
:1008F00006E0E06840F0010394E8070098471034F0
:10090000AC42F6D3FFF7F6FBE042000800430008D4
:10091000202A04DB203A21FA02F00021704721FA54
:1009200002F3D040C2F120029140084319467047BB
:100930002DE9F04D00231A461B1A8A4103DB0020E3
:100940000146BDE8F08DC1F30A52C1F3130141F431
:1009500080154FF0000BD10702D100186D41521ED7
:100960000027044640F2FF11384601EB620A3E467A
:100970008046024600204FF48011FFF7C9FFC219DC
:100980007141BB1846EB0100B4EB030C75EB000C96
:1009900004D3E41A65EB000517460E46241908F146
:1009A00001006D4180463428E3DDF91946EB06006D
:1009B000091BA84103D24FF0FF32134601E0002289
:1009C00013461BEB070046EB0A51BDE8F04DFFF75D
:1009D000E8BE00BFFEE770472DE9F0410246002562
:1009E0000026002000230024002791F803C00CF00B
:1009F0000F0591F803C00CF0100CBCF1000F03D0F0
:100A000091F802C04CEA050591F800C0BCF1000F56
:100A100031D0146800202BE04FF0010C0CFA00F3E9
:100A2000B1F800C00CEA03069E4220D183004FF0CB
:100A30000F0C0CFA03F7BC4305FA03FC4CEA040460
:100A400091F803C0BCF1280F06D14FF0010C0CFA4D
:100A500000FCC2F814C00AE091F803C0BCF1480FD2
:100A600005D14FF0010C0CFA00FCC2F810C0401C7C
:100A70000828D1D31460B1F800C0BCF1FF0F34DDF9
:100A8000546800202EE000F1080C4FF0010808FA2D
:100A90000CF3B1F800C00CEA03069E4221D183009A
:100AA0004FF00F0C0CFA03F7BC4305FA03FC4CEAB9
:100AB000040491F803C0BCF1280F05D100F1080C23
:100AC00008FA0CF8C2F8148091F803C0BCF1480F82
:100AD00007D100F1080C4FF0010808FA0CF8C2F831
:100AE0001080401C0828CED35460BDE8F08101611D
:100AF000704700BFFEE7000008B50121082000F0A4
:100B0000A7FDC020ADF8000010208DF803000320E1
:100B10008DF8020069460248FFF75EFF08BD00003D
:100B2000000C01400FB59DB0FE4801680068FFF75A
:100B300051FB1090FC480168FA480068FFF74AFB37
:100B40000F90FA480168F7480068FFF743FB0E90E2
:100B5000F7480168F3480068FFF73CFB0D90F24846
:100B600001680068FFF736FB0C90F0480168EE481A
:100B70000068FFF72FFB0B90ED480168EA4800681A
:100B8000FFF728FB0A90E94801680068FFF722FB9D
:100B90000990E7480168E5480068FFF71BFB0890EB
:100BA000E34801680068FFF715FB0790E14800681B
:100BB000E149086008460068E0490968884210D2A7
:100BC000DE4800684FF6FF71081ADB4909680844DF
:100BD0000590FFF7F7FCDA490690FFF72DFB15901B
:100BE0000CE0D5480068D5490968401A0590FFF720
:100BF000E9FCD3490690FFF71FFB1590CE4800682B
:100C0000CE49086023990846FFF7E4FA0590229937
:100C10000846FFF7DFFA039020990846FFF7DAFA53
:100C200002900399FFF77EFA04900599FFF77AFA8C
:100C3000069002F089FC1C901C992098FFF7CAFAD4
:100C400020901C992298FFF7C5FA22901C992398AE
:100C5000FFF7C0FA239026990846FFF7BBFA0590E4
:100C600025990846FFF7B6FA039024990846FFF73E
:100C7000B1FA02900399FFF755FA04900599FFF72E
:100C800051FA069002F060FC1C901C992498FFF722
:100C9000A1FA24901C992598FFF79CFA25901C999D
:100CA0002698FFF797FA26900E990A98FFF78CFA84
:100CB0004FF080410690FFF78DFA1B9008990F982E
:100CC000FFF730FA4FF080410690FFF783FA1A9051
:100CD0000C991098FFF778FA05900999FFF774FAC4
:100CE00006900799FFF71EFA19909048016800686E
:100CF000FFF770FA04908E4801680068FFF76AFAFF
:100D000003900499FFF70EFA4FF080410590FFF72A
:100D100061FA4FF07E510690FFF759FA8949086051
:100D20008248016880480068FFF754FA05907D48C2
:100D3000006880F0004003907D4801680398FFF749
:100D400049FA04900599FFF7EDF94FF080410690BC
:100D5000FFF740FA7B4948607548016872480068AF
:100D6000FFF738FA0590714801686E480068FFF790
:100D700031FA04900599FFF727FA4FF08041069069
:100D8000FFF728FA6F49886068480168664800687C
:100D9000FFF720FA05906648016862480068FFF78F
:100DA00019FA04900599FFF7BDF94FF080410690BC
:100DB000FFF710FA644908605B4801680068FFF7B4
:100DC00009FA04905A4801680068FFF703FA039093
:100DD0000499FFF7A7F94FF080410590FFF7FAF962
:100DE0004FF07E510690FFF7F2F95749486050489E
:100DF00001684E480068FFF7EDF905904948006822
:100E000080F000400390484801680398FFF7E2F93A
:100E100004900599FFF786F94FF080410690FFF79F
:100E2000D9F9494988601A992398FFF7D3F90690B0
:100E300019992298FFF7CEF905900699FFF7C4F9A2
:100E4000189019992098FFF7C5F906901B992398D7
:100E5000FFF7C0F905900699FFF7B6F917901B99AF
:100E60002298FFF7B7F906901A992098FFF7B2F980
:100E700005900699FFF7A8F9169000211898FFF73A
:100E8000E7FB6BD000211798FFF7E2FB66D000214B
:100E90001698FFF7DDFB7DD02C491898FFF79AF9DB
:100EA00005901599FFF796F906902948016806986C
:100EB000FFF738F92649086024491798FFF78AF99F
:100EC00005901599FFF786F9069022480168069863
:100ED000FFF728F91F4908601C491698FFF77AF9AF
:100EE00005901599FFF776F906901B48016806985A
:100EF000FFF718F9184908604FF07C501899FFF770
:100F000069F905901D99FFF70DF9069010480168E1
:100F10000698FFF707F91D904FF07C501799FFF7DF
:100F200059F91CE0280000202C000020300000208F
:100F30003400002058000020440000204000002021
:100F400000409C46F8000020040100206F12833A04
:100F50001C00002020000020240000201AE0059042
:100F60001E99FFF7DFF80690724801680698FFF7B0
:100F7000D9F81E904FF07C501699FFF72BF9059089
:100F80001F99FFF7CFF806906B4801680698FFF7A6
:100F9000C9F81F9069481F990068FFF71BF9049072
:100FA00067481E990068FFF715F9029065480068C8
:100FB00080F0004000901D99FFF70CF90190029914
:100FC000FFF702F903900499FFF7FEF805901599D1
:100FD000FFF700F906905C4801680698FFF7A2F851
:100FE000149056481E990068FFF7F4F8049054488E
:100FF0001F990068FFF7EEF80290534801681D98AA
:10100000FFF7E8F801900299FFF78CF80390049934
:10101000FFF7DAF805901599FFF7DCF806904948D4
:1010200001680698FFF77EF81390444801681D9800
:10103000FFF7D0F8049043481F990068FFF7CAF8FB
:10104000029041481E990068FFF7C4F80190029988
:10105000FFF7BAF803900499FFF764F80590159923
:10106000FFF7B8F80690364801680698FFF75AF877
:101070001290334801681D98FFF7ACF8049031488E
:101080001E990068FFF7A6F802902F481F99006884
:10109000FFF7A0F801900299FFF744F80390049934
:1010A000FFF792F805901599FFF794F806902348FA
:1010B00001680698FFF736F8119011990846FFF776
:1010C00089F8059012990846FFF784F80390139960
:1010D0000846FFF77FF8019014990846FFF77AF861
:1010E00000900199FFF71EF802900399FFF71AF894
:1010F00004900599FFF716F8069002F025FA1C9067
:101100001C991498FFF766F80F4908601C9913980A
:10111000FFF760F80B4908601C991298FFF75AF81E
:10112000074908601C991198FFF754F803490860B3
:1011300021B000BD20000020240000203400002049
:10114000300000202C000020280000200A490968F7
:101150000160094949684160074989688160064919
:10116000C968C1600449096901610349496941616C
:101170000149896981617047240100202DE9F0410E
:1011800086B00446224800F051F8214948692149B7
:10119000FFF720F880462049FFF74EF805461C4926
:1011A00008691C49FFF716F880461B49FFF744F809
:1011B00006461749C8681749FFF70CF880461649D4
:1011C000FFF73AF807461248006A1149C969104A00
:1011D00092690F4B9B68CDE90132CDE903100C48B1
:1011E000406800900A482A46314603683846FFF7AF
:1011F00099FC0A4800682060094800686060094856
:101200000068A06008480068E06006B0BDE8F081B2
:10121000AC1D0020DB0F49400000344328000020B3
:101220002C000020300000203400002010B586B0D3
:1012300004466B4603AA6421184801F043FF18498D
:101240000398FFF705FA1ED215490498FFF700FA34
:1012500019D213490598FFF7FBF914D21148006819
:10126000632810DB104900980860019848600298D4
:10127000886000200D4908600D4908600D4908602C
:101280000849086008E007480068642804DA05484F
:101290000068401C0349086006B010BD3001002002
:1012A0000AD7A33C54000020A01D00201C000020F1
:1012B00020000020240000202DE9F04F8FB00446CC
:1012C00000200A90099008900BA8FFF757FF4FF0F5
:1012D00080400E99FEF77EFF00900E99FEF77AFF90
:1012E00083464FF040400D99FEF774FF00900D9932
:1012F000FEF770FF59460190FEF766FF82464FF0F9
:101300007E51FEF70FFF8146FFF772F907468846C8
:101310004FF080400B99FEF75DFF01900E99FEF7AC
:1013200059FF82464FF080400C99FEF753FF019021
:101330000D99FEF74FFF83465146FEF7F3FE8146B7
:10134000FFF756F93A464346CDE9020101F0FAFDAE
:1013500081F0004105460022494BFFF752F84FF05B
:10136000C042484BCDE90401FFF7BDF8CDE90601C5
:10137000FFF751F920604FF080400B99FEF72AFFEC
:1013800003900D99FEF726FF82464FF040400C99DE
:10139000FEF720FF03900E99FEF71CFF834651468F
:1013A000FEF7C0FE8146FFF723F9CDE9040101F005
:1013B00081FB81F0004107460022314BFFF721F805
:1013C00005464FF0C0422F4BFFF78DF8CDE90601DF
:1013D000FFF721F960604FF080400D99FEF7FAFEAB
:1013E00083460D99FEF7F6FE81464FF040400C997A
:1013F000FEF7F0FE83460C99FEF7ECFE8246494666
:10140000FEF7E2FE06464FF07E51FEF78BFE0546E4
:10141000FFF7EEF8CDE902014FF080400B99FEF79F
:10142000D9FE82460C99FEF7D5FE06464FF0804065
:101430000D99FEF7CFFE82460E99FEF7CBFE814650
:101440003146FEF76FFE0546FFF7D2F8CDE9000101
:10145000DDE9022301F076FD07460022084BFEF786
:10146000D0FF4FF0C042074BCDE90401FFF73BF836
:10147000CDE90601FFF7CFF8A0600FB0BDE8F08F0F
:1014800000806640FB21094010B50122114610463C
:1014900002F09EFBD8B900F03BF84FF07E500E49A9
:1014A000086000200D4908600D4908600D4908607A
:1014B0000D4908600D4908600D4908600D48006835
:1014C0000D4908600B4800680C49086010BD0CA06D
:1014D00000F004FE00BFF9E7280000202C000020E7
:1014E00030000020340000201C00002020000020DC
:1014F000240000205800002040000020440000206C
:10150000494D55204552524F5221210D0A000000ED
:101510001FB50121022000F07BF8184800F0B8FA4E
:101520006320ADF808004720ADF804000020ADF8B6
:101530000A00ADF8060001A9104800F0B7FB012130
:101540000E4800F093FA012211460C4800F0A5FB6A
:1015500001210A4800F090FA4FF4C06000F04CF806
:101560001D208DF8000001208DF801008DF802008B
:101570008DF80300684600F007F81FBD0004004026
:1015800000BFFEE77047000070B5002100230F2266
:10159000C47804B3154C246804F4E064C4F5E06432
:1015A000210AC1F10403CA40447804FA03F18478A3
:1015B0001440214309010E4C0678A155047804F02B
:1015C0001F050124AC4005786D11AD0005F1E02543
:1015D000C5F8004109E0047804F01F050124AC407F
:1015E000044D0678761145F8264070BD0CED00E0FC
:1015F00000E400E080E100E002490143024A11609A
:10160000704700000000FA050CED00E07047000094
:1016100029B1064AD2690243044BDA6104E0034A65
:10162000D2698243014BDA6170470000001002402A
:1016300029B1064A12690243044B1A6104E0034AC5
:1016400012698243014B1A6170470000001002408A
:1016500029B1064A92690243044B9A6104E0034AA5
:1016600092698243014B9A6170470000001002406A
:1016700029B1064AD2680243044BDA6004E0034A07
:10168000D2688243014BDA607047000000100240CC
:1016900030B500210022002400232D4D6D6805F097
:1016A0000C0121B1042905D0082923D105E0294DD9
:1016B000056022E0274D05601FE0254D6D6805F4AB
:1016C0007012234D6D6805F48034022505EB9242BB
:1016D0001CB9214D554305600BE01D4D6D6805F4A7
:1016E00000351DB11C4D5543056002E0194D5543B1
:1016F000056002E0174D056000BF00BF144D6D6826
:1017000005F0F0010909154D6B5C0568DD40456089
:101710000F4D6D6805F4E061090A104D6B5C45687A
:10172000DD4085600A4D6D6805F46051C90A0B4DB6
:101730006B5C4568DD40C560054D6D6805F4404152
:10174000890B074D6B5CC568B5FBF3F5056130BDD2
:101750000010024000127A0000093D006C000020D9
:101760007C00002008B501210C20FFF771FF01214A
:101770008803FFF74DFF4FF46040ADF800001820DC
:101780008DF8030003208DF8020069461848FFF722
:1017900023F90420ADF8000010208DF80300032089
:1017A0008DF8020069461348FFF716F94FF46041BF
:1017B0000F48FFF79CF900200F4908804FF4827012
:1017C0004880002088800220C880012008814002D3
:1017D0004881382088810020C88107200882074876
:1017E00000F052F80121054800F034F808BD00006F
:1017F000000C014000080140D01D002000380040CE
:1018000070B50546002405E0601CC4B2C82C01DD9B
:10181000002070BD02210E4800F028F80028F3D007
:1018200029460B4800F02EF8002405E0601CC4B2E5
:10183000C82C01DD0020ECE70121054800F016F876
:101840000028F3D0024800F01AF8C0B2E1E7000027
:101850000038004021B1028842F04002028004E0DA
:1018600002884FF6BF731A4002807047024600207C
:1018700013890B400BB1012000E0002070470146A6
:10188000888970478181704710B50022028802F470
:1018900041520B884C8823438C882343CC882343B4
:1018A0000C8923434C8923438C892343CC892343CC
:1018B0001A430280838B4FF2FF74234083830B8A89
:1018C000038210BD704710B500F002F810BD000093
:1018D0000CB50020019000903348006840F480303F
:1018E0003149086000BF3048006800F400300090C3
:1018F0000198401C0190009818B90198B0F5A06FAC
:10190000F1D12948006800F4003010B101200090A6
:1019100001E0002000900098012843D1234800688E
:1019200040F01000214908600846006820F00300DC
:1019300008600846006840F0020008601A484068E5
:10194000194948600846406848600846406840F4C5
:10195000806048600846406820F47C104860084673
:10196000406840F4E81048600846006840F0807025
:10197000086000BF0C48006800F000700028F9D033
:101980000948406820F0030007494860084640685D
:1019900040F00200486000BF0348406800F00C00BF
:1019A0000828F9D10CBD00000010024000200240C0
:1019B000042808D14FF0E021096941F004014FF0FB
:1019C000E022116107E04FF0E021096921F00401F4
:1019D0004FF0E022116170477047000010B51348C6
:1019E000006840F00100114908600846406810494D
:1019F00008400E494860084600680E4908400B49F7
:101A000008600846006820F48020086008464068A6
:101A100020F4FE0048604FF41F008860FFF753FF7A
:101A20004FF000600449086010BD00000010024043
:101A30000000FFF8FFFFF6FE08ED00E010B5012101
:101A4000084800F019F960B107480068401C0649D1
:101A500008600121034800F00CF80121014800F062
:101A600005F810BD0004004058000020CA4302825F
:101A70007047CA430282704721B1028842F00102D6
:101A8000028004E002884FF6FE731A40028070471D
:101A900010B504466848844208D10121C014FFF7FC
:101AA000E7FD0021E014FFF7E3FDC4E0B4F1804F4F
:101AB00008D101210846FFF7BBFD00210120FFF7F7
:101AC000B7FDB8E05D48844208D101210220FFF74C
:101AD000AFFD00210220FFF7ABFDACE05848844287
:101AE00008D101210420FFF7A3FD00210420FFF706
:101AF0009FFDA0E05348844208D101210820FFF750
:101B000097FD00210820FFF793FD94E04E488442A2
:101B100008D101211020FFF78BFD00211020FFF7D5
:101B200087FD88E04948844208D101212020FFF741
:101B30007FFD00212020FFF77BFD7CE044488442AC
:101B400008D101214014FFF793FD00216014FFF735
:101B50008FFD70E03F48844209D10121C804FFF79E
:101B600087FD00214FF40020FFF782FD63E03A4833
:101B7000844209D101210805FFF77AFD00214FF4C5
:101B80008010FFF775FD56E03448844209D10121E9
:101B90004805FFF76DFD00214FF40010FFF768FDC9
:101BA00049E02F48844208D101214020FFF740FD41
:101BB00000214020FFF73CFD3DE02A48844208D147
:101BC00001218020FFF734FD00218020FFF730FD48
:101BD00031E02548844208D101218015FFF728FD16
:101BE0000021A015FFF724FD25E02048844209D1FB
:101BF00001210804FFF73CFD00214FF48030FFF77E
:101C000037FD18E01A48844209D101214804FFF742
:101C10002FFD00214FF40030FFF72AFD0BE015489F
:101C2000844208D101218804FFF722FD00214FF4EE
:101C30008020FFF71DFD10BD002C01400004004076
:101C400000080040000C004000100040001400405C
:101C500000340140004C014000500140005401405C
:101C600000180040001C00400020004000400140DF
:101C7000004401400048014030B5024600200023E6
:101C80000024158A05EA0103958905EA010413B1C8
:101C90000CB1012000E0002030BD1AB183890B4354
:101CA000838102E083898B4383817047002202880D
:101CB0001D4B98420ED01D4B98420BD0B0F1804F77
:101CC00008D01B4B984205D01A4B984202D01A4BB1
:101CD000984204D14FF68F731A404B881A43174B22
:101CE000984207D0164B984204D04FF6FF431A4053
:101CF000CB881A4302808B8883850B8803850A4B27
:101D000098420BD0094B984208D00E4B984205D010
:101D10000D4B984202D00D4B984201D10B7A0386AD
:101D20000123838270470000002C014000340140F1
:101D30000004004000080040000C0040001000407B
:101D400000140040004001400044014000480140B0
:101D500010B540F22771414800F0F8F8E0B1404872
:101D600002780078401C3E4B18703E48815C3B482E
:101D700000F0ADF940F22771384800F07DF838489E
:101D8000007839490978884267D1002240F22771EA
:101D9000324800F005F960E040F225512F4800F08C
:101DA000D5F8002859D02D4800F08CF9C4B2A52CE4
:101DB0000DD12E48007840F080002C4908702C4945
:101DC0000878411C2A4A11702A490C5437E05A2CD1
:101DD0001CD12648007800F0800048B1002024493A
:101DE00008702248007820F040002049087006E082
:101DF0001F490878411C1E4A11701E490C541B488B
:101E0000007820F080001949087018E01849087817
:101E1000411C174A117017490C541448007820F0DF
:101E200080001249087013480078114609788842EA
:101E300005D10E48007840F040000C4908700C486D
:101E40000078642804D10A480078401E08490870C8
:101E500040F22551014800F00FF810BD0038014054
:101E600060000020E21D0020610000206B000020C7
:101E70006A000020AC1F002010B50022002340F6AD
:101E80006A14A14200D100BF0A1201249440A3B2F7
:101E9000DC43048010BD21B1828942F4005282816A
:101EA00004E082894DF6FF731A408281704700007A
:101EB00010B504462048844209D101218803FFF768
:101EC000D7FB00214FF48040FFF7D2FB32E01B48E4
:101ED000844209D101214804FFF7AAFB00214FF4F5
:101EE0000030FFF7A5FB25E01548844209D1012108
:101EF0008804FFF79DFB00214FF48020FFF798FB3B
:101F000018E01048844209D10121C804FFF790FB72
:101F100000214FF40020FFF78BFB0BE00A488442BE
:101F200008D101210805FFF783FB00214FF4801041
:101F3000FFF77EFB10BD0000003801400044004068
:101F400000480040004C00400050004070B5024680
:101F5000002400230025002040F66A16B14200D17B
:101F600000BFC1F3421501F01F03012606FA03F377
:101F7000012D02D19689334006E0022D02D1168A46
:101F8000334001E0968A33400C12012606FA04F42D
:101F90001688344013B10CB1012000E0002070BD60
:101FA000F0B50346002400260025002040F66A17FD
:101FB000B94200D100BF1846C1F3421401F01F0618
:101FC000012707FA06F5012C01D10C3004E0022CA0
:101FD00001D1103000E014301AB107682F430760B8
:101FE00002E00768AF430760F0BD00002DE9F0474D
:101FF00086B005460E460024A24600BFA146002733
:10200000B08900B100BF2F462C8A4CF6FF70044007
:10201000F08804432C82AC894EF6F3100440B0885B
:1020200031890843718908430443AC81AC8A4FF677
:10203000FF400440B0890443AC8201A8FFF728FBAD
:102040001F48874202D1DDF810A001E0DDF80CA0A6
:10205000A88900F4004040B10AEBCA0000EB0A1066
:1020600031684900B0FBF1F807E00AEBCA0000EB69
:102070000A1031688900B0FBF1F86420B8FBF0F079
:1020800004012009642101FB1089A88900F40040A3
:1020900040B1322000EBC900B0FBF1F000F00700C6
:1020A000044308E0322000EB09106421B0FBF1F09A
:1020B00000F00F0004432C8106B0BDE8F08700005B
:1020C0000038014001468888C0F308007047C1F31A
:1020D00008028280704700BFFEE700000FB4054B86
:1020E00010B503A9044A029800F04CF910BC5DF841
:1020F00014FB0000C934000864000020490050EAC5
:10210000C12018BF04204A0D18BF40F0010040F262
:10211000FF72B2EB515F08BF40F00200012808BF18
:10212000052070472DE9F0414F1E00EBC701044622
:10213000D1E9000115461E4637F006020DD02A46A9
:102140003346FEF75EF97F1E04EBC703D3E9002395
:10215000FEF7B0F837F00602F1D1022F25D0042F98
:1021600013D0062F18BFBDE8F0812A463346FEF78C
:1021700048F9D4E90A23FEF79DF82A463346FEF7CC
:1021800040F9D4E90823FEF795F82A463346FEF7CE
:1021900038F9D4E90623FEF78DF82A463346FEF7D0
:1021A00030F9D4E90423FEF785F82A463346FEF7D2
:1021B00028F9D4E90223FEF77DF82A463346FEF7D4
:1021C00020F9D4E90023BDE8F041FEF773B80122FD
:1021D000FEF744BBFEF76EB80022134610461146C8
:1021E000FEF781B9024A00201107FEF737BB000055
:1021F00001FDFFFF02E008C8121F08C1002AFAD142
:1022000070477047002001E001C1121F002AFBD176
:1022100070470000014908607047000080000020FE
:102220002DE9FF5FDDE90220010DDDF838B0024342
:1022300018D044F61050A1F2FF3141430D140F980D
:10224000012820D0A5EB0B00401C5FEA000A4FF0EC
:102250000004474EDFF81C91A046504616D5CAF13F
:10226000000728E00F98012443A2012808D000218C
:1022700000980F9BC0E90021C0E90243BDE8FF9F21
:102280006FEA0B01F4E7CBF10000DEE7074612E04E
:10229000F80707D02246334640464946FEF7B1F8D4
:1022A000804689462246334610461946FEF7A9F86D
:1022B00004460E467F10002FEAD1DDE90201BAF193
:1022C000000F42464B4602DAFEF79BF801E0FEF7AC
:1022D0000AF904460E460022284BFEF7EFFA03D80F
:1022E0004FF0FF30014607E00022254B20463146E3
:1022F000FDF7E0FFFEF7C9FA102409E0002C0ADB25
:102300000A220023FEF7C4F9019B30321A55641EDD
:1023100050EA0102F2D1641C019AC4F11103144481
:102320000F9A012A03D0012208430DD10AE0084385
:1023300004D000204FF0110B0F9080E7A3EB0B05AA
:102340006D1E0DE05B4504DD4FF0000205F1010557
:1023500004E003DA4FF00002A5F10105002AECD0F9
:1023600000980F99C0E90231C0E9004586E70000F6
:10237000000024400000F03F300000000000F04367
:102380000000E03F2DE9FF4F95B09B468946064689
:1023900000250FE2252877D100242746F84A01219D
:1023A000059400E0044316F8013F203B01FA03F0D6
:1023B0001042F7D130782A2811D06FF02F033078EF
:1023C000A0F13002092A16D8059A44F0020402EB63
:1023D000820203EB42021044761C0590EFE759F8A5
:1023E000042B0592002A03DA504244F4005405906D
:1023F00044F00204761C30782E2816D116F8010F0E
:1024000044F004042A280DD06FF02F023078A0F198
:102410003003092B09D807EB870302EB4303C718E6
:10242000761CF3E759F8047B761C30786C280FD0C3
:1024300006DC4C2817D068280DD06A2814D104E097
:10244000742810D07A280FD10DE044F400140AE06B
:1024500044F4801401E044F440147278824202D1C2
:1024600004F58014761C761C307866280BD013DCBB
:10247000582877D009DC002875D04528F6D04628A2
:10248000F4D047281AD19DE118E0632835D064289C
:1024900079D0652812D195E1702873D008DC6728BF
:1024A000F1D069286FD06E280DD06F2806D1B5E025
:1024B00073282CD0752875D0782874D05A4617996F
:1024C00090476D1C75E1C4F30250022809D003281F
:1024D0000DD0D9F8001004280DD00D6009F10409C1
:1024E00067E1D9F80010EA17C1E90052F6E7D9F818
:1024F00000100D80F2E70D70F0E719F8041B8DF85D
:10250000001000208DF80100EA46012003E059F890
:1025100004AB4FF0FF3061074FF0000102D40DE033
:1025200008F101018846B9420FDA8045F8DB1AF854
:1025300008100029F4D108E008F101018846814221
:10254000FADB1AF808100029F6D105985B46A0EBD3
:10255000080721463846179A00F094FA284400EB01
:10256000080507E04DE029E10DE01AF8010B5A4695
:1025700017999047B8F10108F7D25B4621463846D3
:10258000179A13E142E00A220092C4F302524FF07C
:10259000000A022A08D059F804CB032A4FEAEC714A
:1025A0000AD00DE029E02AE009F1070121F0070235
:1025B000F2E802C1914609E00FFA8CFC4FEAEC7197
:1025C000042A03D14FFA8CFC4FEAEC71002907DA98
:1025D0000A460021DCF1000C61EB02012D2202E031
:1025E000220504D52B228DF80420012203E0E20706
:1025F00001D02022F7E7904659E00A2102E010229C
:102600000DE010214FF0000A00910BE010224FF076
:10261000000A44F004040827009203E008224FF067
:10262000000A0092C4F30252022A05D059F804CBE2
:102630000021032A08D009E009F1070121F007026F
:10264000F2E802C1914605E01FFA8CFC042A01D190
:102650000CF0FF0C4FF00008220728D5702806D098
:10266000009B83F0100353EA0A0305D00EE04022DA
:102670008DF80420012208E05CEA010206D0302235
:102680008DF804208DF8050002229046009B83F00F
:10269000080353EA0A030AD15CEA010201D1620786
:1026A00005D530228DF804204FF001087F1E5828F0
:1026B00004D034A003900EA802900DE036A0F9E7F4
:1026C00053466046009AFDF7E3FF84460398825C18
:1026D0000298401E029002705CEA0100F0D102985C
:1026E00006A9081A00F1200A600702D524F48034F4
:1026F00000E00127574502DDA7EB0A0000E00020BB
:1027000000EB0A01009005984144401A0590E0034F
:1027100006D45B462146179A059800F0B3F90544A4
:10272000002706E001A85A46C05D179990476D1C26
:102730007F1C4745F6DBE0030CD55B462146179A24
:10274000059800F09FF9054404E030205A46179997
:1027500090476D1C0099481E00900029F5DC08E0A8
:10276000029802995A460078491C0291179990479D
:102770006D1CBAF10001AAF1010AF1DC65E100006B
:102780000928010030313233343536373839616247
:10279000636465660000000030313233343536370B
:1027A00038394142434445460000000000F058F9E2
:1027B0000544761C307800287FF4ECAD19B028462B
:1027C000BDE8F08F620700D4062709F1070222F066
:1027D000070CFCE80223E14603F000485FEA080C1E
:1027E00002D00FF2702C0DE05FEA045C02D50FF20C
:1027F000682C07E05FEAC47C02D00FF2602C01E095
:10280000AFF2700C4FF0FF3823F00043CDF850C00A
:1028100065280CD006DC452809D046281DD047285D
:102820003DD13DE0662818D067287ED138E00021F0
:10283000112F01DB112000E0781CCDE9000106A971
:102840000EA8FFF7EDFCDDE90F010E9A03910021C0
:10285000009207F1010A04914DE04FF0004000970B
:10286000CDE9011006A90EA8FFF7DAFCDDE90F0299
:1028700003920E9B11990022DDF80CA000930492A4
:1028800011B9791C00EB010AB7EB0A0004D4C0F1BE
:10289000FF3007F1010A0490AAEB0700019044E021
:1028A000012F00DA01270021112F01DD112000E0A6
:1028B0003846CDE9000106A90EA8FFF7B1FCDDE915
:1028C0000F010E9A0391002104910092BA4621074C
:1028D0000CD40399514500DA8A46BAF1010F05DD9F
:1028E000009AAAF10101515C302908D0B84202DAFD
:1028F00010F1040F06DA0121CDE9011015E0AAF16B
:102900000101E9E7002805DC049901440491AAEBE0
:10291000000102E0411C514500DD8A460499401A3D
:10292000401C01904FF000400290200704D4019811
:10293000504501DBCDF8048000208DF84F0002984F
:102940000DF14F07B0F1004F25D02B200E900298CB
:102950004FF0020800280CDA404202902D200E9021
:1029600007E00A210298FDF77DFE3031029007F85A
:10297000011DB8F10001A8F10108F2DC029800285D
:10298000EFD1791E0E980870307800F0200040F0EA
:10299000450007F8020D12A8C01B00F107081498A3
:1029A000007800B1012000EB0A01019801EBE07111
:1029B00005984144401A401E0590E00306D45B464A
:1029C0002146179A059800F05DF8054414980078A0
:1029D00018B15A46179990476D1CE00324D55B4601
:1029E0002146179A059800F04DF805441CE004981C
:1029F000002807DBDDE90301884203DD0098405C25
:102A0000179901E0179930205A469047049805F12C
:102A10000105401C04900198401E019004D12E2015
:102A20005A46179990476D1CBAF10001AAF1010AA4
:102A3000DDDC05E017F8010B5A46179990476D1C2D
:102A4000B8F10001A8F10108F4DC5B462146179AB1
:102A50000598ABE62D0000002B00000020000000D0
:102A60002DE9F041044600251E461746880404D48B
:102A700005E039462020B0476D1C641EF9D5284674
:102A8000BDE8F0812DE9F041044600251E46904640
:102A9000C80301D5302700E02027880404D505E0CD
:102AA00041463846B0476D1C641EF9D52846BDE83E
:102AB000F08100002DE9F04D8D4F21F0004A86B0E5
:102AC00005460C46BA452ADBAAEB070028430AD084
:102AD0008848824501DC1AD1CDB106B02846BDE850
:102AE000F04DFFF774BB844A844B2846FDF789FC00
:102AF00007460E46824A834B28462146FDF781FC55
:102B000006B03A463346BDE8F04DFDF7D3BB012091
:102B1000FFF780FB06B0BDE8F04DFFF75DBB7A48DC
:102B2000824542DABAF1795F0BDA2846FFF7E6FA16
:102B3000042808BFFFF756FB284606B02146BDE82B
:102B4000F08D2A460B461046FDF75BFC8346024695
:102B50006E480E460B4606217844FFF7E3FA5A46C4
:102B60003346FDF74EFC804669488A465A4633464E
:102B700004217844FFF7D6FA5A463346FDF741FC64
:102B800000223B46FDF796FB02460B464046514667
:102B9000FDF7A9FC2A462346FDF733FC06B02A467A
:102BA0002346BDE8F04DFDF785BB284624F00041E3
:102BB00000223D463B46FDF721FC4FF0FF32FDF77A
:102BC0004DFE0646024653480F460B460621784402
:102BD000FFF7A8FA32463B46FDF713FCCDE90001AA
:102BE0004D4832463B4604217844FFF79BFA324673
:102BF0003B46FDF706FC00222B46FDF75BFB8346B8
:102C000002913046394601F027FA804643480D4686
:102C1000504517DCDDE900015A46029BFDF763FCD5
:102C200042462B46FDF7EDFB42462B46FDF742FBA5
:102C30000122FDF713FE304A304BFDF7DCFB304A32
:102C4000304B4CE04FF0000A52460B464046FDF731
:102C500031FBCDE9031052462B4610461946FDF7CD
:102C6000D0FB32463B46FDF7C9FBDDE90332FDF7F9
:102C70003AFC06460F46DDE900015A46029BFDF785
:102C800032FC83460091012230463946FDF7E6FDCD
:102C9000194A1A4BFDF7B2FB06460F460122404681
:102CA0002946FDF7DBFD5A46009BFDF7AAFB32469D
:102CB0003B46FDF7A0FB06460F460122504629463B
:102CC000FDF7CCFD0E4DDFF858802A464346FDF750
:102CD00095FB32463B46FDF791FB2A464346FDF7FE
:102CE0008DFB002CD8BF81F0004106B0BDE8F08D0F
:102CF0000000F03F0000F07F075C143326A6913CF3
:102D0000182D4454FB21F93F0000E03F94160000C9
:102D1000AA1600001E160000341600003333EF3FE1
:102D2000FB21E93F2DE9F84F04460D4621F0004014
:102D300000917349814211DC7249884201DC06D15D
:102D40002CB120462946BDE8F84FFFF740BA6E483F
:102D5000002DCCBF6D496E49BDE8F88F6D498142A9
:102D600011DD6D498142D8BF4FF0FF366DDD204641
:102D70002946FFF7C3F9042808BFFFF733FA2046B6
:102D80002946BDE8F88F6549654F25F00045814229
:102D900033DD6449814219DD002632464FF080431D
:102DA00020462946FDF786FA80468A4601222046BB
:102DB0002946FDF753FD00223B46FDF71CFB42462A
:102DC0005346FDF790FB04460D463EE001260022E7
:102DD000BA463B4620462946FDF76CFA80460F4628
:102DE0000022534620462946FDF705FB42463B4656
:102DF000FDF779FB04460D4627E04B4981421BDD78
:102E0000DFF828A102260022534620462946FDF776
:102E1000F8FA00223B46FDF74DFA80460F460022A5
:102E2000534620462946FDF7E6FA42463B46FDF763
:102E30005AFB04460D4608E0032622462B46002096
:102E40003B49FDF750FB04460D4622462B461046F3
:102E50001946FDF7D6FA8B46824602460B46FDF729
:102E6000D0FA07460246334888460B460621784486
:102E7000FFF758F952465B46FDF7C3FA82462E48E3
:102E80008B463A46434605217844FFF74BF93A46CC
:102E90004346FDF7B6FA02460B46002E5046594609
:102EA0000CDAFDF707FA22462B46FDF7AAFA01B025
:102EB00022462B46BDE8F04FFDF7A0BAFDF7FAF920
:102EC00022462B46FDF79DFA1C4A7A4402EBC603C4
:102ED000D3E90023FDF78FFA22462B46FDF78BFA44
:102EE000174A7A4402EBC603D3E90023FDF786FABA
:102EF000009A002AB8BF81F00041BDE8F88F0000B9
:102F0000000010440000F07F182D4454FB21F93FCD
:102F1000FB21F9BF0000DC3F0000203E0000F33F32
:102F20000000F03F0000E63F008003400000F83F53
:102F30000000F0BF36140000F413000092130000EC
:102F40005A1300002DE9F04D9446CCF1000423F013
:102F500000464CEA0404524F46EAD4749A46884626
:102F600021F00042BC4206D8454240EA050442EA4C
:102F7000D474BC4204D9BDE8F04D6246FFF72AB9CB
:102F8000AAF14055A5F17F6555EA0C040BD0022447
:102F900004EAAA74434DDFF810E144EAD87452EA17
:102FA000000B04D00CE0BDE8F04DFFF7BBBE002CD9
:102FB00014BF012CBDE8F08D022C30D0032C32D090
:102FC00056EA0C0B0AD0BE4220D1BA4209D126F0F3
:102FD000804622F080423346114617E000291ADB72
:102FE00025E0DFF8C8B0FB44002C04BFDBE900019A
:102FF000BDE8F08D012C02BFDBE9000181F000414A
:10300000BDE8F08D022C0AD0032C0CD0BA4212D1AC
:10301000B8F1000F0BDA23482549BDE8F08D2846AA
:103020002449BDE8F08D28467146BDE8F08D1D4865
:103030002149BDE8F08D921B12153C2AC4BF1948E6
:103040001D490EDCBAF1000FBEBF12F13C0F00208B
:10305000014606DB6246FDF746FA21F00041FFF724
:1030600061FE002C08BFBDE8F08D012C04BF81F08B
:103070000041BDE8F08D114A114B022C07D0FDF73D
:10308000BAF92A46BDE8F04D0A4BFDF7B4B9FDF791
:10309000B2F92A46BDE8F04D064BFDF7AFB9000086
:1030A0000000F07F182D4454FB2109C0EE120000EF
:1030B000FB21F9BFFB210940FB21F93F075C1433D9
:1030C00026A6A13C2DE9F04F8BB0054688469146D7
:1030D0009A46A4480068002846D1002441E055F8EB
:1030E0002400FDF785FAC4EB041202EB82029E4B2A
:1030F00003EB42129D4B1B6802EBC30203C255F85F
:103100002400FDF775FACDE90801994800EBC400E9
:10311000D0E900B35A460898FDF7CCF8944A02EB80
:10312000C40203C255F8241055F82400FDF752F8E4
:103130008346FDF75DFACDE908018E4800EBC40037
:10314000D0E900B35A460898FDF7B4F8894A02EB73
:10315000C40203C2884849F8240000204AF8240029
:10316000641C032CBBDBA3E000249EE0C4EB041032
:1031700000EB80007C4901EB40107C49096800EBC2
:10318000C100D0E900B37A4800EBC40003C85A4636
:10319000CDE90801FDF72FF9754A02EBC40203C21D
:1031A000C4EB041000EB80016F4800EB41116F4845
:1031B000006801EBC000D0E900B3C4EB041000EBE1
:1031C0008000694901EB40106849096800EBC101C2
:1031D00003C95A46CDE90601FDF713F9CDE9080107
:1031E000644800EBC400D0E900B35A460898FDF7E4
:1031F00005F9604A02EBC40203C255F82400FDF74A
:10320000F7F9C4EB041202EB8202574B03EB4212B4
:10321000564B1B6802EBC30203C2C4EB041000EB65
:103220008000514901EB40105049096800EBC10092
:10323000D0E900B34E4800EBC40003C85A46CDE9BC
:103240000801FDF737F84A4A02EBC40203C2C4EB97
:10325000041000EB8000444901EB40104349096829
:1032600000EBC101C4EB041000EB8000D1E900B316
:103270003D4901EB40113D48006801EBC00103C925
:103280005A46CDE90601FDF7BCF8CDE908013948F9
:1032900000EBC400D0E900B35A460898FDF70AF8DD
:1032A000344A02EBC40203C2641C032CFFF65EAF77
:1032B0002E480068401C2D490860084600684045BB
:1032C00004DB0020086001202649086025480068CA
:1032D00010B90BB0BDE8F08F4046FDF778F906460F
:1032E0000F4600243AE0224800EBC401D1E900B1C6
:1032F00032463B465846FDF7F6F8CDE90801FDF7A2
:103300008AF94AF824001A4800EBC401D1E900B355
:1033100000EBC40103C95A46CDE90001FDF771F87D
:1033200032463B46CDE90201FDF7DDF8CDE9040167
:10333000104800EBC400D0E900B35A460498FDF7EA
:103340005DF832463B46CDE90601FDF7CCF8CDE904
:103350000801FDF760F949F82400641C032CC2DB66
:1033600000BFB6E74C0000205001002050000020B4
:10337000701D0020881D00200000C84210B50346C3
:103380000C4619461819421EB1F5105F02D3B1F56B
:10339000804F0BD3B2F5105F02D3B2F5804F05D347
:1033A000B1F5105F05D2B2F5804F02D36FF0020085
:1033B00010BDB1F5044F02D3B1F5204F0BD3B2F5D8
:1033C000044F02D3B2F5204F05D3B1F5044F05D217
:1033D000B2F5204F02D36FF00200E9E7B2F5304FAB
:1033E00002D36FF00200E3E70020E1E710B56FF0D1
:1033F0000400FEF7DDFA0A4800680A49B0FBF1F064
:10340000094908700846007800EB4001C1EBC01084
:103410004FF6FF7101EAC0000449088010BD0000AA
:103420000400002000127A005C0000205E000020F2
:103430000146114A12884A434FF0E0235A610022A4
:103440009A611A46126942F001021A6100BF4FF0F8
:10345000E022106900F001021AB100F48032002A63
:10346000F5D04FF0E022126922F001024FF0E02384
:103470001A6100229A6170475E0000200146114ADD
:1034800012784A434FF0E0235A6100229A611A46AB
:10349000126942F001021A6100BF4FF0E022106988
:1034A00000F001021AB100F48032002AF5D04FF08A
:1034B000E022126922F001024FF0E0231A6100229B
:1034C0009A6170475C00002000BF054A128802F034
:1034D0004002002AF9D0C2B2014B1B1D1A8070476E
:1034E0000038014070B506460C46154646F0800689
:1034F0000020094908603046FEF782F905E0002007
:10350000FEF77EF920706D1E641C002DF7D101209E
:1035100001490860002070BD880121422DE9F04179
:1035200006460F46904600240AE0395D3219D0B2B3
:1035300000F07AFA054615B12846BDE8F081641C12
:103540004445F2D30020F8E72DE9F04704464FF058
:103550007C512046FCF73EFE814625462E460C480F
:10356000A0EB6606354629464846FCF733FE824600
:103570002946FCF72FFE80464FF07F51FCF727FECF
:1035800007462946FCF726FE05462846BDE8F08793
:10359000DF59375F38B5054600246B4601224AF2F1
:1035A0006721284600F01FF8044324B99DF8000065
:1035B000C0F340006874204638BD70B504460D461F
:1035C0002B4601227221204600F00DF80646A06825
:1035D00038B936B12B4601227221204600F003F89B
:1035E0000646304670BD2DE9F04105460C461646AC
:1035F0001F46A846FF2C07D9A1B23B46324640469B
:1036000000F0AEFABDE8F081E1B23B4632464046FA
:1036100000F094FAF6E7F8B506460D4600246B462E
:1036200001224AF258213046FFF7DDFF04439DF89E
:10363000000065F3041000906B4601224AF2582105
:10364000304600F0D8F904432046F8BDF8B50646E8
:103650000D4600246B4601221B213046FFF7C3FFB5
:1036600004439DF8000065F3030000906B460122BF
:103670001B21304600F0BFF904432046F8BDF8B5E1
:1036800006460D4600246B4601221B213046FFF7FB
:10369000AAFF04439DF8000065F3061000906B46F6
:1036A00001221B21304600F0A6F904432046F8BD54
:1036B000F8B506460D4600246B4601224AF28351B6
:1036C0003046FFF790FF04439DF8000065F30200C9
:1036D00000906B4601224AF28351304600F08BF98C
:1036E00004432046F8BDF8B506460D460024304692
:1036F000FFF750FF04436B46012210213046FFF7CD
:1037000072FF04439DF8000065F3010000906B46D2
:1037100001221021304600F06EF904432046F8BD26
:103720002DE9F84380460E461446002716B1012EB7
:1037300004D101E0162505E0562503E06FF00A00EC
:10374000BDE8F88300BF21789DF8000061F3000018
:103750008DF8000061789DF8000061F341008DF85C
:103760000000A1789DF8000061F382008DF8000050
:1037700021799DF8000061F304108DF80000617953
:103780009DF8000061F345108DF80000A1799DF8C7
:10379000000061F386108DF80000E1799DF80000CB
:1037A00061F3C7108DF80000217A9DF8010061F3E4
:1037B00000008DF80100617A9DF8010061F341007D
:1037C0008DF80100A17A9DF8010061F382008DF867
:1037D0000100E17A9DF8010061F3C3008DF801005A
:1037E000217B9DF8010061F304108DF80100617BDD
:1037F0009DF8010061F345108DF80100A17B9DF853
:10380000010061F386108DF801006B460222294603
:10381000404600F0F0F80743384691E7F8B5064611
:103820000D4600246B4601221C213046FFF7DBFECB
:1038300004439DF8000065F3030000906B460122ED
:103840001C21304600F0D7F804432046F8BDF8B5F7
:1038500006460D4600246B4601221C213046FFF728
:10386000C2FE04439DF8000065F3071000906B460C
:1038700001221C21304600F0BEF804432046F8BD6A
:10388000F8B506460D4600246B4601224AF2AC41CB
:103890003046FFF7A8FE04439DF8000065F30200E0
:1038A00000906B4601224AF2AC41304600F0A3F88A
:1038B00004432046F8BDF8B506460D4600243046C0
:1038C000FFF768FE04436B46012210213046FFF7E4
:1038D0008AFE04439DF8000065F3830000906B4668
:1038E00001221021304600F086F804432046F8BD3E
:1038F0002DE9F84380460F461446002517B1012FE5
:1039000004D101E0182605E0582603E06FF00A0014
:10391000BDE8F88300BF6B46012231464046FFF701
:1039200062FE054321789DF8000061F300000090DD
:1039300061789DF8000061F341000090A1789DF846
:10394000000061F3820000906B4601223146404640
:1039500000F051F805432846DAE770B504460D46F5
:10396000E06810B12846E168884770BD7FB505461C
:1039700000240020019003AB01222D212846FFF7EF
:1039800032FE044302AB012232212846FFF72BFE10
:1039900004439DF8040020F00200801C019001AB5C
:1039A00001227F21284600F026F804434FF47A7163
:1039B0002846FFF7D2FF02AB01223221284600F051
:1039C0001AF8044303AB01222D21284600F013F816
:1039D00004436B46012219212846FFF704FE0443E5
:1039E0009DF800000121B1EBD01F02D0881E04B069
:1039F00070BD2046FBE72DE9F04105460C46164612
:103A00001F46A846FF2C07D93B4632462146404672
:103A100000F0AEFBBDE8F081E1B23B4632464046E5
:103A200000F094FBF6E7000070B505460C46002058
:103A3000064908602846FDF7E3FE2046FDF7E0FE54
:103A400001200349C1F88801002070BD880121428E
:103A5000000021428EB0FDF7C1FFFFF7C7FC4FF415
:103A6000E13000F01FFB28A0FEF738FBFDF744F81B
:103A7000FDF778FEFDF708FD6420FFF7D9FC42E072
:103A80002348FDF719FC2348FDF760FB21494869ED
:103A9000FCF7AEFD04460D461E490869FCF7A8FD7B
:103AA00006460F461B49C868FCF7A2FD80468946BA
:103AB00018498868FCF79CFD82468B461549486882
:103AC000FCF796FDCDE90C0112490868FCF790FD62
:103AD000CDE902ABCDE90489CDE90667CDE908451A
:103AE000CDE90A01DDE90C01CDE900010AA0DDE91B
:103AF0000A23FEF7F3FA10480068401C0E490860DC
:103B00000A20FFF795FCBBE74F4B0D0A00000000B1
:103B1000A000002084000020252E326609252E32C8
:103B20006609252E326609252E326609252E326653
:103B300009252E32660D0A00000000202DE9F04113
:103B400004460D4617461E463A4631462846236827
:103B5000984718B16FF00200BDE8F0810020FBE744
:103B60002DE9F84306460D46174699460024394686
:103B70002846FFF703FC044314B12046BDE8F88350
:103B8000280A8DF80000E8B28DF801000420F168E1
:103B900088476B4602227C21304600F0D7FA044366
:103BA0000CB12046EAE74FF000080CE00420F16871
:103BB000884709EB080301227E213046FFF7BEFF4C
:103BC000044308F10108B845F0D32046D6E70000C9
:103BD000F0B587B007460D46164600240020069033
:103BE000A948AA490860AA48486001208860A948F5
:103BF000C86040F6B830FFF741FCA448806802284E
:103C000003D0A2488068012822D19DF8000020F04E
:103C10000E00001D00906B46012232219B48FFF7E9
:103C2000EAFE044300BF204600F07AF958B1982319
:103C300099A219469DA0FEF751FA6420FFF7F8FB00
:103C4000204607B0F0BD00BF0220FFF717FC00BF01
:103C500006A98E48FFF7B1FC044300BF204600F0E0
:103C60005FF950B19E238CA2194690A0FEF736FA58
:103C70006420FFF7DDFB2046E3E700BF9DF8180056
:103C8000E92811D0A0218FA0FEF728FA9DF818206E
:103C9000A12194A0FEF722FAE922A22197A0FEF723
:103CA0001DFA4FF0FF30CCE77848FFF75FFE044382
:103CB00000BF204600F034F950B1A72376A2194680
:103CC0007AA0FEF70BFA6420FFF7B2FB2046B8E7B4
:103CD00000BF01208DF8140000208DF815008DF82C
:103CE000160005AA00216948FFF702FE044300BF41
:103CF000204600F015F950B1B32367A219466BA016
:103D0000FEF7ECF96420FFF793FB204699E700BF2C
:103D10000020019002900390049001208DF806008D
:103D200001AA00215948FFF7FBFC044300BF2046CD
:103D300000F0F6F850B1B92357A219465BA0FEF780
:103D4000CDF96420FFF774FB20467AE700BF03211A
:103D50004E48FFF794FC044301214C48FFF777FDE0
:103D6000044300BF204600F0DBF850B1BE234AA256
:103D700019464EA0FEF7B2F96420FFF759FB204622
:103D80005FE700BF0A214148FFF760FC04430A21B6
:103D90003E48FFF743FD044300BF204600F0C0F853
:103DA00050B1C3233CA2194640A0FEF797F9642006
:103DB000FFF73EFB204644E700BF01213348FFF7F1
:103DC00077FC044301213148FFF75AFD044300BF4B
:103DD000204600F0A5F850B1C8232FA2194633A001
:103DE000FEF77CF96420FFF723FB204629E700BF9C
:103DF00001212648FFF70FFC044300BF204600F0D6
:103E00008FF850B1CC2324A2194628A0FEF766F9FA
:103E10006420FFF70DFB204613E700BF67B125B113
:103E200003211A48FFF75FFC04438EB103211748B2
:103E3000FFF741FD04430BE025B102211348FFF7D2
:103E400052FC044326B102211048FFF734FD04431D
:103E500015B101203049087016B104202F490870AF
:103E600000BF204600F05CF850B1E1230AA21946D9
:103E70000EA0FEF733F96420FFF7DAFA2046E0E6F9
:103E800000BF2046DDE60000E5340008B000002059
:103E90001D3500087D34000862617369635F7265D7
:103EA00061645F7265672E630000000025642C4129
:103EB0007420257320286C696E65202564290D0AFD
:103EC0000000000025642C4572726F6E656F75737B
:103ED0002057484F414D492076616C75652E0D0A7B
:103EE0000000000025642C20202D205265616420F4
:103EF0003078253032780D0A0000000025642C202F
:103F0000202D2045787065637465642030782530F5
:103F100032780D0A0000000018000020190000206F
:103F200010B50446002C2FD014F1040F17D006DC76
:103F300014F17F0F1DD014F10B0F1FD114E014F1F9
:103F4000030F07D0B4F1FF3F18D121460FA0FEF7B1
:103F5000C5F818E0214613A0FEF7C0F813E021468B
:103F60001AA0FEF7BBF80EE0214627A0FEF7B6F830
:103F700009E021462CA0FEF7B1F804E0214631A06B
:103F8000FEF7ACF800BF00BF204610BD556E737041
:103F900065636966696564206572726F72202825A1
:103FA000642900004572726F72206F6363757272CC
:103FB0006564206174207472616E73706F72742016
:103FC0006C6576656C20282564290000416374695E
:103FD0006F6E20646964206E6F7420636F6D706C07
:103FE00065746520696E2074686520657870656306
:103FF0007465642074696D652077696E646F7720DD
:104000002825642900000000496E76616C696420EF
:10401000617267756D656E742070726F7669646524
:10402000642028256429000045444D5020627566AF
:1040300066657220697320656D7074792028256427
:1040400029000000556E6B6E6F776E206572726F7F
:1040500072202825642900002DE9F04106460F460C
:10406000FCF766FC04000D4618BF0120284320F031
:104070000040C0F17F6000F1E040C00F0ED0301C66
:1040800018BF0120384320F00040C0F17F6000F1EC
:10409000E040C00F04BF0120FEF7BCF820462946CF
:1040A000BDE8F08110B586B00446012144F2040059
:1040B000FDF7CEFA2348FDF7FBFE4FF40070ADF894
:1040C000140003208DF8160018208DF8170005A99C
:1040D0001D48FCF781FC4FF48060ADF8140004200B
:1040E0008DF8170005A91848FCF776FC25208DF8F7
:1040F000000003208DF801008DF8020001208DF8EA
:1041000003006846FDF740FA01940020ADF808006E
:10411000ADF80A00ADF80C00ADF810000C20ADF8B9
:104120000E0001A90748FDF761FF012240F2255169
:104130000448FDF735FF01210248FDF7ACFE06B04B
:1041400010BD000000380140000801402DE9F04199
:1041500004460D4617461E463A46314628466368D1
:10416000984718B16FF00200BDE8F0810020FBE72E
:104170002DE9F84305460E46174698460024394671
:104180003046FFF7FBF8044314B12046BDE8F8833E
:10419000300A8DF80000F0B28DF8010098F80000A8
:1041A0008DF802000420E96888476B4603227C21D1
:1041B0002846FFF7CBFF04430420E96888470CB189
:1041C0002046E3E74FF001090CE008EB0903012268
:1041D0007E212846FFF7BAFF04430420E968884798
:1041E00009F10109B945F0D32046CFE700000000EE
:1041F000555555555555C53F7D6FEB0312D6D4BF68
:104200005544880E55C1C93F3B8F68B52882A4BF6D
:1042100088B20175E0EF493F09F7FD0DE13D023F2E
:104220004B2D8A1C273A03C0C88A599CE52A0040B6
:1042300059018D1B6C06E6BF82922EB1C5B8B33F03
:104240004FBB610567ACDD3F182D4454FB21E93FAE
:104250009BF681D20B73EF3F182D4454FB21F93F9D
:10426000E2652F227F2B7A3C075C143326A6813C23
:10427000BDCBF07A8807703C075C143326A6913CCE
:10428000C4EB98999999C9BF711623FEC671BCBF3A
:104290006D9A74AFF2B0B3BF9AFDDE522DDEADBFA2
:1042A0002F6C6A2C44B4A2BF0D5555555555D53FBA
:1042B000FF8300922449C23F6E204CC5CD45B73FD5
:1042C000513DD0A0660DB13FEB0D76244B7BA93F4D
:1042D00011DA22E33AAD903F000000000000000038
:1042E000004300080000002084000000F4210008C2
:1042F00084430008840000208C230000042200086E
:104300000000000000A24A040000000000000000BD
:104310000102030406070809000000000000000075
:10432000000000000000000000000000000000008D
:10433000000000000000000000000000000000007D
:10434000000000000000000000000000000000006D
:10435000000000000000000000000000000000005D
:10436000000000000000000000000000000000004D
:1043700001020304010203040607080902040608F7
:044380000000000039
:04000005080000ED02
:00000001FF
