:020000040800F2
:10000000600A002091010008D91A0008E7060008DC
:10001000D51A0008A9040008DB2E00080000000023
:10002000000000000000000000000000BD1C0008EF
:10003000AD04000800000000651B0008CD1D00088D
:10004000AB010008AB010008AB010008AB010008E0
:10005000AB010008AB010008AB010008AB010008D0
:10006000AB010008AB010008AB010008AB010008C0
:10007000AB010008AB010008AB010008AB010008B0
:10008000AB010008AB010008AB010008AB010008A0
:10009000AB010008AB010008AB010008AB01000890
:1000A000AB010008AB010008AB010008AB01000880
:1000B000311F000885240008AB010008AB010008CF
:1000C000AB010008AB010008AB010008AB01000860
:1000D000AB010008552B0008AB010008AB0100087C
:1000E000AB010008AB010008AB01000800F002F80A
:1000F00000F03FF80AA090E8000C82448344AAF183
:100100000107DA4501D100F034F8AFF2090EBAE880
:100110000F0013F0010F18BFFB1A43F0010318473B
:10012000704E0000904E0000103A24BF78C878C18D
:10013000FAD8520724BF30C830C144BF04680C60ED
:10014000704700000023002400250026103A28BF35
:1001500078C1FBD8520728BF30C148BF0B60704739
:10016000642900F07780002070471FB51FBD10B5CF
:1001700010BD00F04DF91146FFF7F7FF03F072FBD9
:1001800000F06BF903B4FFF7F2FF03BC02F036FF97
:100190000948804709480047FEE7FEE7FEE7FEE71B
:1001A000FEE7FEE7FEE7FEE7FEE7FEE70448054957
:1001B000054A064B70470000D11D0008ED000008FD
:1001C00060040020600A0020600600206006002015
:1001D000704700000FB4044910B503AA029800F05C
:1001E000E1F810BC5DF814FB780000202DE9F04127
:1001F0000E460446002020622046E168884730B35E
:10020000252805D0D4E901219047206A401CF2E757
:10021000E168204600278847050018D0A5F1410075
:10022000192802D820354FF4006732462946204667
:100230002760FFF795FF40B1012804D0F61D26F096
:1002400007060836D8E7361DD6E72846DAE7206ADB
:10025000BDE8F0812DE9F0410646002410687529BB
:10026000314616A511D0AFF30080002803DAC0F1A3
:10027000000013A507E031688A0701D511A502E047
:10028000490704D510A5012401E0AFF30080002147
:100290000A2306F1240707E0B0FBF3F203FB120088
:1002A000303078541046491C0028F5D123462A46A0
:1002B0003046BDE8F04100F018B800000000000032
:1002C0002D0000002B000000200000007047704748
:1002D0007047704710B500F077F8006810BD10B592
:1002E000044600F071F8046010BD2DE9F0470D469A
:1002F00099469246044600F124080168880604D510
:10030000E06921F01001216000E00120A84202DD37
:10031000A0EB050700E00027A16907EB050202EB4F
:100320000900A1EB0000A0612078C00602D420469D
:10033000AFF30080002608E0D4E901211AF8060096
:100340009047206A401C761C20624E45F4DB2078E2
:10035000C0060AD52046AFF3008006E0D4E90121AB
:1003600030209047206A401C2062381EA7F1010708
:10037000F4DC07E0D4E9012118F805009047206A71
:10038000401C2062281EA5F10105F3DC2046AFF3D6
:1003900000802078000602D50220BDE8F087012009
:1003A000FBE70000074B70B50D467B4400F015F8E5
:1003B0000446284600F024F810B14FF0FF3070BD1D
:1003C000204670BD5333000000487047FC030020F6
:1003D00001694A1C02610878704700B58FB0CDE909
:1003E00001310021059105497944CDE903101146F9
:1003F0006846FFF7FBFE0FB000BD0000E5FFFFFF02
:10040000007B00F08000704700487047FC0300202C
:100410007546FFF7F9FFAE4605006946534620F0E2
:100420000700854618B020B5FFF7C0FEBDE82040A4
:100430004FF000064FF000074FF000084FF0000BA0
:1004400021F00701AC46ACE8C009ACE8C009ACE853
:10045000C009ACE8C0098D4670470446AFF3008080
:100460002046FFF78FFE000010B50948006820B94C
:1004700043F215400649086002E000200449086084
:100480000348008881B2034802F09BF910BD0000C8
:1004900034000020002C014010B50021014802F07A
:1004A00090F910BD002C014000BFFEE7704700002E
:1004B00030B5044604254FF4302000F06FF80546AF
:1004C000042D17D10C48006940F002000A49086168
:1004D00008464461006940F0400008614FF4302054
:1004E00000F05CF805460448006941F6FD710840DB
:1004F00001490861284630BD0020024004200B4914
:10050000C96811F0010F01D001200EE00749C96848
:1005100011F0040F01D0022007E00449C96811F06E
:10052000100F01D0032000E004207047002002409B
:100530000348006940F080000149086170470000ED
:100540000020024070B504460D460426F00200F07B
:1005500025F80646042E11D10948006940F0010033
:10056000074908612580F00200F018F806460448A3
:10057000006941F6FE71084001490861304670BDCE
:100580000020024002480349486003484860704721
:100590002301674500200240AB89EFCD00B502463C
:1005A0000423FFF7ABFF034603E0FFF7A7FF034673
:1005B000521E012B01D1002AF7D102B9052318469A
:1005C00000BD2DE9F0410246002500260020002351
:1005D0000024002791F803C00CF00F0591F803C028
:1005E0001CF0100F03D091F802C04CEA050591F8F9
:1005F00000C0BCF1000F31D0146800202BE04FF098
:10060000010C0CFA00F3B1F800C00CEA03069E429C
:1006100020D183004FF00F0C0CFA03F7BC4305FA0E
:1006200003FC4CEA040491F803C0BCF1280F06D186
:100630004FF0010C0CFA00FCC2F814C00AE091F86B
:1006400003C0BCF1480F05D14FF0010C0CFA00FCBF
:10065000C2F810C0401C0828D1D31460B1F800C003
:10066000BCF1FF0F34DD546800202EE000F1080CCF
:100670004FF0010808FA0CF3B1F800C00CEA0306C9
:100680009E4221D183004FF00F0C0CFA03F7BC43BC
:1006900005FA03FC4CEA040491F803C0BCF1280FEE
:1006A00005D100F1080C08FA0CF8C2F8148091F892
:1006B00003C0BCF1480F07D100F1080C4FF001084E
:1006C00008FA0CF8C2F81080401C0828CED35460F9
:1006D000BDE8F0810246002093680B4201D0012062
:1006E00000E00020704700BFFEE700002DE9FE4F4C
:1006F00004460D4616461F46DDE90D9ADDF83080AA
:10070000444B0E223B21D22000F080FB4148407830
:100710004049097840EA012000B23F4908803D483D
:10072000C0783C49897840EA012000B23B49088002
:10073000384840793749097940EA012000B2384900
:1007400008803448C0793349897940EA012000B2F1
:10075000344908802F48407A2E49097A40EA01201E
:1007600000B2314908802B48C07A2A49897A40EA88
:10077000012000B22D4908802648407B2549097B8D
:1007800040EA012000B22A4908800846B0F900007A
:100790002649B1F90010244AB2F90020CDE9002120
:1007A00002902048B0F900301D48B0F900201B48E5
:1007B000B0F900101848B0F9000000F03FF81D48EB
:1007C000808A20801B48408D28801A48B0F840005D
:1007D00030801848B0F8560038801648B0F86C00E1
:1007E00015494988401A00B2A8F800001148B0F82D
:1007F000820011498988401A00B2A9F800000D480A
:10080000B0F898000C49C988401A00B2AAF8000054
:10081000BDE8FE8FB000002024000020260000204C
:1008200028000020300000202A0000202C0000209A
:100830002E000020BE000020B80100202DE9F04766
:1008400004460D46DDE9097C089E002101204BE0AD
:10085000DFF8248238F81090A0F10108DFF818A220
:100860002AF818900AF1160838F810A0A0F101082B
:10087000DFF8049209F1160929F818A009F1160801
:1008800038F810A0A0F1010809F1160929F818A0FC
:1008900009F1160838F810A0A0F1010809F11609AD
:1008A00029F818A009F1160838F810A0A0F10108DD
:1008B00009F1160929F818A009F1160838F810A04E
:1008C000A0F1010809F1160929F818A009F1160884
:1008D00038F810A0A0F1010809F1160929F818A0AC
:1008E00000F1010808F0FF000A28B1DBDFF8888179
:1008F000A8F81240A8F82850A8F83E20A8F85430CC
:10090000A8F86A60A8F88070A8F896C000210020B6
:1009100008E0DFF8648138F91080414400F10108F3
:1009200008F0FF000A28F4DB4FF00A0891FBF8F802
:100930000FFA88F8DFF84091A9F814800021002010
:100940000AE0DFF8348108F1160838F910804144D4
:1009500000F1010808F0FF000A28F2DB4FF00A0856
:1009600091FBF8F80FFA88F9DFF80C81A8F82A90C3
:10097000002100200AE0DFF8008108F12C0838F996
:100980001080414400F1010808F0FF000A28F2DB62
:100990004FF00A0891FBF8F80FFA88F9DFF8D880D1
:1009A000A8F84090002100200AE0DFF8CC8008F190
:1009B000420838F91080414400F1010808F0FF00B6
:1009C0000A28F2DB4FF00A0891FBF8F80FFA88F9D1
:1009D000DFF8A480A8F85690002100200AE0DFF894
:1009E000988008F1580838F91080414400F1010856
:1009F00008F0FF000A28F2DB4FF00A0891FBF8F834
:100A00000FFA88F9DFF87080A8F86C9000210020B8
:100A10000AE0DFF8648008F16E0838F9108041447C
:100A200000F1010808F0FF000A28F2DB4FF00A0885
:100A300091FBF8F80FFA88F9DFF83C80A8F882906B
:100A4000002100200AE0DFF8308008F1840838F93E
:100A50001080414400F1010808F0FF000A28F2DB91
:100A60004FF00A0891FBF8F80FFA88F9DFF80880D0
:100A7000A8F89890BDE8F087BE00002010B580224D
:100A80006B21D22000F0F6F9642002F0EDFD032284
:100A90006821D22000F0EEF9642002F0E5FD012289
:100AA0006B21D22000F0E6F9642002F0DDFD002287
:100AB0006C21D22000F0DEF9642002F0D5FD022284
:100AC0001A21D22000F0D6F90F2002F0CDFD00222D
:100AD0001921D22000F0CEF90F2002F0C5FD0F2021
:100AE00002F0C2FD002000F025F80F2002F0BCFD4E
:100AF000002000F016F80F2002F0B6FD102237217A
:100B0000D22000F0B7F90F2002F0AEFD002238210C
:100B1000D22000F0AFF90F2002F0A6FD02F0FEFD9A
:100B200010BD10B50446E006020E1C21D22000F0D4
:100B3000A1F910BD10B50446E006020E1B21D2201B
:100B400000F098F910BD000010B5002010490860B1
:100B50001048006820F070400E49086008460068A0
:100B600040F0405008604FF000000B49C1F89C0174
:100B70004FF0020002F09EFD0120054908604FF091
:100B8000020002F097FD00200349C1F8980110BD52
:100B900098812142000C01400080214208B50121CA
:100BA000082001F001F8C020ADF8000010208DF8F9
:100BB000030003208DF8020069460248FFF701FD9B
:100BC00008BD0000000C014010B50020104908606D
:100BD0001048006820F070400E4908600846006820
:100BE00040F0405008604FF001000B49C1F89C01F3
:100BF0004FF0020002F05EFD0120054908604FF051
:100C0000020002F057FD00200349C1F8980110BD11
:100C100098812142000C01400080214270B50546B8
:100C200000241748006820F0704015490860084605
:100C3000006840F000400860002616E000201149DE
:100C400008604FF0020002F035FD01200E49C1F8A6
:100C500098016006040E0D48006808B1601CC4B21B
:100C6000022002F027FD701CC6B2082EE6DB15B18B
:100C7000FFF76AFF01E0FFF7A7FF204670BD000005
:100C8000000C014098812142008021421C812142B8
:100C900070B504461648006820F07040144908609A
:100CA0000846006840F04050086000201149086084
:100CB00005461AE0E009104908604FEA44604FEA2F
:100CC00010644FF0020002F0F5FC01200B49C1F85E
:100CD0009801022002F0EEFC0020064908604FF067
:100CE000020002F0E7FC681CC5B2082DE2DB70BD13
:100CF000000C0140988121429C81214200802142C8
:100D000010B51048006820F070400E490860084691
:100D1000006840F04050086001200B4908600B4912
:100D2000C1F898014FF0040002F0C4FC002006490D
:100D300008604FF0040002F0BDFC00200349C1F838
:100D4000980110BD000C01409C812142008021428D
:100D500010B51048006820F070400E490860084641
:100D6000006840F04050086000200B4908600B49C3
:100D7000C1F89C014FF0040002F09CFC01200649E0
:100D800008600649C1F89C014FF0040002F092FC93
:100D900010BD0000000C01409881214200802142DA
:100DA00010B500241448006820F070401249086013
:100DB0000846006840F00040086001200F490860C4
:100DC00002F078FC01200E49C1F8980102F072FC93
:100DD0000AE0601CC4B2322C03DDFFF7B9FF01202A
:100DE00010BD012002F066FC064800680028F0D122
:100DF0000549086000BFF3E7000C01409C812142D7
:100E0000008021421C812142988121422DE9F04736
:100E100006460F46154698460024FFF771FF3046F8
:100E2000FFF736FFFFF7BCFF3846FFF731FFFFF74C
:100E3000B7FFFFF765FF711CC8B2FFF729FFFFF787
:100E4000AFFF00BF0FE0681EA04204D00120FFF7F3
:100E5000E5FE814603E00020FFF7E0FE814608F84A
:100E60000490601CC4B2AC42EDDBFFF771FF20467A
:100E7000BDE8F08737B504460D4602AB012229468E
:100E8000204600F001F83EBD2DE9F04180460D46B8
:100E900016461F460024FFF733FF4046FFF7F8FED3
:100EA000FFF77EFF2846FFF7F3FEFFF779FF00BF4D
:100EB00006E0385DFFF7ECFEFFF772FF601CC4B27E
:100EC000B442F6DBFFF744FF0120BDE8F0810000EB
:100ED0002DE9FF4F97B01D46FE480168006803F0FA
:100EE000E9FD1190FC480168FA48006803F0E2FD52
:100EF0001090FA480168F748006803F0DBFD0F9096
:100F0000F7480168F348006803F0D4FD0E90F248FA
:100F10000168006803F0CEFD0D90F0480168EE48CE
:100F2000006803F0C7FD0C90ED480168EA480068CE
:100F300003F0C0FD0B90E9480168006803F0BAFDBA
:100F40000A90E7480168E548006803F0B3FD09909E
:100F5000E3480168006803F0ADFD0890E1480068CF
:100F6000E149086008460068E049096888420FD2F4
:100F7000DE4909684FF6FF72511ADB4A1268881879
:100F800003F050FDDA49079003F022FC04460BE021
:100F9000D5490968D54A1268881A03F043FDD44937
:100FA000079003F015FC0446CF480068CF4908605D
:100FB0002599084603F07EFD06902499084603F023
:100FC00079FD29460490284603F074FD03900499A6
:100FD00003F090FB0590069903F08CFB079002F05C
:100FE000BDFB16902846169903F064FD0546169938
:100FF000249803F05FFD24901699259803F05AFD7C
:1010000025902899084603F055FD06902799084633
:1010100003F050FD04902699084603F04BFD039021
:10102000049903F067FB0590069903F063FB0790B2
:1010300002F094FB16901699269803F03BFD26903B
:101040001699279803F036FD27901699289803F0F3
:1010500031FD28900F990B9803F034FE4FF080413A
:10106000079003F027FD15900999109803F042FBB3
:101070004FF08041079003F01DFD14900D991198D9
:1010800003F020FE06900A9903F01CFE07900899D1
:1010900003F030FB13901499259803F00BFD079093
:1010A0001399249803F006FD0690079903F00AFEB1
:1010B00006462846139903F0FDFC079015992598DC
:1010C00003F0F8FC0690079903F0FCFD074615991C
:1010D000249803F0EFFC07902846149903F0EAFCEB
:1010E0000690079903F0EEFD80460021304603F09C
:1010F00031FC69D00021384603F02CFC64D000217B
:10110000404603F027FC5FD07A49304603F0D2FC1A
:101110002146069003F0CEFC0790774801680798B7
:1011200003F0E8FA744908607249384603F0C2FCDB
:101130002146069003F0BEFC0790704801680798AE
:1011400003F0D8FA6D4908606A49404603F0B2FCE2
:101150002146069003F0AEFC0790694801680798A5
:1011600003F0C8FA6649086031464FF07C5003F03E
:10117000A1FC0690179903F0BDFA07905E4801683C
:10118000079803F0B7FA179039464FF07C5003F0F8
:1011900091FC0690189903F0ADFA07905748016842
:1011A000079803F0A7FA189041464FF07C5003F0DF
:1011B00081FC0690199903F09DFA07905048016848
:1011C000079803F097FA199045481999006803F0B9
:1011D00071FC059041481899006803F06BFC03907E
:1011E0003D48006880F000400190179903F062FCD0
:1011F0000290039903F066FD0490059903F062FDE7
:101200002146069003F056FC079032480168079883
:1012100003F070FA814632481899006803F04AFCDE
:1012200005902E481999006803F044FC0390294862
:101230000168179803F03EFC0290039903F05AFAF4
:101240000490059903F03EFD2146069003F032FC20
:10125000079021480168079803F04CFA1290204843
:101260000168179803F026FC05901B48199900683F
:1012700003F020FC039017481899006803F01AFC4B
:101280000290039903F01EFD0490059903F032FAD1
:101290002146069003F00EFC07901048016807985D
:1012A00003F028FA82460D480168179803F002FC03
:1012B000059009481899006803F0FCFB0390054865
:1012C0001999006803F0F6FB0290039903F012FAF3
:1012D000049017E0480000204C000020500000203F
:1012E000540000206C0000206400002060000020FA
:1012F00000409C46A69BC43B3C00002040000020D0
:1013000044000020059903F0DDFC2146069003F01F
:10131000D1FB079021480168079803F0EBF9834659
:101320005946584603F0C6FB51460690504603F016
:10133000C1FB04901299084603F0BCFB4946029099
:10134000484603F0B7FB0190029903F0D3F90390EC
:10135000049903F0CFF90590069903F0CBF90790B3
:1013600002F0FCF916904846169903F0A3FB0C49CD
:1013700008601699129803F09DFB0A4908605046D0
:10138000169903F097FB084908605846169903F030
:1013900091FB024908601BB0BDE8F08F54000020AB
:1013A000480000204C0000205000002010B50446EA
:1013B0001549086803F002FB00B220801249486812
:1013C00003F0FCFA00B260800F49886803F0F6FA77
:1013D00000B2A0800C49C86803F0F0FA00B2E080C7
:1013E0000949086903F0EAFA00B220810649486910
:1013F00003F0E4FA00B260810349886903F0DEFA81
:1014000000B2A08110BD00006C0100202DE9F04168
:1014100086B00446224800F051F821494869214924
:1014200003F048FB8046204903F0D2F905461C49E9
:1014300008691C4903F03EFB80461B4903F0C8F9CC
:1014400006461749C868174903F034FB8046164919
:1014500003F0BEF907461248006A1149C969104AEB
:1014600092690F4B9B68CDE90132CDE903100C481E
:10147000406800900A482A46314603683846FFF71C
:1014800027FD0A4800682060094800686060094834
:101490000068A06008480068E06006B0BDE8F08120
:1014A00094010020DB0F4940000034434800002035
:1014B0004C000020500000205400002070B588B07F
:1014C00005460DF11A0006A9021F07ABCDE9002160
:1014D000029005AA891F04A8FFF708F9BDF91000BA
:1014E00003F088FA20490860BDF9120003F082FA7F
:1014F0001D494860BDF9140003F07CFA1A49886060
:10150000BDF9160003F076FA1749C860BDF9180056
:1015100003F070FA14490861BDF91A0003F06AFA81
:1015200011494861BDF91C0003F064FA0E49886155
:10153000002415E0032C07DA04A931F9140003F0A4
:1015400059FA45F824000AE004A931F9140003F01F
:1015500051FA0646054903F03BF945F82400641C9E
:10156000062CE7DB08B070BD6C01002000000343CF
:101570002DE9F04F93B0044600200E900D900C9092
:101580000FA8FFF743FF4FF08040129903F092FA43
:101590000490129903F08EFA83464FF0404011995F
:1015A00003F088FA0490119903F084FA59460590E3
:1015B00003F088FB82464FF07E5103F09BF8814692
:1015C00003F06CF8074688464FF080400F9903F00F
:1015D00071FA0590129903F06DFA82464FF080403F
:1015E000109903F067FA0590119903F063FA8346A6
:1015F000514603F07FF8814603F050F83A464346DF
:10160000CDE9060101F04EFF81F0004105460022C0
:101610005B4B02F069FD4FF0C0425A4BCDE9080127
:1016200002F0C4FBCDE90A0102F0DEFA206056495F
:10163000B1F9080002F041FD05460022534B02F0CB
:10164000B5FBCDE908014FF080400F9903F032FA65
:101650000390119903F02EFA82464FF04040109902
:1016600003F028FA0390129903F024FA83465146B6
:1016700003F040F8814603F011F8074601F0C2FC80
:1016800081F0004100223E4BCDE9040102F02CFD27
:1016900005464FF0C0423B4B02F088FBCDE9060106
:1016A000DDE9082302F010FFCDE90A0102F09CFAFF
:1016B00060603549B1F90A0002F0FFFC05460022DE
:1016C000324B02F073FBCDE908014FF080401199D5
:1016D00003F0F0F90090119903F0ECF983464FF014
:1016E0004040109903F0E6F90090109903F0E2F9F8
:1016F0005946019003F0E6FA82464FF07E5102F01F
:10170000F9FF814602F0CAFFCDE904014FF08040A5
:101710000F9903F0CFF90190109903F0CBF98246AD
:101720004FF08040119903F0C5F90190129903F030
:10173000C1F98346514602F0DDFF814602F0AEFF5B
:10174000CDE90201DDE9042301F0ACFE07460022E9
:101750000B4B02F0C9FC05464FF0C042094B02F0AA
:1017600025FBCDE90601DDE9082302F0ADFECDE958
:101770000A0102F039FAA06013B0BDE8F08F000052
:1017800000806640FB210940B80100200000244091
:1017900010B500BFFFF772F90028FBD000F02EF85B
:1017A0004FF07E500B49086000200B4908600B4940
:1017B00008600B4908600B4908600B4908600B4939
:1017C00008600B4800680B490860094800680A492E
:1017D000086010BD480000204C0000205000002090
:1017E000540000203C000020400000204400002065
:1017F0006C00002060000020640000201FB5012163
:10180000022000F0B1F9184800F082FE6320ADF824
:1018100008004720ADF804000020ADF80A00ADF83C
:10182000060001A9104800F0CFFF01210E4800F08A
:101830004DFE012211460C4800F06FFF01210A48BD
:1018400000F04AFE4FF4C06000F082F91D208DF8D0
:10185000000001208DF801008DF802008DF80300D2
:10186000684600F03BF91FBD0004004008B50121A7
:10187000082000F099F94FF40040ADF8000048202E
:101880008DF8030069460248FEF79BFE08BD000084
:10189000000C014010B5044614B101201149087034
:1018A0001048007898B14FF400410F48FEF712FF3E
:1018B00068B90A2001F0D8FE00200A4908704FF4E8
:1018C00000410948FEF706FF50B9012010BD4FF452
:1018D00000410548FEF7FEFE012801D101490870CC
:1018E0000020F3E768000020000C014008B501214A
:1018F0000C2000F059F9FE20ADF8000010208DF802
:10190000030003208DF8020069460948FEF759FEDE
:1019100047F60300ADF8000010208DF80300032007
:101920008DF8020069460348FEF74BFE08BD000033
:1019300000080140000C01403EB5002000900190DD
:1019400002902A4908814881002408E04FF4FA7087
:1019500001F0B0FE2648FFF70BFE601C84B2642C39
:10196000F4DB00241BE0C82001F0A4FE2048FFF7B0
:10197000FFFD1F4948681F4903F09CF8054601997F
:1019800002F0B8FE01901A4988681A4903F092F8EB
:101990000546029902F0AEFE0290601C84B2642CEF
:1019A000E1DB1549019802F013FF054603F006F844
:1019B00000B2124908800D4908810F49029802F0CF
:1019C00007FF054602F0FAFF00B20D4908800749FB
:1019D000488101F085FA0849019802F0F9FE01906A
:1019E0000549029802F0F4FE02903EBDB8010020C5
:1019F00088010020000020410000C842380000207B
:101A00003A0000202DE9F04788B000250026002785
:101A1000A846A946AA46002411E0642001F04AFE27
:101A20000DF11A0006A9021F07ABCDE900210290B3
:101A300005AA891F04A8FEF759FE601CC4B2322C07
:101A4000EBDB002423E0C82001F034FE0DF11A0086
:101A500006A9021F07ABCDE90021029005AA891F44
:101A600004A8FEF743FEBDF910008044BDF9120042
:101A70008144BDF914008244BDF916000544BDF946
:101A800018000644BDF91A000744601CC4B2642C57
:101A9000D9DB642095FBF0F00D494988084400B279
:101AA0000B494880642096FBF0F08988084400B216
:101AB00007498880642097FBF0F0C988084400B289
:101AC0000349C88001F00CFA08B0BDE8F0870000B7
:101AD000B801002000BFFEE77047000070B500218C
:101AE00000230F22C4780CB3164C246804F4E0647D
:101AF000C4F5E064210AC1F10403CA40447804FA41
:101B000003F184781440214309010F4C0678A15554
:101B1000047804F01F050124AC4005786D114FF0E6
:101B2000E02606EB8505C5F8004109E0047804F0DD
:101B30001F050124AC40054D0678761145F8264076
:101B400070BD00000CED00E000E400E080E100E08A
:101B500002490143024A1160704700000000FA0583
:101B60000CED00E07047000029B1064AD26902433B
:101B7000044BDA6104E0034AD2698243014BDA6123
:101B8000704700000010024029B1064A1269024362
:101B9000044B1A6104E0034A12698243014B1A6143
:101BA000704700000010024029B1064A92690243C2
:101BB000044B9A6104E0034A92698243014B9A61A3
:101BC000704700000010024029B1064AD268024363
:101BD000044BDA6004E0034AD2688243014BDA60C6
:101BE000704700000010024030B5002100220024A0
:101BF00000232D4D6D6805F00C0121B1042905D09D
:101C0000082923D105E0294D056022E0274D056014
:101C10001FE0254D6D6805F47012234D6D6805F4C5
:101C20008034022505EB92421CB9214D55430560D5
:101C30000BE01D4D6D6815F4003F03D01C4D55435E
:101C4000056002E0194D5543056002E0174D05603F
:101C500000BF00BF144D6D6805F0F0010909154D76
:101C60006B5C0568DD4045600F4D6D6805F4E06113
:101C7000090A104D6B5C4568DD4085600A4D6D6852
:101C800005F46051C90A0B4D6B5C4568DD40C560C9
:101C9000054D6D6805F44041890B074D6B5CC568C7
:101CA000B5FBF3F5056130BD0010024000127A006B
:101CB00000093D007E0000208E000020704710B516
:101CC00000F002F810BD00000CB50020019000905B
:101CD0003248006840F480303049086000BF2F4827
:101CE000006800F4003000900198401C01900098BA
:101CF00018B90198B0F5A06FF1D12848006810F428
:101D0000003F02D00120009001E0002000900098E8
:101D1000012842D12248006840F0100020490860A4
:101D20000846006820F0030008600846006840F09C
:101D30000200086019484068184948600846406831
:101D400048600846406840F4806048600846406843
:101D500020F47C1048600846406840F4E810486071
:101D60000846006840F08070086000BF0B480068BB
:101D700010F0007FFAD00948406820F003000749BE
:101D800048600846406840F00200486000BF0348D1
:101D9000406800F00C000828F9D10CBD001002408A
:101DA00000200240042808D14FF0E021096941F0E9
:101DB00004014FF0E022116107E04FF0E0210969D2
:101DC00021F004014FF0E0221161704770470000DC
:101DD00010B51348006840F001001149086008463A
:101DE0004068104908400E494860084600680E499E
:101DF00008400B4908600846006820F4802008600D
:101E00000846406820F4FE0048604FF41F008860D8
:101E1000FFF755FF4FF000600449086010BD000057
:101E2000001002400000FFF8FFFFF6FE08ED00E0A2
:101E300030B589B005460C460121C802FFF7B4FE53
:101E400001210420FFF7B0FE4FF40060ADF8200040
:101E500018208DF8230003208DF8220008A91848C7
:101E6000FEF7AFFBADF81850ADF814400020ADF808
:101E70001A00ADF8160005A9124800F0A5FC702064
:101E8000ADF804000120ADF806000020ADF80A000E
:101E9000ADF80C0001A90B4800F048FC01210948ED
:101EA00000F026FB0821074800F07EFC01210548D0
:101EB00000F000FB0121034800F00EFB09B030BD2B
:101EC00000080140002C01401FB501210846FFF722
:101ED0004BFE4FF4C060FFF73BFE1C208DF8000066
:101EE00000208DF8010001208DF802008DF803001C
:101EF0006846FFF7F3FD40F69F70ADF8080040F22A
:101F0000CF20ADF804000020ADF80A00ADF80600BF
:101F100001A94FF0804000F057FC012211469007C4
:101F200000F0FBFB0121880700F0D6FA1FBD00007E
:101F30002DE9F04F8FB00121880700F0DDFB00286C
:101F40007ED00121FE4800F0C4FAFE49B1F90C0030
:101F500002F050FD0A9002F0A1FB8246FA4AFB4BC8
:101F600001F024FF80460022F94B02F0BDF806463E
:101F70000022F84B01F06AFE044602F06FF800B24E
:101F8000F5490E908868F54902F094FD044602F088
:101F900015FD00B2F0490D904868F04902F08AFD45
:101FA000044602F00BFD00B2EB490C900868EB49C7
:101FB00002F080FD044602F001FD00B20B90E848FB
:101FC00002680E990068642358430023CDE9073066
:101FD000CDE90912E248008801B2DA48B0F90A00F6
:101FE000D84AB2F9082004AD0BC50392D548B0F920
:101FF0000600D449B1F90410D24AB2F90220CDE961
:1020000000210290CF48B0F900300BA807C800F0BB
:1020100045FC0020D2490860CF498868002102F0C1
:1020200015FE2FD8C748B0F906004FF4B47190FBE5
:10203000F1F6304602F0DEFC0546C749486800E08C
:10204000FFE1002102F002FE06D2C34948684FF0CA
:10205000824102F0BDFB08E0BF48406880F00047C5
:102060004FF08241384602F0B3FB0646BA48816819
:10207000304602F03FFB0446294602F03BFBB949DB
:1020800008602CE0AF48B0F906004FF4B47190FB43
:10209000F1F6304602F0AEFC0546AF494868002133
:1020A00002F0D4FD06D2AC4948684FF0824102F0FC
:1020B0008FFB08E0A848406880F000474FF082415D
:1020C000384602F085FB0646A3488168304602F098
:1020D000EEFD0446294602F00DFBA2490860A14826
:1020E0000168006802F0E6FC04464FF0854102F00A
:1020F000ADFC03D240209C490880BBE04FF08241F8
:102100009848006802F0A2FD09D8944995480068F3
:1021100002F09CFC03D2202093490880AAE08F495A
:102120009048006802F092FD09D890498D480068F7
:1021300002F08CFC03D230208B4908809AE08B4956
:102140008848006802F082FD0AD84FF08341854834
:10215000006802F07BFC03D238208349088089E0C4
:102160004FF083417F48006802F070FD09D8804934
:102170007C48006802F06AFC03D23C207A4908805F
:1021800078E07B497748006802F060FD09D879491A
:102190007448006802F05AFC03D23E20724908805D
:1021A00068E074496F48006802F050FD03D83F2092
:1021B0006D4908805EE04FF041416A48006802F0D6
:1021C00045FC09D86C496748006802F03FFD03D21E
:1021D0008020654908804DE067496248006802F048
:1021E00035FC0AD865495F48006802F02FFD04D22B
:1021F0004FF4C0705C4908803CE060495948006871
:1022000002F024FC0AD85E495648006802F01EFD20
:1022100004D24FF46070544908802BE0584951486B
:10222000006802F013FC0AD856494E48006802F0D4
:102230000DFD04D24FF4F0604B4908801AE051497B
:102240004848006802F002FC0AD84F494548006837
:1022500002F0FCFC04D24FF478604349088009E0A6
:1022600049494048006802F0F1FB03D84FF4FC50A4
:102270003D4908803C480088012101EA203043495B
:102280000860394800884FF0010101EAE020404928
:10229000C1F88801344800884FF0010101EAA0200C
:1022A0003B49C1F88C01304800884FF0010101EA38
:1022B00060203749C1F890012B4800884FF0010198
:1022C00001EA20203249C1F89401274800884FF0E4
:1022D000010101EAE0102E49C1F898012248008866
:1022E0004FF0010101EAA0102949C1F89C011E48E4
:1022F00000884FF0010101EA60102649C1F8800111
:10230000194800884FF0010101EA20102149C1F865
:102310008401154800884FF0010101EAE0001D49E1
:10232000C1F8AC01104800884FF0010101EAA0009B
:102330001849C1F8B0010C4800884FF001012BE0AA
:10234000002C014094000020CDCCCCCCCC6C74404F
:10235000000059400088A340A40000200000204154
:102360000000002008000020040000200000504170
:10237000000098410000B041000020C1000050C1A1
:10238000000080C1000098C10000B0C1840121425A
:10239000000021420080214201EA60003149C1F879
:1023A000B4013148007800F00100C1F8B8012F48AD
:1023B0000168006802F07EFB04462D4902F046FCED
:1023C00033D82A4801682B4802F07CFC04462A488E
:1023D000008802F027FB0546214602F037FC0ED9A3
:1023E00022480168234802F085F904462248008803
:1023F00002F018FB0546214602F028FC15D81B48C0
:102400000168006802F056FB04461C4902F01EFCFD
:1024100005D243F215411A4800F0D3F901E0FEF766
:1024200023F80020144908800BE010480168006878
:1024300002F040FB0446114902F008FB01D2FEF70E
:102440002BF80D480088401C0B49088001218807A3
:1024500000F03FF80121880700F038F80FB0BDE820
:10246000F08F0000008021420400002008000020BE
:10247000000061430000C8410600002000401C44E9
:10248000002C014010B50121084800F035F960B179
:1024900007480068401C064908600121034800F015
:1024A00018F80121014800F011F810BD00040040A7
:1024B0006C00002021B1028842F08002028004E01A
:1024C00002884FF67F731A4002807047CA43028227
:1024D0007047CA430282704721B1028842F001026C
:1024E000028004E002884FF6FE731A4002807047B3
:1024F00031B1B0F8442042F40042A0F8442005E095
:10250000B0F84420C2F30E02A0F844207047000047
:1025100010B504466848844208D10121C014FFF771
:1025200053FB0021E014FFF74FFBC4E0B4F1804FF0
:1025300008D101210846FFF727FB00210120FFF702
:1025400023FBB8E05D48844208D101210220FFF757
:102550001BFB00210220FFF717FBACE05848844228
:1025600008D101210420FFF70FFB00210420FFF711
:102570000BFBA0E05348844208D101210820FFF75B
:1025800003FB00210820FFF7FFFA94E04E48844245
:1025900008D101211020FFF7F7FA00211020FFF7E2
:1025A000F3FA88E04948844208D101212020FFF74E
:1025B000EBFA00212020FFF7E7FA7CE04448844250
:1025C00008D101214014FFF7FFFA00216014FFF742
:1025D000FBFA70E03F48844209D10121C804FFF7AB
:1025E000F3FA00214FF40020FFF7EEFA63E03A48D7
:1025F000844209D101210805FFF7E6FA00214FF4D2
:102600008010FFF7E1FA56E03448844209D10121F5
:102610004805FFF7D9FA00214FF40010FFF7D4FA6C
:1026200049E02F48844208D101214020FFF7ACFA4D
:1026300000214020FFF7A8FA3DE02A48844208D153
:1026400001218020FFF7A0FA00218020FFF79CFAEB
:1026500031E02548844208D101218015FFF794FA22
:102660000021A015FFF790FA25E02048844209D107
:1026700001210804FFF7A8FA00214FF48030FFF78A
:10268000A3FA18E01A48844209D101214804FFF74F
:102690009BFA00214FF40030FFF796FA0BE0154843
:1026A000844208D101218804FFF78EFA00214FF4FB
:1026B0008020FFF789FA10BD002C01400004004083
:1026C00000080040000C00400010004000140040D2
:1026D00000340140004C01400050014000540140D2
:1026E00000180040001C0040002000400040014055
:1026F000004401400048014030B50246002000235C
:102700000024158A05EA0103958905EA010413B13D
:102710000CB1012000E0002030BD1AB183890B43C9
:10272000838102E083898B438381704770B50022E7
:1027300000230024058C4EF6FF7635400584038C7B
:102740008488828B48F6FF752A404FF6FF452A4061
:102750000D884FF6FF7606EA05252A434DF6FF75EC
:102760002B400D8906EA05352B434D8806EA0535D1
:102770002B430B4DA84202D00A4DA84208D14BF67C
:10278000FF752C408D894FF6FF7606EA85152C43A0
:1027900084808283CD88A0F84050038470BD0000FF
:1027A000002C0140003401400A460021818B4FF289
:1027B000FF7319404FF6FF7303EA02231943818325
:1027C0007047A0F840107047002202881D4B9842C5
:1027D0000ED01D4B98420BD0B0F1804F08D01B4B50
:1027E000984205D01A4B984202D01A4B984204D115
:1027F0004FF68F731A404B881A43174B984207D0F5
:10280000164B984204D04FF6FF431A40CB881A4328
:1028100002808B8883850B8803850A4B98420BD0F6
:10282000094B984208D00E4B984205D00D4B984268
:1028300002D00D4B984201D10B7A0386012383828B
:1028400070470000002C01400034014000040040AB
:1028500000080040000C0040001000400014004040
:1028600000400140004401400048014010B50446CA
:10287000074801780078401C054A10700548445408
:10288000012240F22771044800F08CFA10BD0000CC
:1028900075000020CC010020003801402DE9F05FD8
:1028A0008046894692469B46129F149E2324A5206B
:1028B000FFF7DCFF5A20FFF7D9FF2320FFF7D6FFF1
:1028C000B8F1000F03DAC8F500400FFA80F8C8F33A
:1028D00007252846FFF7CAFF2C4408F0FF052846C5
:1028E000FFF7C4FF2C44B9F1000F03DAC9F500402B
:1028F0000FFA80F9C9F307252846FFF7B7FF2C44E4
:1029000009F0FF052846FFF7B1FF2C44BAF1000F8C
:1029100003DACAF500400FFA80FACAF30725284601
:10292000FFF7A4FF2C440AF0FF052846FFF79EFF9F
:102930002C44BBF1000F03DACBF500400FFA80FB0B
:10294000CBF307252846FFF791FF2C440BF0FF053A
:102950002846FFF78BFF2C440A98002804DA0A98CF
:10296000C0F5004000B20A900A98C0F30725284637
:10297000FFF77CFF2C440A98C5B22846FFF776FF84
:102980002C440B98002804DA0B98C0F5004000B2E4
:102990000B900B98C0F307252846FFF767FF2C44E0
:1029A0000B98C5B22846FFF761FF2C440C9800280D
:1029B00004DA0C98C0F5004000B20C900C98C0F3FB
:1029C00007252846FFF752FF2C440C98C5B228462D
:1029D000FFF74CFF2C440D98002804DA0D98C0F541
:1029E000004000B20D900D98C0F307252846FFF770
:1029F0003DFF2C440D98C5B22846FFF737FF2C4405
:102A00000E98002804DA0E98C0F5004000B20E902F
:102A10000E98C0F307252846FFF728FF2C440E9890
:102A2000C5B22846FFF722FF2C440F98002804DA8D
:102A30000F98C0F5004000B20F900F98C0F3072523
:102A40002846FFF713FF2C440F98C5B22846FFF71E
:102A50000DFF2C441098002804DA1098C0F50040AF
:102A600000B210901098C0F307252846FFF7FEFE2D
:102A70002C441098C5B22846FFF7F8FE2C44119854
:102A8000002804DA1198C0F5004000B211901198A6
:102A9000C0F307252846FFF7E9FE2C441198C5B27C
:102AA0002846FFF7E3FE2C44002E02DA4FF00040E8
:102AB000C61B4FEA17652846FFF7D8FE2C44C7F31C
:102AC00007452846FFF7D2FE2C44C7F307252846C2
:102AD000FFF7CCFE2C44FDB22846FFF7C7FE2C447E
:102AE0001398002804DA1398C0F5004000B2139040
:102AF0001398C0F307252846FFF7B8FE2C44139817
:102B0000C5B22846FFF7B2FE2C44002E02DA4FF081
:102B10000040861B4FEA16652846FFF7A7FE2C44A7
:102B2000C6F307452846FFF7A1FE2C44C6F3072548
:102B30002846FFF79BFE2C44F5B22846FFF796FE89
:102B40002C44E0B2FFF792FEAA20FFF78FFEBDE80B
:102B5000F09F000010B540F22771414800F0F8F8EE
:102B6000E0B1404802780078401C3E4B18703E4867
:102B7000815C3B4800F0ADF940F22771384800F025
:102B80007DF83848007839490978884267D10022B1
:102B900040F22771324800F005F960E040F225511B
:102BA0002F4800F0D5F8002859D02D4800F08CF9B6
:102BB000C4B2A52C0DD12E48007840F080002C49DD
:102BC00008702C490878411C2A4A11702A490C5473
:102BD00037E05A2C1CD12648007810F0800F09D01D
:102BE0000020244908702248007820F04000204945
:102BF000087006E01F490878411C1E4A11701E49E2
:102C00000C541B48007820F080001949087018E027
:102C100018490878411C174A117017490C54144878
:102C2000007820F08000124908701348007811469F
:102C30000978884205D10E48007840F040000C49E0
:102C400008700C480078642804D10A480078401EB7
:102C50000849087040F22551014800F00FF810BDF6
:102C60000038014074000020CC01002075000020D5
:102C70007D0000207C0000209603002010B500227B
:102C80000023A1F510646A3C00D100BF0A120124A0
:102C90009440A3B2DC43048010BD21B1828942F488
:102CA0000052828104E082894DF6FF731A408281CE
:102CB0007047000010B504462048844209D1012124
:102CC0008803FEF781FF00214FF48040FEF77CFF70
:102CD00032E01B48844209D101214804FEF754FF29
:102CE00000214FF40030FEF74FFF25E015488442E5
:102CF00009D101218804FEF747FF00214FF480200D
:102D0000FEF742FF18E01048844209D10121C804AF
:102D1000FEF73AFF00214FF40020FEF735FF0BE0ED
:102D20000A48844208D101210805FEF72DFF002141
:102D30004FF48010FEF728FF10BD0000003801405E
:102D40000044004000480040004C0040005000405B
:102D500070B502460024002300250020A1F510666E
:102D60006A3E00D100BFC1F3421501F01F030126E6
:102D700006FA03F3012D02D19689334006E0022DB5
:102D800002D1168A334001E0968A33400C120126A4
:102D900006FA04F41688344013B10CB1012000E0A7
:102DA000002070BDF0B50346002400260025002059
:102DB000A1F510676A3F00D100BF1846C1F3421465
:102DC00001F01F06012707FA06F5012C01D10C308E
:102DD00004E0022C01D1103000E014301AB1076871
:102DE0002F43076002E00768AF430760F0BD0000B3
:102DF0002DE9F04786B005460E460024A24600BFE6
:102E0000A1460027B08900B100BF2F462C8A4CF69E
:102E1000FF700440F08804432C82AC894EF6F31016
:102E20000440B08831890843718908430443AC8168
:102E3000AC8A4FF6FF400440B0890443AC8201A83D
:102E4000FEF7D2FE1F48874202D1DDF810A001E054
:102E5000DDF80CA0A88910F4004F08D00AEBCA00D6
:102E600000EB0A1031684900B0FBF1F807E00AEB0B
:102E7000CA0000EB0A1031688900B0FBF1F8642049
:102E8000B8FBF0F004012009642101FB1089A88936
:102E900010F4004F08D0322000EBC900B0FBF1F075
:102EA00000F00700044308E0322000EB0910642121
:102EB000B0FBF1F000F00F0004432C8106B0BDE838
:102EC000F08700000038014001468888C0F3080000
:102ED0007047C1F308028280704700BFFEE7000020
:102EE00070B50B4E0B4DFDF74DFB2846FDF7E0FA94
:102EF000002408E036F8140081B22846FDF722FBD2
:102F0000AD1C601C04B20A2CF4D3FDF711FB70BD9C
:102F1000B801002000F40008490050EAC12018BFA1
:102F200004204A0D18BF40F0010040F2FF72B2EBDE
:102F3000515F08BF40F00200012808BF052070471C
:102F40002DE9F0414F1E00EBC7010446D1E9000115
:102F500015461E4637F006020DD02A46334601F0CC
:102F6000C3F87F1E04EBC703D3E9002300F06EFE15
:102F700037F00602F1D1022F25D0042F13D0062FEF
:102F800018BFBDE8F0812A46334601F0ADF8D4E918
:102F90000A2300F05BFE2A46334601F0A5F8D4E987
:102FA000082300F053FE2A46334601F09DF8D4E989
:102FB000062300F04BFE2A46334601F095F8D4E98B
:102FC000042300F043FE2A46334601F08DF8D4E98D
:102FD000022300F03BFE2A46334601F085F8D4E98F
:102FE0000023BDE8F04100F031BE0000024A00209D
:102FF000110701F00EBF000001FDFFFF014600BFF9
:10300000704700002DE9F04D904F21F0004A86B046
:1030100005460C46BA4530DBAAEB070028430CD026
:103020008B48824501DC1CD1DDB106B02846BDE8E5
:10303000F04D4FF0010201F0ECBE864A864B284667
:1030400001F052F807460E46844A854B2846214631
:1030500001F04AF806B03A463346BDE8F04D00F0BC
:10306000F5BD0120FDF73BF906B00022BDE8F04DAB
:1030700013461046114600F099BE7A48824542DA5E
:10308000BAF1795F0BDA2846FFF746FF042808BF3C
:10309000FFF7ACFF284606B02146BDE8F08D2A4672
:1030A0000B46104601F020F8834602466E480E4655
:1030B0000B4606217844FFF743FF5A46334601F09A
:1030C00013F8804669488A465A46334604217844B4
:1030D000FFF736FF5A46334601F006F800223B461A
:1030E00000F0B4FD02460B464046514600F05EFE3D
:1030F0002A46234600F0F8FF06B02A462346BDE8DC
:10310000F04D00F0A3BD284624F0004100223D46CA
:103110003B4601F0E7F84FF0FF3201F07AFE064639
:10312000024653480F460B4606217844FFF708FF36
:1031300032463B4600F0D8FFCDE900014D4832460B
:103140003B4604217844FFF7FBFE32463B4600F045
:10315000CBFF00222B4600F079FD834602913046DA
:10316000394600F0C7FC804643480D46504517DC01
:10317000DDE900015A46029B00F018FE42462B464C
:1031800000F0B2FF42462B4600F060FD012201F044
:1031900040FE304A304B01F097F9304A304B4CE05A
:1031A0004FF0000A52460B46404600F04FFDCDE975
:1031B000031052462B461046194600F095FF324642
:1031C0003B4601F08FF8DDE9033200F0EFFD0646E3
:1031D0000F46DDE900015A46029B00F0E7FD8346F9
:1031E000009101223046394601F013FE194A1A4B6C
:1031F00001F078F806460F4601224046294601F0C4
:1032000008FE5A46009B00F06FFF32463B4601F035
:103210005BF907460E4601225046294601F0F9FDAA
:103220000E4DDFF858802A46434601F05BF83A46D7
:10323000334601F057F82A46434601F053F8002C74
:10324000D8BF81F0004106B0BDE8F08D0000F03F2E
:103250000000F07F075C143326A6913C182D4454DF
:10326000FB21F93F0000E03FE81D0000FE1D0000CB
:10327000721D0000881D00003333EF3FFB21E93F42
:103280002DE9F84F04460D4621F0004000917449A5
:10329000814213DC7349884201DC08D13CB12046ED
:1032A0002946BDE8F84F4FF0010201F0B2BD6E486B
:1032B000002DCCBF6D496E49BDE8F88F6D49814244
:1032C00011DD6D498142D8BF4FF0FF366DDD2046DC
:1032D0002946FFF721FE042808BFFFF787FE204696
:1032E0002946BDE8F88F6549654F25F000458142C4
:1032F00033DD6449814219DD002632464FF08043B8
:103300002046294600F0A2FC80468A46012220463B
:10331000294601F07EFD00223B4601F0D5F84246E9
:10332000534600F043FD04460D463EE001260022D0
:10333000BA463B462046294600F088FC80460F46A8
:10334000002253462046294601F0BEF842463B463D
:1033500000F02CFD04460D4627E04B4981421BDD61
:10336000DFF828810226002243462046294600F045
:10337000BBFE00223B4600F069FC07468A4600225D
:1033800043462046294601F09FF83A46534600F04E
:103390000DFD04460D4608E0032622462B4600207C
:1033A0003B4900F003FD04460D4622462B461046DD
:1033B000194600F099FE8B46824602460B4600F005
:1033C00093FE07460246334888460B46062178445A
:1033D000FFF7B6FD52465B4600F086FE82462E4859
:1033E0008B463A46434605217844FFF7A9FD3A4605
:1033F000434600F079FE02460B46002E50465946E1
:103400000CDA00F023FC22462B4600F06DFE01B0E2
:1034100022462B46BDE8F04F00F064BF00F016FCDA
:1034200022462B4600F060FE1C4A7A4402EBC6039B
:10343000D3E9002301F048F822462B4601F044F876
:10344000174A7A4402EBC603D3E9002300F04AFF8F
:10345000009A002AB8BF81F00041BDE8F88F000053
:10346000000010440000F07F182D4454FB21F93F68
:10347000FB21F9BF0000DC3F0000203E0000F33FCD
:103480000000F03F0000E63F008003400000F83FEE
:103490000000F0BF861B0000441B0000E21A000081
:1034A000AA1A00002DE9F04D9446CCF1000423F057
:1034B00000464CEA0404524F46EAD4749A468846C1
:1034C00021F00042BC4206D8454240EA050442EAE7
:1034D000D474BC4204D9BDE8F04D624600F0B6BBDE
:1034E000AAF14055A5F17F6555EA0C040BD00224E2
:1034F00004EAAA74434DDFF810E144EAD87452EAB2
:10350000000B04D00CE0BDE8F04DFFF7B9BE002C75
:1035100014BF012CBDE8F08D022C30D0032C32D02A
:1035200056EA0C0B0AD0BE4220D1BA4209D126F08D
:10353000804622F080423346114617E000291ADB0C
:1035400025E0DFF8C8B0FB44002C04BFDBE9000134
:10355000BDE8F08D012C02BFDBE9000181F00041E4
:10356000BDE8F08D022C0AD0032C0CD0BA4212D147
:10357000B8F1000F0BDA23482549BDE8F08D284645
:103580002449BDE8F08D28467146BDE8F08D1D4800
:103590002149BDE8F08D921B12153C2AC4BF194881
:1035A0001D490EDCBAF1000FBEBF12F13C0F002026
:1035B000014606DB624600F0F9FB21F00041FFF70F
:1035C0005FFE002C08BFBDE8F08D012C04BF81F028
:1035D0000041BDE8F08D114A114B022C07D000F0DC
:1035E00073FF2A46BDE8F04D0A4B00F06DBF00F0B6
:1035F0006BFF2A46BDE8F04D064B00F073BE00009D
:103600000000F07F182D4454FB2109C03E1A000031
:10361000FB21F9BFFB210940FB21F93F075C143373
:1036200026A6A13C10B56FF00400FEF7BBFB0A48CC
:1036300000680A49B0FBF1F00949087008460078B3
:1036400000EB4001C1EBC0104FF6FF7101EAC00072
:103650000449088010BD00001000002000127A000C
:1036600070000020720000200146114A12884A436F
:103670004FF0E0235A6100229A611A46126942F023
:1036800001021A6100BF4FF0E022106910F0010F33
:1036900002D010F4803FF6D04FF0E022126922F001
:1036A00001024FF0E0231A6100229A617047000086
:1036B000720000200146114A12784A434FF0E0237D
:1036C0005A6100229A611A46126942F001021A6197
:1036D00000BF4FF0E022106910F0010F02D010F48B
:1036E000803FF6D04FF0E022126922F001024FF045
:1036F000E0231A6100229A617047000070000020E8
:1037000000BF054A128812F0400FFAD0C2B2024B35
:103710001B1D1A80704700000038014008B50020CA
:1037200000906B4601227521D220FDF76FFB9DF8BA
:10373000001007A0FCF74EFD4FF4FA70FFF794FF5E
:103740009DF80000122801D1012008BD0020FCE7EF
:1037500049442069732025640D0A00002DE9F047D3
:1037600004464FF07C51204601F0A4F981462546DD
:103770002E460C48A0EB660635462946484601F021
:1037800099F98246294601F095F980464FF07F511C
:1037900001F08DFA0746294601F08CF905462846C6
:1037A000BDE8F087DF59375F70B5174D174EFCF74E
:1037B000E9FE002405E030882880B61CAD1C601CA2
:1037C00004B20A2CF7D3FCF7B3FE0F48B0F900009F
:1037D0000F49884204D10C48B0F91200884211D038
:1037E0004AF25A5008490880002048808880C880E2
:1037F000088148818881C88108824AF25A504882EB
:10380000FFF76EFB70BD0000B801002000F8000853
:103810005AA5FFFF70B5104D104EFCF7B3FE002403
:1038200005E030882880B61CAD1C601C04B20A2C50
:10383000F7D3FCF77DFE0848B0F90000084988423C
:1038400004D10548B0F91200884203D0FFF7ACFF5D
:10385000FFF746FB70BD0000B801002000F400082F
:103860005AA5FFFF0024FEF7B3FAFFF7DBFE4FF483
:10387000E13000F065F9FDF791F9FEF737F8FDF753
:10388000F5FF6420FFF7F0FEFEF71EFB6420FFF754
:10389000EBFEFFF7BFFF3220FFF7E6FEFDF778FFF4
:1038A0006420FFF7E1FE002146F62A00FEF7C0FA89
:1038B00011E10020FDF7EEFF0446012C7ED100212E
:1038C0008007FEF709FEC820FFF7CEFE01208249DF
:1038D0000860A1F104010860A1F104010860A1F1F0
:1038E000040108607D490860A1F1040108607C4979
:1038F0000860A1F104010860A1F104010860A1F1D0
:1039000004010860A1F104010860A1F1040108604C
:103910007449C1F884014FF0C800FFF7A5FE0020EC
:103920006D490860A1F104010860A1F1040108607B
:10393000A1F10401086069490860A1F1040108606F
:1039400067490860A1F104010860A1F10401086061
:10395000A1F104010860A1F104010860A1F10401D2
:1039600008606049C1F884014FF0C800FFF77CFE91
:10397000012059490860A1F104010860A1F1040186
:103980000860A1F10401086054490860A1F1040134
:10399000086053490860A1F104010860A1F1040125
:1039A0000860A1F104010860A1F104010860A1F11F
:1039B000040108604B49C1F8840100E080E04FF049
:1039C000C800FFF751FE002043490860A1F104013F
:1039D0000860A1F104010860A1F1040108603F49F9
:1039E0000860A1F1040108603D490860A1F10401EB
:1039F0000860A1F104010860A1F104010860A1F1CF
:103A000004010860A1F1040108603649C1F884018D
:103A10004FF0C800FFF728FE01202F490860A1F1F0
:103A200004010860A1F104010860A1F1040108602B
:103A30002A490860A1F10401086029490860A1F140
:103A400004010860A1F104010860A1F1040108600B
:103A5000A1F104010860A1F104010860A1F10401D1
:103A60000860FDF7CFFFFDF767FF00201A490860E7
:103A7000A1F104010860A1F104010860A1F10401B1
:103A8000086016490860A1F1040108601449086043
:103A9000A1F104010860A1F104010860A1F1040191
:103AA0000860A1F104010860A1F1040108600D495A
:103AB000C1F884014FF001014FF08040FEF70CFD8A
:103AC0000948FDF755FD0948FDF770FC08480068F6
:103AD000401C07490860ECE6B881214284812142FC
:103AE0009C01214200002142A400002094000020FB
:103AF000000000202DE9F04106460F4600F0FEFBD5
:103B000004000D4618BF0120284320F00040C0F1FA
:103B10007F6000F1E040C00F0ED0301C18BF0120C4
:103B2000384320F00040C0F17F6000F1E040C00F5A
:103B300004BF0120FCF7D3FB20462946BDE8F081F5
:103B400010B586B00446012144F20400FEF72CF8BB
:103B50002348FFF7AFF84FF40070ADF814000320CE
:103B60008DF8160018208DF8170005A91D48FCF7E0
:103B700028FD4FF48060ADF8140004208DF8170084
:103B800005A91848FCF71DFD25208DF8000003202D
:103B90008DF801008DF8020001208DF803006846C1
:103BA000FDF79CFF01940020ADF80800ADF80A0075
:103BB000ADF80C00ADF810000C20ADF80E0001A916
:103BC0000748FFF715F9012240F225510448FFF795
:103BD000E9F801210248FFF760F806B010BD0000C7
:103BE000003801400008014021F00042A2F160527B
:103BF000B2F5801F01F0004328BFD2F17F6C0BD9D2
:103C00005FEA001C43EAC20242EB507018BF7047E3
:103C100028BF20F001007047B2F5801FBCBF1846D6
:103C200070474FEA410C1CF5001F02D2084601F014
:103C300008B870B500F002FB00000089FFF7F6BF7E
:103C40004FF00040A0F580007047000010B591EAE9
:103C5000030F48BF83F0004300F13E84841A71EBE8
:103C6000030C05D2121943EB0C03001B61EB0C0192
:103C7000DFF824E14FEA1154A4EB135C1EEA430F72
:103C800018BF9EEA445F73D023EA0E03DCF1200ED6
:103C900021EA045143F4801332D322FA0CFE10EBD4
:103CA0000E0023FA0CFE41EB0E01CCF1200E03FABC
:103CB0000EFE10EB0E0051F10001B1F5801FCCF1AA
:103CC000200E32D201EB045112FA0EF2BDE8104080
:103CD00058BF7047401C38BF5FEA420218BF7047A8
:103CE000002814BF20F0010041F100014FEA410318
:103CF00013F5001F38BF7047A1F1C04100F0ECBAC6
:103D0000012A43EB0302ACF1200CDCF11F0E32BFA1
:103D10004FF0000E23FA0CF310EB030041EB0451BB
:103D2000B4EB115FD0D0A1EB045101F5801149082B
:103D30005FEA300001EB04510ED350F1000038BFB0
:103D400012FA0EFE08D1BDE81040C9E7401C38BF8A
:103D50005FEA4202CAD1C3E7BDE810404FEA41031F
:103D600013F5001F38BF7047A1F1C04100F0B4BA8D
:103D70009EEA445F08D011EA5E0FBDE8104004BF20
:103D800001F0004100207047BDE8104070B500F020
:103D900055FA00BF64FBBE3E0000E0FF02494FF051
:103DA000000001F004B800BF0000F87F2DE9C04119
:103DB00030B4DFF8A0C23CEA111418BF3CEA131477
:103DC00000F0EC8081EA03051CEA111444EAD57482
:103DD00018BF1CEA131500F0C780A4EB05044FF0D0
:103DE000004545EAC12145EAC32341EA505143EA6F
:103DF000525304F17F74994204F500344FEAC02015
:103E00004FEAC22208BF904200F09C804FEA13653F
:103E10000FF24016765D4FEA134506FB05F7C7F132
:103E2000807706FB07F74FEAD737A7FB0368764290
:103E3000C8F58038A7FB06CE38BFA8F1010807FBFC
:103E400008E64FF0000EA6FB028CE6FB03CEDCF189
:103E5000000CCEF1004E38BFAEF1010EA6FB0C589F
:103E60004FF000074FF00005E6FB0E87A1FB08C6E8
:103E7000A0FB07CE16EB0E0645F10005E1FB07653A
:103E800015F1E04E7EBFA4F580345FEA46066D4131
:103E900016F1800745F100054FEA17274FEA06663D
:103EA00047EA0567A6F1DE46B6F1805F4FEA1525C1
:103EB0001FD9384624F0010C05EBC471BCF1FE6F2C
:103EC00001EB0C1102D8F0BCBDE8008124425CBFBC
:103ED00001F5801E9EEAC47F02D4F0BCBDE80081DB
:103EE000244238D4F0BCA1F1C041BDE8004100F04B
:103EF000F3B94FEAD22242EA43524FEAD323A7FB57
:103F000002864FEAD02040EA415007FB03661EEAD2
:103F10000E0F4FEAD12105FB026658BFA6EB0056F3
:103F2000B6EB00564FEA520E4EEAC37E18EB0E0E69
:103F300056EB530EBDD518EB02085E417F1C55F1C0
:103F40000005B6E74FF480154FF000074FF000066C
:103F50004FF00008ADE7F0BC4FF0000001F1C041A8
:103F600001F00041BDE8008111EA0C1F0CEA1315B5
:103F700000D00CE013EA0C1F00F025804FF0000089
:103F8000F0BC81EA030101F00041BDE80081F0BC12
:103F9000BDE8004181EA030100F09EB9F0BCBDE834
:103FA000004170B500F04AF9097EFC3E00F007B808
:103FB00081EA03014FF0000001F00041704781EAFF
:103FC000030100F089B9F0BCBDE800414FF00000EA
:103FD00021497047FFFDFBF9F7F5F4F2F0EEEDEB48
:103FE000E9E8E6E4E3E1E0DEDDDBDAD8D7D5D4D3F7
:103FF000D1D0CFCDCCCBCAC8C7C6C5C4C2C1C0BF43
:10400000BEBDBCBBBAB9B8B7B6B5B4B3B2B1B0AF48
:10401000AEADACABAAA9A8A8A7A6A5A4A3A3A2A12C
:10402000A09F9F9E9D9C9C9B9A99999897979695E7
:1040300095949393929191908F8F8E8E8D8C8C8B83
:104040008B8A89898888878786858584848383820B
:10405000828181800000FF070000F87F4FEA410362
:104060004FEA5353A3F58063D3F11E03C8BFD3F1C6
:10407000210C0CDD4FF0004242EAC12242EA5052CC
:1040800032FA03FC8CEAE17CACEBE1707047102B58
:10409000C4BF0020704703F5787CBCF1FF3F04D01B
:1040A0006FF0004282EA2100704770B500F0C6F858
:1040B0004992248000207047F2E710F0004248BF88
:1040C0004042B0FA80F310FA03F10AD0C3F11D03A5
:1040D00003F580634FEA415002EB035202EBD1211A
:1040E00070474FF000007047DFF848C170B51CEA18
:1040F000111E1EBF1CEA13159EEA0C0F95EA0C0F49
:1041000000F06F8081EA030423EA4C134EEAD47E68
:1041100021EA4C1141F4801143F48013AE44A1FB19
:10412000024CA0FB0365AEF17F7E361955EB0C0502
:10413000A1FB034C4CF10003A0FB021C16EB0C0688
:10414000654153F10003094218BF46F0010613F41C
:10415000007F0BD14FEA03314FEA0530340341EAC7
:10416000155140EA16506FF003020AE04FEAC321EE
:104170004FEAC520F40241EA555140EA56506FF02B
:10418000020202EB2E4201EB025585EACE710AD003
:104190005FEA440C18BF24F0004450F1000041F1E4
:1041A000000120EAD47040F2FE7C624500D270BD6E
:1041B000A84214BF4FF080444FF04044002E08BF87
:1041C0000024BEF1806FA8BFA1F1C041BDE87040DE
:1041D00080F282804FF0000001F1C04101F0004107
:1041E00070479EEA0C0F0CEA131518BF95EA0C0FE6
:1041F00006D04FF0000081EA030E0EF0004170BDC2
:1042000000F01CF88900013E00F007B800F009B882
:104210004FEA430C5FEA5C5C08D081EA030100F0DE
:104220005BB84FEA410C5FEA5C5CF6D14FF00000EE
:10423000014970470000FF070000F87F0EF1020EF1
:104240002EF0030E5EF8046B364205D4012A43EBD0
:10425000030515F5001F12D8012841EB010C1CF5D0
:10426000001F0CD80ED14FEAD17C15F5001F0CEBC6
:104270004C0C0CF1020C08BF4CEBD37C04E04FF06B
:10428000080C01E04FEAD37C0CEB4C0526FA05F64E
:1042900006F00706B6F1040C06D20EEB860CBDE85C
:1042A00070404CF0010C6047DFE80CF0090B020293
:1042B0004FF000414FF00000A1F5002170BD1946FC
:1042C0001046012851EB010418BFD4F5001484BF37
:1042D000002001F0004170BD0808A0F500114FEA70
:1042E0003101704791EA030F10B581F000413FF5AD
:1042F000B5AC83F0004300F0EFB800002DE9F041C9
:1043000001F5801CBCF5001FC0F2C3804FEA115CB0
:1043100021EA0C510CF1FD0C41F480115FEA5C0CB8
:104320000CF5C07C01D3400049413DA4890241EA1B
:10433000905187028E0E0A0CA45D04FB04F602FB6A
:1043400006F6C6F14046A4FB0662F60D46EA422692
:1043500006FB06F4A4FB01235242C3F1404338BFDD
:104360005B1EA6FB02420024E6FB0324D20B42EABA
:104370004446A6FB0623A1FB02E2A3FB07E4A41824
:104380004FF0000252F10002E3FB01426442C2F12D
:10439000404E38BFAEF1010EA6FB04234FF00002E1
:1043A000E6FB0E32A2FB03464FF00004B61954F1AF
:1043B0000004E2FB0264A1FB06E6A4FB07E816EB9F
:1043C00008064FF0000858F10008E4FB0168764247
:1043D000C8F1405838BFA8F10108A2FB06E4A3FBCE
:1043E00008E52D194FF0000454F10004E2FB0854D5
:1043F000A1FB05E6A7FB04E818EB06084FF0000652
:1044000056F10006E1FB048618F1200556F100067E
:10441000A809A8F11B08B10908F03F08B8F10A0F74
:1044200040EA86601CD901EB0C51BDE8F08100BF69
:10443000FCF5EEE8E2DDD8D3CFCBC7C3C0BDB9B63B
:10444000B4B1AEACA9A7A5A3A19F9D9B9A98969540
:104450009392908F8D8C8B898887868584838281C7
:10446000A0FB006800FB01F208EB4208B8EB8728CC
:1044700007D5341858EB0104D5D5401C51F1000183
:10448000D1E7341A78EB0104CDD4401E71F100015C
:10449000C9E75FEA4C0C5FEA9C5C0DD105D34FF095
:1044A000000001F00041BDE8F081BDE8F04170B5C9
:1044B000FFF7C4FE6DDBFFBEBDE8F0414FF000002A
:1044C000004970470000F87F10B591EA030F48BF1C
:1044D00083F000433FF5C2AB841A71EB030C07D2A3
:1044E00012198CF0004C43EB0C03001B61EB0C0128
:1044F000DFF8A4E14FEA1154A4EB135C1EEA430F6A
:1045000018BF9EEA445F00F0B08023EA6E03524277
:1045100021EA0451C3EB6E0338BF5B1EDCF1200EB1
:1045200025D322FA0CFE10EB0E0043FA0CFE41EBF1
:104530000E01CCF1200E03FA0EFE10EB0E0051F12D
:104540000001CCF1200E29D412FA0EF201EB045135
:10455000BDE8104058BF7047401C1CBFB2F1004F6F
:10456000704700280CBF491C20F00100704712EB77
:10457000020E43EB030218BF4FF0010E4EEA420257
:10458000ACF1200CDCF11E0E54D943FA0CFE10EBFA
:104590000E0051F1FF31CCF11E0ED5D50EF1010EFA
:1045A00012FA0EFE404141EB010101EB445C5FEA6F
:1045B0005C5C10D910EBDE7001EB045138BFBEF12A
:1045C000004FBDE8104018BF704700280CBF491CC1
:1045D00020F00100704730D24FEAD42C11F50011C1
:1045E00024F400641BD0B1FA81F20B3AA41AA41E81
:1045F000D2F12003914030FA03F31943904001EBCC
:10460000CC71002C01EB0451BDE81040A8BF7047ED
:1046100001F1C0414FF0000001F000417047B0FAD5
:1046200080F310FA03F100D110BDE41A173C4805DD
:10463000C90AE4E701EB045110BD491001EB045134
:10464000BDE810404FEA300002E04FF00001704733
:104650004A0008BF0042F8D0B2F5001F28BF7047DB
:1046600001F000414FF0000070479EEA445F07D020
:1046700011EA5E0FBDE8104004BF00210020704722
:10468000BDE8104070B5FFF7D9FD00BF40DFF63E32
:1046900083F00041104670470000E0FF43004FEAFE
:1046A000D30C4FEA3C0C43401FBF40070CF1605154
:1046B00013F0FE4F70471CF0006F03D100200CF088
:1046C000004170470CF0004343EA507010B540EAD7
:1046D000CC0000F070FA00BF000000924FEA000129
:1046E000FFF7FABD4FF000414FF00000A1F50021A7
:1046F0007047000090EA010F48BF81F0004100F1CF
:10470000E882421A3CBF801A89184FEAD0524FF013
:104710007F4C1CEA410FA2EBD15318BF9CEA026FF9
:1047200000F03B804FF0004C4CEA00204CEA0121A5
:1047300021FA03FC10EB0C0C1ED202F1FF325FEAEF
:104740001C2040EBC25038BF70471CF07F0F4FEA6F
:10475000400C18BFBCF17F4F38BF7047C3F1200336
:10476000994008BF20F00100BCF17F4F38BF70476F
:10477000A0F1C04000F065BA4FEA3C00000A40EBEF
:10478000C25028BF1CF0FF0F4FEA400CE6D018BF04
:10479000BCF17F4F38BF7047EAE79CEA026F05D053
:1047A00010EA5C0F08BF00F00040704710B500F041
:1047B00002FA00BF64FBBE3E401058BFC0F140404B
:1047C000491058BFC1F140418142EFF3008070476A
:1047D0004FF47F0C1CEAD0121EBF1CEAD11392EAE0
:1047E0000C0F93EA0C0F00F0858090EA010F48BF90
:1047F00042F4807240F4000C41F400002CF07F4140
:1048000020F07F4000B58142A2EB03020FF2081CAA
:10481000ACEB504EC0F100009EF800E04FEA4E0EA7
:1048200000FB0EFC38BF49004FEA2C1C02F5FA02CF
:104830000CFB0EF34FEACE1E4FEA112C4FEAC121BA
:104840000EEB635E42EB22420EFB0CFC4FEA1C5364
:1048500000FB03114FEA112C4FEA01310EFB0CFC57
:104860004FEADC4C00FB0C11C14228BF09184CEB8D
:1048700003335DF804EB10EB410143EBC250B2F59A
:104880007C0F38BF704729D512F0F00F1CBF00F124
:10489000C04000F000407047008182838485868795
:1048A00088898B8C8D8E8F919293959697999A9CEF
:1048B0009D9FA0A2A3A5A7A8AAACAEB0B2B3B5B75E
:1048C000B9BCBEC0C2C5C7C9CCCED1D4D7D9DCDF34
:1048D000E2E6E9ECF0F3F7FAFE0000004FEA400CE4
:1048E0000CF1807CBCF17E4F28BF7047B0F1C04016
:1048F00000F0A7B990EA010F0CEAD11348BF42F4C7
:104900008072624538BF634507D213F47F0F16D01B
:1049100080EA010000F00040704710B500F04BF94C
:10492000097EFC3E00F005B880EA010000F000407E
:10493000704780EA010000F0004000F082B912F4F4
:104940007F0F04BF0248704780EA010000F079B988
:104950000000C07F50EA010C00F113801CF5000F2D
:1049600058BFBCF5000F01D48842704707D710F537
:10497000000F58BF11F5000F15D4884270478942C7
:1049800070471CF5000F04D5BCF5000FF7D5814228
:1049900070474FF0807C1CEB400F38BF1CEB410F81
:1049A00001D28142704710B500F005F99224490008
:1049B0004FF000504FF08051FFF7FEBE41000B0E4C
:1049C000D3F19E0208D950F400034FEA032323FADF
:1049D00002F048BF4042704710B500F0ECF800BF4D
:1049E00049922480002070476FF0004282EA200044
:1049F0007047000010F0004148BF4042B0FA80F319
:104A000010FA03F2C3F19D030BD051EAC35101EB3D
:104A10001220530638BF704700F1010008BF20F094
:104A200001007047B0FA80F310FA03F2C3F19D035E
:104A30000AD0D90501EB1220530638BF704700F1A8
:104A4000010008BF20F001007047000050EA010C8F
:104A500000F113801CF5000F58BFBCF5000F01D406
:104A60008842704707D710F5000F58BF11F5000FA7
:104A700015D488427047894270471CF5000F04D551
:104A8000BCF5000FF7D5814270474FF0807C1CEBDE
:104A9000400F38BF1CEB410F01D28142704710B567
:104AA00000F089F8922449004FF000504FF08051F7
:104AB000FFF782BE4FF47F0C1CEAD0121EBF1CEA27
:104AC000D11392EA0C0F93EA0C0F00F0478090EAA2
:104AD000010F48BF42F480724FF0004C4CEA0020B6
:104AE0004CEA012102EB0302A0FB0113A2F5000234
:104AF000002918BF43F001035B0028BF4FEA3303CE
:104B000042EB22425FEA132C4CEBC2502EBFBCEBAF
:104B1000436FB2F57C0F70474FEA036CBCF1004F56
:104B200008BF20F00100B2F57C0F38BF70470BD5ED
:104B300082F0FF0212F5803FC8BF704700F1C0400D
:104B4000D8BF00F00040704700F5000C5FEA4C0C45
:104B500048BF7047B0F1C04000F073B890EA010F51
:104B60000CEAD11348BF42F48072624538BF6345F6
:104B700004D280EA010000F00040704710B500F058
:104B80001AF800BF8900013E00F007B800F009B82C
:104B90005FEA410C5FEA1C6C08D080EA010000F07B
:104BA00050B85FEA400C5FEA1C6CF6D14FF0004051
:104BB000A0F5800070470EF1020E2EF0030E5EF895
:104BC000044B244204D44FEA4102B2F17F4F11D882
:104BD0004FEA4003B3F17F4F0CD80ED14FEAD07C9F
:104BE000B2F17F4F0CEB4C0C0CF1020C08BF4CEBFC
:104BF000D17C04E04FF0080C01E04FEAD17C0CEBD3
:104C00004C0324FA03F404F00704B4F1040C06D2B4
:104C10000EEB840CBDE810404CF0010C6047DFE85F
:104C20000CF0070802024FF00040A0F5800010BD14
:104C30000846420018BFD2F1807288BF00F00040E1
:104C400010BDFF2141EAD050C005704751EA000C69
:104C500000F113801CF5000F58BFBCF5000F01D404
:104C60008142704707D711F5000F58BF10F5000FAC
:104C700015D481427047894270471CF5000F04D556
:104C8000BCF5000FF7D5884270474FF0807C1CEBD5
:104C9000410F38BF1CEB400F01D28842704780EAB9
:104CA000010081EA000180EA0100FFF7F8BE80F010
:104CB000004090EA010F7FF524AD81F0004100F043
:104CC00008B8000090EA010F48BF81F000413FF5AD
:104CD00018AD421A04D882F00042A0EB0200114441
:104CE0004FEAD0524FF07F4C1CEA410FA2EBD15358
:104CF00018BF9CEA026F4AD04FF0004C4CEA0020EB
:104D00004CEA012121FA03FCB0EB0C0C0FD412F099
:104D1000FE0F36D05FEA4C001DD5001240EBC250AA
:104D200038BF70471CF03F0F18BF70470BE0A2F16F
:104D300001025FEA1C2040EBC25038BF70471CF0F4
:104D40007F0F18BF7047C3F12003994014BF401E66
:104D500020F00100704780084FEA122308BF704717
:104D6000B0FA80FCA2EB0C02CCF1280C60FA0CF03B
:104D700093EA122F04BF00EBC25070474FEAC37092
:104D80007047130A5FEADC1008BF7047F6E79CEA39
:104D9000026F04D010EA5C0F08BF0020704710B506
:104DA000FFF709FF40DFF63E81F0004070470CF04E
:104DB0000F03092B08BF082000F059800A2B0BD0E5
:104DC000082B18BF704708BF1CF0400F0AD04FF0E7
:104DD00000004FF0000170471CF0400F18BF4FF06B
:104DE000004070471CF0100F08D020F0704300F016
:104DF0007F4242EAD3014FEA4370704700F06040BF
:104E000021F07F4242EA000201F07F4040EA7270E6
:104E100070474FF0FF0C4CF4E06C1CEA11531CBFC0
:104E20009CEA030C9445C2BFDA4201EB0251704781
:104E3000002B0DD0BCF1000F0FD0002A01F0004173
:104E4000A4BF41F0E04141F07F614FF000007047A6
:104E500001F000414FF00000704750EA01334FF07D
:104E60009B0C18BF4CF0806C7EF498AF70471CF41C
:104E7000801F11D01CF4E02F03D06FEACC31490021
:104E800070474FF04050EFF3008222F0704242EA48
:104E9000000282F3008870474FF000007047000066
:104EA000555555555555C53F7D6FEB0312D6D4BFAB
:104EB0005544880E55C1C93F3B8F68B52882A4BFB1
:104EC00088B20175E0EF493F09F7FD0DE13D023F72
:104ED0004B2D8A1C273A03C0C88A599CE52A0040FA
:104EE00059018D1B6C06E6BF82922EB1C5B8B33F47
:104EF0004FBB610567ACDD3F182D4454FB21E93FF2
:104F00009BF681D20B73EF3F182D4454FB21F93FE0
:104F1000E2652F227F2B7A3C075C143326A6813C66
:104F2000BDCBF07A8807703C075C143326A6913C11
:104F3000C4EB98999999C9BF711623FEC671BCBF7D
:104F40006D9A74AFF2B0B3BF9AFDDE522DDEADBFE5
:104F50002F6C6A2C44B4A2BF0D5555555555D53FFD
:104F6000FF8300922449C23F6E204CC5CD45B73F18
:104F7000513DD0A0660DB13FEB0D76244B7BA93F90
:104F800011DA22E33AAD903F00000000000000007B
:104F9000B04F000800000020940000002801000825
:104FA0004450000894000020CC090000440100088F
:104FB00000000000000000000000000000000000F1
:104FC00000A24A04000000000000000001020304E7
:104FD00006070809000000000000000000000000B3
:104FE00000000000000000000000000000000000C1
:104FF00000000000000000000000000000000000B1
:1050000000000000000000000000000000000000A0
:10501000000000000000000001000000000000008F
:105020000000000000000000000000000000000080
:105030000000010203040102030406070809020438
:04504000060800005E
:04000005080000ED02
:00000001FF
