:020000040800F2
:100000004825002055020008F9330008FF250008A4
:10001000F533000845150008913B0008000000007A
:10002000000000000000000000000000373400085D
:1000300049150008000000003534000805350008A7
:100040006F0200086F0200086F0200086F020008CC
:100050006F0200086F0200086F0200086F020008BC
:100060006F0200086F0200086F0200086F020008AC
:100070006F0200086F0200086F0200086F0200089C
:100080006F0200086F0200086F0200086F0200088C
:100090006F0200086F0200086F0200086F0200087C
:1000A0006F0200086F0200086F0200086F0200086C
:1000B0006F020008713500086F0200086F02000827
:1000C0006F0200086F0200086F0200086F0200084C
:1000D0006F020008513B00086F0200086F02000821
:1000E0006F0200086F0200086F0200086F0200082C
:1000F0006F0200086F0200086F0200086F0200081C
:100100006F0200086F0200086F0200086F0200080B
:100110006F0200086F0200086F0200086F020008FB
:100120006F0200086F0200086F0200086F020008EB
:100130006F0200086F0200086F0200086F020008DB
:100140006F0200086F0200086F0200086F020008CB
:100150006F0200086F0200086F0200086F020008BB
:100160006F0200086F0200086F0200086F020008AB
:100170006F0200086F0200086F0200080000000014
:100180006F0200086F02000800F002F800F052F859
:100190000AA090E8000C82448344AAF10107DA45E2
:1001A00001D100F047F8AFF2090EBAE80F0013F0E2
:1001B000010F18BFFB1A43F001031847E864000061
:1001C00008650000103A24BF78C878C1FAD85207F1
:1001D00024BF30C830C144BF04680C6070470000C1
:1001E0000023002400250026103A28BF78C1FBD840
:1001F000520728BF30C148BF0B607047662906F020
:100200006281642900F0A480782900F0DD807329E0
:1002100000F02B84002070471FB506F04AF900F06B
:100220003BFC04000020002105F0A6FBE0601FBDA0
:1002300010B510BD00F050FD1146FFF7EDFF04F0C2
:10024000ADFF00F06EFD03B4FFF7F2FF03BC04F056
:1002500086F900000948804709480047FEE7FEE7A5
:10026000FEE7FEE7FEE7FEE7FEE7FEE7FEE7FEE766
:1002700004480549054A064B704700000D35000843
:1002800089010008481F002048250020482100203F
:1002900048210020704700000FB4044910B503AA9C
:1002A000029800F0E7FB10BC5DF814FB1000002082
:1002B00070B5044685690068C10601D5302600E0A6
:1002C0002026C00707D070BDD4E9012130469047F1
:1002D000206A401C20626D1EF6D570BD70B50446C4
:1002E00085690078C00707D170BDD4E901212020BD
:1002F0009047206A401C20626D1EF6D570BD70B517
:100300000C460546012A05D02878800600D5EA6902
:10031000002302E0012305E05B1C934202D2E05C73
:100320000028F9D1A869E618C01AA861286A1844FB
:1003300028622846FFF7BCFF04E0D5E9012114F844
:10034000010B9047B442F8D32846FFF7C7FF70BDB2
:100350002DE9F0410646002410687529314616A59E
:1003600010D0AFF30080002802DA404213A507E066
:1003700031688A0701D512A502E0490704D511A505
:10038000012401E0AFF3008000210A2206F12407D6
:1003900009E0B0FBF2FCB0FBF2F302FB1C003030D2
:1003A00078541846491C0028F3D123462A46304683
:1003B000BDE8F04100F0DFB8000000002D000000B3
:1003C0002B0000002000000070B504460D462146B9
:1003D0001068AFF300802188090502D50F4A7A44DE
:1003E00002E00E4A7A440E32002104F1240305E0B3
:1003F00000F00F060009965D5E54491C0028F7D1F5
:1004000020780023000704D5702D02D009B1022303
:1004100011322046BDE8704000F0ADB80061000028
:100420002DE9F05F894604464FF0000ADFF824B159
:10043000FB44C0F820A02046E168884700287DD012
:10044000252806D0D4E901219047206A401C20626B
:10045000F1E700255F462046E168884720280646E8
:1004600007DB312E05D2B81910F8200C08B105436E
:10047000F1E7A80701D525F00405C4F81CA0002762
:10048000C4F818A02A2E09D0304604F061F838B319
:1004900004EB8708303EC8F8186019E059F8041BCF
:1004A000204604EB87029161E1688847012F0646E8
:1004B00018D1E069002820DA25F020051DE0D8F8E1
:1004C000180000EB800006EB40003038C8F8180038
:1004D0002046E1688847064604F03AF80028EED145
:1004E000012F0AD02E2E08D12046E16888477F1CB4
:1004F0000646022F45F02005C4DBA069002803DA78
:10050000404245F00105A061E80701D025F0100543
:10051000A6B1A6F14100192802D8203645F400659D
:100520004A463146204625604D46FFF767FE60B1DA
:10053000012807D0ED1D25F0070000E007E000F1DD
:10054000080978E705F1040975E730467AE7206A7B
:10055000BDE8F09FD6600000704770477047704755
:1005600010B500F09DFA006810BD10B5044600F00B
:1005700097FA046010BD2DE9F0470D469946924662
:10058000044600F124080168880604D5E06921F0DA
:100590001001216000E00120A84201DD471B00E0BE
:1005A0000027A1697A1902EB0900081AA0612078D6
:1005B000C00602D42046FFF77BFE002608E0D4E9FF
:1005C00001211AF806009047206A401C761C206220
:1005D0004E45F4DB2078C0060AD52046FFF768FEBA
:1005E00006E0D4E9012130209047206A401C2062B7
:1005F000381EA7F10107F4DC07E0D4E9012118F85F
:1006000005009047206A401C2062281EA5F10105C4
:10061000F3DC2046FFF762FE2078000602D50220B8
:10062000BDE8F0870120FBE770472DE9FF4F0C463E
:100630001E464FF0FF378BB0D2E90001DDF8608035
:100640000A908A46C1F30A5505B93D46002108467D
:100650004FF00000BAF1000F00F4400005DA00EBA3
:1006600080004FF4400101EA50004FEA9059B9F17F
:10067000010F00DDB9460A9850EA4A000ED044F650
:100680001050A5F2FF3545432F14B8F1000F1ED0CE
:100690007542291E1EDDC9F100021CE0B8F1010FF0
:1006A0004FF0000001D0302103E0F24305E0215477
:1006B000401CB042FBDB30460022002121540B9944
:1006C000C1F80880C1E900200FB0BDE8F08FBD1B64
:1006D0006D1CDEE74A4600DA694206A800F082FA9D
:1006E00006AB93E8070003AB83E8070050460A997E
:1006F00000F060FB8DE80700A0F500501F38009067
:100700000398002D0ADD42F21F014A4608440023E7
:1007100003A90390684600F0C9FD09E0A0F5005068
:100720004A461F38002303A90390684600F0D3FD12
:100730008DE807000004000C03D04FF0FF304108A3
:1007400000E01046B8F1000F03D0002200921546D9
:100750001EE0751E05D400F0A7F9303262556D1EFB
:10076000F9D5B3460122084302D000227F1C04E0E1
:100770002078302801D100227F1E002A099784D0DA
:100780001DE0112D07DA00F08FF9303262556D1C33
:1007900050EA0102F5D1084302D00098C8B10EE03A
:1007A0000021681E05E0235C625C63542254401EF5
:1007B000491C8142F7DBAB46A81B401E0990002074
:1007C00004F80B000B98099AC0F80880C0E9002BC8
:1007D0007AE711264FF0000857E72DE9F04F8846D9
:1007E0000446D21D22F0070191B0D1E90001CDE904
:1007F0000A0103F0CFF902460B98C00F01D02D205B
:1008000007E02068810701D52B2002E0202101EAC2
:10081000C000032A099001D0072A05DB03464146A0
:10082000204600F09FF90BE12078800601D5E069B1
:1008300000E00620B8F1650F814606D0B8F1660FDA
:1008400018D0B8F1670F70D131E00020B9F1110F65
:10085000009001DB112301E009F101030AAA01A9BB
:100860000CA8FFF7E2FEDDE90C70002609F1010596
:10087000834647E001204B4600904FF000470AAA0C
:1008800001A90CA8FFF7D1FEDDE90DB00C995D467A
:10089000002610B909F101000D18B9EB050003D4C9
:1008A000C0F1FF3609F10105A5EB09002BE0B9F114
:1008B000010F01DA4FF001090020B9F1110F00908A
:1008C000484601DD112300E003460AAA01A90CA84D
:1008D000FFF7ABFEDDE90C704D460026834620781D
:1008E00000070AD4AB4500DA5D4601A8012D04DDFE
:1008F000411911F8011C302907D04F4502DA17F1D0
:10090000040F04DA012082460FE06D1EEEE7002F8F
:1009100002DCED1B3E4403E0781CA84200DD7D1C98
:10092000B81B00F1010A4FF000472078000703D4FC
:10093000AA4501DB4FF0FF3A0021B7F1004F0DF15E
:1009400043088DF8431024D002202B23002F01DA16
:100950007F422D230A21021EA0F1010000DC5FB1BD
:1009600097FBF1FC97FBF1F201FB1C7C17460CF1A5
:10097000300C08F801CDEEE7A8F1010003702188E2
:10098000090501D5452100E06521A0F1010800F825
:10099000011C09980FA9A1EB0807FF1D00B1012058
:1009A000411901EBEA70A1693844081A401EA061A0
:1009B0002078C00602D42046FFF77AFC099828B1B7
:1009C000D4E901219047206A401C20622078C006AB
:1009D00022D52046FFF76CFC1EE0002E04DBB34559
:1009E00002DD01A8805D00E03020D4E901219047BC
:1009F000206A401C2062761CAAF101005FEA000A0E
:100A00000AD100F049F8C0680168405CD4E90121CE
:100A10009047206A401C2062281EA5F10105DCDCFD
:100A200007E0D4E9012118F8010B9047206A401C27
:100A30002062381EA7F10107F3DC2046FFF74EFCC9
:100A4000032011B041E610B5436913B1AFF3008044
:100A500001E0FFF754FC012010BD127800F12401E1
:100A60000A7000224A700122EDE711684FF0FF3250
:100A7000E9E70000074B70B50D467B4400F05FF8D6
:100A80000446284600F020F910B14FF0FF3070BD49
:100A9000204670BD0B41000000487047041F002035
:100AA00000487047E41E002030B5B0F10A024FEA5A
:100AB000900E71F100034EEA817EB0EB0E0061EB07
:100AC00091014FEA101E4EEA017E10EB0E0041EB41
:100AD00011114FEA102E4EEA016E10EB0E0041EBA1
:100AE00011214FEA104E4EEA014E10EB0E0041EB81
:100AF0001141401841F100014FEAD00040EA417035
:100B00004FEAD10110EB80054FEA810444EA90746A
:100B100044EB01046D1944EB0404521BA3414FF054
:100B2000000348BF0A3200D530BD401C41F100012E
:100B300030BD000001694A1C02610878704700B5A9
:100B40008FB0CDE901310021059105497944CDE906
:100B5000031011466846FFF763FC0FB000BD0000AC
:100B6000E5FFFFFF2DE9F0411F460446032601681B
:100B7000072A01F4006004DB08B116A505E016A5FC
:100B800003E008B115A500E015A521F010002060D4
:100B9000A069C01EA0610FB1401EA0612046FFF7F2
:100BA00087FB4FB1D4E9012138469047206A401CA9
:100BB0002062C01C206206E0206AFAE7D4E9012125
:100BC00015F8010B9047761EF8D22046FFF786FBFA
:100BD000BDE8F0814E414E006E616E00494E460008
:100BE000696E66002DE9F047814616468AB03548A1
:100BF00078440DC88DE80D0032487844801C03AC61
:100C00000DC884E80D0041F69B300844372190FB65
:100C1000F1F290FBF1F5A5F1800501FB12041B3CFC
:100C200002D56442012000E00020DFF898A0804651
:100C30000027FA44AAF1BE0A0EE0E0070AD03246C5
:100C4000684607EB470101230AEB810100F043FBF3
:100C50008DE8070064107F1C002CEED1194F7F44F3
:100C6000AE3F19E0E80715D007EB04100DF1180AA4
:100C700090E80E008AE80E00C068F04201D1981991
:100C800008903246012306A903A800F024FB03AB19
:100C900083E807006D10641C002DE3D14FF00103C1
:100CA00032466946B8F1000F03A802D000F0FEFA00
:100CB00001E000F010FBC9E90001C9F808200AB002
:100CC000BDE8F087985A0000007B00F08000704774
:100CD00000487047E41E00207546FFF7F9FFAE4656
:100CE00005006946534620F00700854618B020B538
:100CF000FFF7BEFABDE820404FF000064FF00007B6
:100D00004FF000084FF0000B21F00701AC46ACE8B3
:100D1000C009ACE8C009ACE8C009ACE8C0098D4620
:100D2000704710B50446AFF300802046BDE8104080
:100D3000FFF789BA4FF0013C50F8042B51F8043BFF
:100D40009A4221D1A2EB0C03934313EACC1317D19F
:100D500050F8042B51F8043B9A4215D1A2EB0C0336
:100D6000934313EACC130BD150F8042B51F8043BF6
:100D70009A4209D1A2EB0C03934313EACC13DBD0C4
:100D80004FF00000704700BFD01A01BAB1FA81F1EC
:100D900001F0180122FA01F0CB40C1F12001DBB2D1
:100DA000C0B2C01A2CFA01F3D11A914311EAC3114F
:100DB000E6D170475FEA400C08BF91F0000F4FEAA0
:100DC0008C234FEAC12243EA51514FEA1C5018BF0D
:100DD00000F5F0404FEA300018BF41F000415FEAF3
:100DE0006C5C00F02980BCF1FF3F08BF40F0804000
:100DF0007047130C06BF12044FF0100C4FF0000C9C
:100E0000130E04BF12020CF1080C130F04BF1201E1
:100E10000CF1040C930F04BF92000CF1020CD30FE1
:100E200004BF52000CF1010C11464FF00002A0F17A
:100E30001F00A0EB0C00704711F0004F08BF704777
:100E400031F000413FF4D5AF0B0C06BF09044FF061
:100E5000100C4FF0000C0B0E04BF09020CF1080C33
:100E60000B0F04BF09010CF1040C8B0F04BF8900A8
:100E70000CF1020CCB0F04BF49000CF1010CCCF1BA
:100E80002003A0EB0C0022FA03F302FA0CF241EA71
:100E9000030100F10100704720F07F4C80EA03005D
:100EA00023F07F47ACEB070303F57C5300F00040D1
:100EB00003F1FF032DE980494FEA154B09B44FEACE
:100EC000144325EA0B4E24EA03480FF2042606EBEE
:100ED000132749083E785FEA320203FB0667C7F52D
:100EE000000707FB06F64FEA54374FEAD64606F1ED
:100EF000020607FB066CCCF1005C4FEA1C472CEAAB
:100F0000074C07FB06F40CFB06F504EB15464FEA0D
:100F1000961634BF00204FF000404FEAD13706FB51
:100F200007FC4FEA1C4C0CFB0BF7D21B03FB0CF726
:100F300061EB07010CFB0EF7B0EB074072EB1742B9
:100F40000CFB08F734BFA2EB0742B2EB074261EBA0
:100F500017414FEA0C444FEA910706FB07FC4FEAA2
:100F60001C4C0CFB0BF7B0EBC74072EB573203FB8A
:100F70000CF734BFA2EBC742B2EBC74261EB57316B
:100F80000CFB0EF7B0EBC70072EB57720CFB08F7C7
:100F900034BFA2EBC702B2EBC70261EB5771039FEC
:100FA0004FEA816141EA921104EBCC044FEAD13758
:100FB0004FEA826206FB07FC42EA90124FEA806029
:100FC0004FEA1C4C0CFB0BF7D21B03FB0CF761EB3D
:100FD00007010CFB0EF7B0EB074072EB17420CFB5E
:100FE00008F734BFA2EB0742B2EB074261EB1741AF
:100FF0004FEA8C554FEA910704EB9C2406FB07FC53
:101000004FEA1C4C0CFB0BF7B0EBC74072EB5732AE
:1010100003FB0CF734BFA2EBC742B2EBC74261EB54
:1010200057310CFB0EF7B0EBC70072EB57720CFB9D
:1010300008F734BFA2EBC702B2EBC70261EB5771EE
:1010400015EB4C254FEA816141EA92114FEA826229
:101050004FEAD13742EA901206FB07FC44F1000444
:101060004FEA80604FEA1C4C0CFB0BF7D21B03FBD2
:101070000CF761EB07010CFB0EF7B0EB074072EBCE
:1010800017420CFB08F734BFA2EB0742B2EB074252
:1010900061EB174115EB1C154FEA813141EA924192
:1010A0004FEA823242EA90424FEA80304FEA0C76B1
:1010B00044F1000448EA03434EEA0B484FF0000EA7
:1010C000B2EB080C71EB030724BF624639464EEBC6
:1010D0000E0E4FF0000B0018524149414BEB0B0B29
:1010E000B2EB080C71EB03077BF1000B24BF6246E7
:1010F00039464EEB0E0E4FF0000B0018524149419D
:101100004BEB0B0BB2EB080C71EB03077BF1000B05
:1011100024BF624639464EEB0E0E51EA020718BF55
:1011200046F0010616EB0E7655F1000254F100016F
:1011300003D5BDE88901BDE80088BDE88901BDE8A7
:101140000048B619524141EB0101A3F10103704778
:1011500080807F7E7D7C7B7A7978777676757473F4
:10116000727171706F6E6E6D6C6C6B6A6A696868B3
:10117000676666656464636362616160605F5F5E49
:101180005E5D5D5C5C5B5B5A5A59595858575756BF
:101190005655555554545353525252515150505024
:1011A0004F4F4F4E4E4D4D4D4C4C4C4B4B4B4A4A76
:1011B0004A494949484848474747474646464545BA
:1011C00045444444444343434342424242414141F3
:1011D000002B9C4630D477002BD01CB54FEA370744
:1011E00003B44FF010004FF01001BAF1000F06D019
:1011F000BCF1000FDCBF40F0080040F008014FF0E8
:1012000000000FBCBDE810400BF1010BBBF1010F5A
:1012100008BF5FEA170722BF12F1010211F10101B5
:101220004FF0004143F1000300F0004043EA0000AA
:101230007047F9D35708D0E746EA064613F1400F46
:101240004FEA16461FDD13F1200FDFBF16430A4693
:10125000002120335B42BED0C3F1200746EA064698
:1012600002FA07F74FEA164646EA0706C3F12007D7
:1012700022FA03F201FA07F721FA03F14FF0000313
:1012800042EA0702A7E746EA020646EA06464FEAAE
:10129000164646EA0106BCBF46EA0646360C4FF043
:1012A00000034FF000024FF0000194E72DE9804C5D
:1012B0009A46934670B491E8380007C831EA400C6A
:1012C00048BF34EA430C03D5FFF7E6FDFFF780FF84
:1012D000F0BCBDE8008C2DE9804C9A46934670B472
:1012E00091E8380007C810F0804F08BF13F0804F16
:1012F00003D100F005F8FFF76BFFF0BCBDE8008CF0
:1013000020F07F4780EA030023F07F4C07EB0C03BB
:10131000A3F57C5300F00040A3F1FE0392F0000F10
:1013200000F0B38095F0000F00F077802DE90149BF
:101330004FEA11404FEA144621EA004800FB06FC40
:1013400024EA064708FB06F607FB08F800FB07F748
:1013500018EB06484CEB164C4FEA124B18EB0748BB
:101360004FEA15464CEB174022EA0B4E0BFB06FCEE
:1013700025EA06470EFB06F607FB0EFE0BFB07F7FA
:101380001EEB064E4CEB164C4FF000061EEB074EC4
:101390004CEB174B18EB0B0840F1000018EB0E0B51
:1013A00058EB000840F100008F1A4FF000013CBFDD
:1013B000C943661B14BFB5EB040C00213CBFC943F5
:1013C000F61B4FEA17444EEA8E0E27EA04454FEA11
:1013D0001C4704FB07622CEA074C05FB07F70CFBD4
:1013E00005F604FB0CFC16EB074642EB174216EB26
:1013F0000C4642EB1C421BEB060658EB0202414135
:1014000046EA9E0601D5BDE80189B619524141EB75
:101410000101A3F10103BDE801894FEA14454FEA38
:10142000114724EA054621EA074C05FB07F406FBB1
:1014300007F70CFB06F105FB0CFC11EB074144EB35
:1014400017444FEA124711EB0C4144EB1C4422EACB
:10145000074C05FB07F206FB07F70CFB06F605FB3E
:101460000CFC16EB074642EB174216EB0C4642EB20
:101470001C456A1854F1000148BF7047B619524123
:1014800041EB0101A3F10103704795F0000F37D044
:101490004FEA11424FEA144721EA024624EA074C78
:1014A00002FB07F106FB07F70CFB06F402FB0CFC42
:1014B00014EB074441EB17414FEA154714EB0C447A
:1014C00041EB1C4125EA074C02FB07F506FB07F739
:1014D0000CFB06F602FB0CFC16EB074645EB17452A
:1014E00016EB0C4645EB1C42121951F1000148BFA6
:1014F0007047B619524141EB0101A3F10103704756
:101500004FEA14454FEA114724EA054621EA074C01
:1015100005FB07F106FB07F70CFB06F24FF0000690
:1015200005FB0CFC12EB074241EB174112EB0C429E
:1015300051EB1C4148BF7047921841EB0101A3F1E8
:101540000103704700BFFEE77047014691F8350080
:10155000022803D08020486501207047052081F8CB
:1015600035000868006820F001000A68106000205B
:10157000F3E70000F8B502460B46002500240020E2
:101580000021DCE0012606FA01F51E6806EA0504E2
:10159000AC4273D15E68022E02D05E68122E13D167
:1015A000CF0802F1200656F827004E07F70E0F2647
:1015B000BE40B0434F07FF0E1E69BE403043CF0808
:1015C00002F1200646F8270010684F000326BE40AF
:1015D000B0431E7906F003064F00BE403043106052
:1015E0005E68012E08D05E68022E05D05E68112E5E
:1015F00002D05E68122E13D190684F000326BE40C1
:10160000B0434F00DE68BE40304390605068012612
:101610008E40B0431E79C6F300168E4030435060B2
:10162000D0684F000326BE40B0434F009E68BE40C6
:101630003043D0605E6806F08056B6F1805F7DD1A1
:1016400000BF00260096404E366846F480463E4F66
:101650003E603E46366806F48046009600BF00BFF6
:101660003A4E8F0856F827008E07370F0F26BE40D8
:10167000B043374EB24202D1002624E05EE0354E40
:10168000B24201D101261EE0334EB24201D1022600
:1016900019E0324EB24201D1032614E0304EB2427C
:1016A00001D104260FE02F4EB24201D105260AE0F7
:1016B0002D4EB24201D1062605E02C4EB24201D198
:1016C000072600E008268F073F0FBE4030431F4E1D
:1016D0008F0846F82700264E3068A0435E6806F45F
:1016E0008036B6F5803F00D12043214E3060361D54
:1016F0003068A0435E6806F40036B6F5003F00D1BE
:1017000020431B4E361D3060361D3068A0435E6896
:1017100006F48016B6F5801F00D12043144E08361B
:101720003060361D3068A0435E6806F40016B6F5DA
:10173000001F00D120430E4E0C363060491C10298A
:10174000FFF420AFF8BD00004438024008380140E3
:10175000000002400004024000080240000C024069
:10176000001002400014024000180240001C024019
:10177000003C014001480068000C7047002004E074
:101780000148006870470000080000200248006817
:10179000401C0149086070470800002010B50A4845
:1017A000006840F40070084908600846006840F48A
:1017B00080600860052000F069F80F2000F006F84E
:1017C00000F018F8002010BD003C024070B504463F
:1017D000074800684FF47A71B0FBF1F5284600F035
:1017E00017FC00222146501E00F012F8002070BDA8
:1017F00004000020704700BF00F01F02012191404B
:101800004209920002F1E022C2F8001100BF7047C5
:101810002DE9F05F80460D461646002701F0EEFDEB
:10182000074639462A46334601F00700C0F1070A49
:10183000BAF1040F02D94FF0040A01E0C0F1070A1F
:10184000D14600F1040ABAF1070F02D24FF0000AA4
:1018500001E0A0F1030AD4464FF0010A0AFA09FA9E
:10186000AAF1010A0AEA020A0AFA0CFA4FF0010B7D
:101870000BFA0CFBABF1010B0BEA030B4AEA0B046E
:101880002146404601F0C2FDBDE8F09F00BF00F0D8
:101890000702064B19684FF6FF031940044B0B4330
:1018A00043EA0221014B196000BF70470CED00E0D4
:1018B0000000FA0570B504460D4600266D48006824
:1018C00000F00F00A84209D26A490D70084600686E
:1018D00000F00F00A84201D0012070BD207800F078
:1018E0000200022807D16448006820F0F000A168D7
:1018F000084361490860207800F00100002877D093
:101900006068012807D15C4808380068C0F340408F
:10191000B8B90120E1E76068022802D060680328B6
:1019200007D1554808380068C0F3406048B9012025
:10193000D3E7514808380068C0F3400008B90120D7
:10194000CBE74D48006820F00300616808434A492E
:101950000860FFF715FF06466068012810D108E00F
:10196000FFF70EFF801B41F28831884201D9032026
:10197000B3E74148006800F00C000428F0D137E0DC
:101980006068022810D108E0FFF7FAFE801B41F2E0
:101990008831884201D903209FE73748006800F06A
:1019A0000C000828F0D123E06068032810D108E07B
:1019B000FFF7E6FE801B41F28831884201D90320FF
:1019C0008BE72D48006800F00C000C28F0D10FE0E8
:1019D00008E0FFF7D5FE801B41F28831884201D92B
:1019E00003207AE72448006800F00C000028F0D1BA
:1019F0002048006800F00F00A84209D91D490D7069
:101A00000846006800F00F00A84201D0012064E7FA
:101A1000207800F00400042807D11748006820F45B
:101A2000E050E168084314490860207800F008009D
:101A3000082808D11048006820F46040216940EA75
:101A4000C1000D49086000F04FF80B49096801F02A
:101A5000F001F02292FAA2F2B2FA82F2D140074AE1
:101A6000515CC840064908600F20FFF7AFFE002018
:101A700033E70000003C024008380240CA64000816
:101A800004000020014800687047000004000020A6
:101A900000B5FFF7F7FF0749096801F4E0514FF47B
:101AA000E05292FAA2F2B2FA82F2D140024A515CBA
:101AB000C84000BD08380240DA64000800B5FFF7EE
:101AC000E1FF0749096801F460414FF4604292FA6E
:101AD000A2F2B2FA82F2D140024A515CC84000BD83
:101AE00008380240DA64000870B5002100220023A3
:101AF0000020274C246804F00C0424B1042C04D0EA
:101B0000082C41D103E0234840E023483EE0204C2C
:101B1000241F246804F03F011D4C241F246804F492
:101B2000800484B11C4CB4FBF1F5194C241F2468CB
:101B300047F6C076344096FAA6F6B6FA86F6F44032
:101B400005FB04F20FE0134CB4FBF1F5104C241F1D
:101B5000246847F6C076344096FAA6F6B6FA86F6BA
:101B6000F44005FB04F20A4C241F246804F44034BA
:101B70004FF4403595FAA5F5B5FA85F5EC40641CAF
:101B80006300B2FBF3F001E0024800BF00BF70BD8C
:101B9000083802400024F40000127A0038B50446E8
:101BA0000025207800F00100002874D0F748006874
:101BB00000F00C0004280DD0F448006800F00C0080
:101BC000082813D1F148001F006800F48000B0F528
:101BD000800F0BD1ED4808380068C0F34040002862
:101BE00059D06068002856D1012038BD00BF606818
:101BF000B0F5803F08D1E5480838006840F48030EF
:101C0000E249083908601EE06068B0F5A02F0DD1E8
:101C1000DE480838006840F48020DC490839086054
:101C20000846006840F4803008600CE0D748083867
:101C3000006820F48030D5490839086008460068FB
:101C400020F48020086000BF606890B1FFF798FD25
:101C5000054606E0FFF794FD401B642801D90320E8
:101C6000C3E7CA4808380068C0F340400028F1D0F4
:101C700011E0FFF785FD054606E0FFF781FD401BFB
:101C8000642801D90320B0E7C04808380068C0F3D1
:101C900040400028F1D1207800F00200022869D1EC
:101CA000BA48006800F00C0058B1B848006800F06D
:101CB0000C00082821D1B548001F006800F48000FE
:101CC000D8B9B24808380068C0F3400020B1E068D5
:101CD000012801D0012088E7AC480838006820F0CE
:101CE000F800F82292FAA2F2B2FA82F22169914047
:101CF0000843A649083908603CE0E06828B30120A1
:101D0000A3490860FFF73CFD054606E0FFF738FDF4
:101D1000401B022801D9032067E79C480838006867
:101D2000C0F340000028F1D098480838006820F03F
:101D3000F800F82292FAA2F2B2FA82F221699140F6
:101D4000084392490839086014E00020904908606F
:101D5000FFF716FD054606E0FFF712FD401B0228BF
:101D600001D9032041E7894808380068C0F34000E2
:101D70000028F1D1207800F0080008282CD16069F3
:101D8000A8B1012083490860FFF7FAFC054606E088
:101D9000FFF7F6FC401B022801D9032025E77B480A
:101DA0006C300068C0F340000028F1D014E000203F
:101DB00078490860FFF7E4FC054606E0FFF7E0FC21
:101DC000401B022801D903200FE770486C300068DF
:101DD000C0F340000028F1D1207800F0040004286E
:101DE0007FD100BF0020009068483830006840F084
:101DF00080506649383108600846006800F080501D
:101E0000009000BF00BF6448006840F480706249E1
:101E10000860FFF7B5FC054606E0FFF7B1FC401B84
:101E2000022801D90320E0E65B48006800F48070D6
:101E30000028F2D000BFA068012808D153486830BC
:101E4000006840F001005149683108601DE0A06859
:101E500005280DD14D486830006840F004004B491A
:101E6000683108600846006840F0010008600CE036
:101E700046486830006820F0010044496831086035
:101E80000846006820F00400086000BFA068A0B108
:101E9000FFF776FC054608E0FFF772FC401B41F2B5
:101EA0008831884201D903209FE6384868300068AD
:101EB000C0F340000028EFD013E0FFF761FC0546B7
:101EC00008E0FFF75DFC401B41F28831884201D9F0
:101ED00003208AE62D4868300068C0F340000028DF
:101EE000EFD1A069F0B32948006800F00C00082881
:101EF00071D0A069022858D1002025490866FFF753
:101F00003FFC054606E0FFF73BFC401B022801D9D9
:101F100003206AE61D4808380068C0F340600028C6
:101F2000F1D1D4E90701084347F6C07292FAA2F250
:101F3000B2FA82F2616A914008430122A16AC2EBBF
:101F400051014FF4403292FAA2F2B2FA82F2914079
:101F500008434FF0706292FAA2F2B2FA82F2E16A9A
:101F6000914000E039E008430849091F086001205A
:101F700007490866FFF704FC05460FE0FFF700FC81
:101F8000401B02280AD903202FE60000083802402F
:101F900000004742800E4742007000401048006831
:101FA000C0F340600028E9D017E000200D49086622
:101FB000FFF7E6FB054606E0FFF7E2FB401B0228C1
:101FC00001D9032011E606480068C0F340600028EC
:101FD000F2D102E0FFE7012007E6002005E600005D
:101FE0000038024000004742042808D14FF0E021A9
:101FF000096941F004014FF0E022116107E04FF060
:10200000E021096921F004014FF0E02211617047DD
:1020100070B504462546681EB0F1807F01D30120CB
:102020000FE0681E4FF0E02148610F214FF0FF30B4
:1020300001F0ECF900204FF0E021886107200861F1
:10204000002070BD7047704710B504460CB90120E0
:1020500010BD94F8390028B9002084F838002046D3
:1020600000F00CF8022084F83900211D206801F0EE
:102070009DFA012084F839000020E9E738B50446CC
:102080000E492068884217D100BF002000900C48FC
:10209000006840F002000A4908600846006800F045
:1020A0000200009000BF00BF032201211D20FFF7A6
:1020B000AFFB1D20FFF79FFB38BD00000004004070
:1020C0004038024001460868C06840F001000A68D4
:1020D000D0600868006840F001000A6810600020C5
:1020E0007047704710B5044620680069C0F340008F
:1020F000D8B12068C068C0F34000B0B16FF00200F2
:1021000021680861012020762068806900F00300C2
:1021100018B12046FFF7E5FF05E0204600F0ADF8D6
:10212000204600F0ABF80020207620680069C0F35C
:102130008000D8B12068C068C0F38000B0B16FF0F3
:10214000040021680861022020762068806900F47C
:10215000407018B12046FFF7C4FF05E0204600F0AC
:102160008CF8204600F08AF800202076206800696C
:10217000C0F3C000D8B12068C068C0F3C000B0B1DF
:102180006FF0080021680861042020762068C0698B
:1021900000F0030018B12046FFF7A3FF05E020463A
:1021A00000F06BF8204600F069F8002020762068E7
:1021B0000069C0F30010D8B12068C068C0F30010F7
:1021C000B0B16FF010002168086108202076206807
:1021D000C06900F4407018B12046FFF782FF05E0A7
:1021E000204600F04AF8204600F048F8002020760B
:1021F0002068006900F0010058B12068C06800F054
:10220000010030B16FF0010021680861204600F044
:1022100037F820680069C0F3C01058B12068C06862
:10222000C0F3C01030B16FF0800021680861204613
:10223000FFF708FF20680069C0F3801058B12068DC
:10224000C068C0F3801030B16FF0400021680861B1
:10225000204600F023F820680069C0F3401058B110
:102260002068C068C0F3401030B16FF020002168D2
:1022700008612046FFF7E7FE10BD70477047000079
:102280000449884204D104490968491C024A116082
:1022900070470000A81E00205400002070477047BF
:1022A00001460022002391F8392091F83A3042EAA1
:1022B000030070472DE9F047044620680568206850
:1022C000C668206847694FF00008C14605F00F084E
:1022D000B8F1000F0AD105F0200038B106F0200057
:1022E00020B1204601F0FEF9BDE8F087B8F1000FFB
:1022F0006DD007F0010018B906F49070002866D080
:1023000005F0010030B106F4807018B1E06B40F0C8
:102310000100E06305F0040030B107F0010018B1DE
:10232000E06B40F00200E06305F0020030B107F01E
:10233000010018B1E06B40F00400E06305F0080014
:1023400030B107F0010018B1E06B40F00800E06325
:10235000E06B68B305F0200028B106F0200010B152
:10236000204601F0BFF920684069C0F38019E06B96
:1023700000F0080010B9B9F1000F22D0204601F09A
:1023800091F92068406900F04000B0B120684069D0
:1023900020F0400021684861606B50B11748616BC4
:1023A0000865606BFFF7D1F810B1606B016D88476D
:1023B0000CE02046FFF773FF08E02046FFF76FFFB1
:1023C00004E02046FFF76BFF0020E0638CE705F098
:1023D000800030B106F0800018B1204601F084FB87
:1023E00082E705F0400030B106F0400018B1204609
:1023F00001F068F978E700BF76E700009136000841
:1024000010B504460CB9012010BDA06900B100E070
:1024100000BF94F8390028B9002084F8380020461D
:1024200000F028F8242084F839002068C06820F4DF
:1024300000502168C860204601F0A2F920680069B8
:1024400020F49040216808612068406920F02A004B
:10245000216848612068C06840F400502168C86065
:102460000020E063202084F8390084F83A0000203E
:10247000CAE7000010B586B00446224920688842A9
:102480003ED100BF002000901F48006840F00100CE
:102490001D4908600846006800F00100009000BF78
:1024A00000BF00BF0020009017481430006840F0C3
:1024B00010001549143108600846006800F010004B
:1024C000009000BF00BF481501900220029001203B
:1024D0000390022004900720059001A90B48FFF704
:1024E00049F84FF48060019001A90848FFF742F8CD
:1024F0002520FFF780F9032211462520FFF788F9F0
:1025000006B010BD0010014030380240000002400B
:1025100010B5034693F83A00202829D101B10AB931
:10252000012010BD00BF93F83800012801D102201E
:10253000F7E7012083F8380000BF99629A85DA85B1
:102540000020D863222083F83A0000BF002083F8DF
:10255000380000BF1868406940F001001C686061E5
:102560001868C06840F490701C68E0600020D8E7EC
:102570000220D6E71D4A0168914236D11C490988DC
:1025800001F4004189BB1A49098801F4804171B105
:10259000184909780A2903D00021154A118024E03E
:1025A0001349098841F40041114A11801DE0114985
:1025B00009780D2906D10E49098841F480410C4A59
:1025C000118012E00B490978094A1288C2F30D0202
:1025D000094B995406490988491C054A118011463E
:1025E0000988C72901DD00211180704700100140D2
:1025F0001400002016000020C8000020704700BF13
:10260000FEE7000010B500200F4908600F48006881
:1026100020F030000D4908600846006840F01000C6
:10262000086000200A49C1F88802022002F07CFA02
:10263000012005490860022002F076FA00200449D2
:10264000C1F8840210BD000084024142000802402B
:102650000000414200B587B000BF00200190104843
:10266000006840F004000E4908600846006800F069
:102670000400019000BF00BF0620029001200390DB
:1026800004900220059002A90648FEF773FF01207E
:10269000054908600549C1F8840207B000BD000083
:1026A00030380240000802408802414200004142A6
:1026B00010B500200F4908600F48006820F0300076
:1026C0000D4908600846006840F0100008600120CD
:1026D0000A49C1F88802022002F026FA01200549C1
:1026E0000860022002F020FA00200449C1F88402A8
:1026F00010BD000084024142000802400000414237
:1027000070B5054600241648006820F030001449D2
:102710000860084600680860002616E0002011499D
:102720000860022002F000FA01200F49C1F884027B
:102730006006040E0B487C38006808B1601CC4B207
:10274000012002F0F1F9701CC6B2082EE6DB15B9C3
:10275000FFF7AEFF01E0FFF755FF204670BD000018
:102760000008024084024142000041422DE9F0414C
:1027700006460F4614461D4600F064F87106080E22
:1027800000F02CF800F0AAF820B100F081F8012048
:10279000BDE8F081384600F021F800F09FF800F025
:1027A00051F8012101EB4601C8B200F017F800F022
:1027B00095F80DE0012C04D10020FFF7A1FF28704F
:1027C00003E00120FFF79CFF28706D1C601E84B29F
:1027D000002CEFD100F05CF80020D9E770B504467A
:1027E0001548006820F0300013490860084600686A
:1027F00040F010000860002010490860002517E034
:10280000E0090E49091D08606006040E022002F06E
:102810008BF901200A49C1F88402022002F084F9F0
:10282000002006490860022002F07EF9681CC5B24B
:10283000082DE5DB70BD0000000802408402414223
:102840000000414210B50F48006820F030000D49EB
:1028500008600846006840F01000086001200A493E
:1028600008600A49C1F88402042002F05DF90020E2
:1028700005490860042002F057F900200349C1F817
:10288000840210BD0008024088024142000041421B
:1028900010B50F48006820F030000D490860084668
:1028A000006840F01000086000200A4908600A49EA
:1028B000C1F88802042002F037F9012005490860B8
:1028C0000549C1F88802042002F02EF910BD00006D
:1028D00000080240840241420000414210B5002439
:1028E0001348006820F0300011490860084600686D
:1028F000086001200F49086002F016F901200E4916
:10290000C1F8840202F010F907E0601CC4B2FA2C8E
:1029100003DDFFF7BDFF012010BD064880380068C9
:102920000028F2D10349091F086000BFF4E7000046
:102930000008024088024142000041422DE9F04176
:1029400005460E4617461C46FFF77CFF6906080E33
:10295000FFF744FFFFF7C2FF20B1FFF799FF012007
:10296000BDE8F0813046FFF739FFFFF7B7FF05E01C
:1029700014F8010BFFF732FFFFF7B0FF381EA7F185
:1029800001018FB2F4D1FFF783FF0020E8E70000D8
:1029900000B52DED108B84B0F0EE404AB0EE605AD9
:1029A000F0EE415AB0EE617AB0EE426AF0EE626A41
:1029B000F0EE43AAFE4890ED000AD0ED000A20EEAA
:1029C000200AB0EE40DA90ED000AFA48D0ED000A95
:1029D00020EE200AF0EE40DAF54890ED000AF648C5
:1029E000D0ED000A20EE200AB0EE40EAF04890ED6B
:1029F000000AF248D0ED000A20EE200A8DED030A0D
:102A0000EC4890ED000AD0ED000A20EE200AF0EE2E
:102A100040EA90ED000AE848D0ED000A20EE200AD6
:102A20008DED020AE34890ED000AE448D0ED000A7B
:102A300020EE200AB0EE40FADF4890ED000AD0ED1B
:102A4000000A20EE200AF0EE40FA90ED000ADB4882
:102A5000D0ED000A20EE200A8DED010A90ED000A6B
:102A6000D0ED000A20EE200A8DED000AD44800685F
:102A7000D449086008460068D3490968884210D2E2
:102A8000D14800684FF6FF71081ACE49096808441A
:102A900000EE100AB8EE400ADFEDCC0A80EE203AD4
:102AA0000CE0C8480068C8490968401A00EE100ADE
:102AB000B8EE400ADFEDC50A80EE203AC148006852
:102AC000C149086067EE070A46EE060A46EEA60A06
:102AD000B0EE600A02F088F8F0EE402A27EE220AF3
:102AE000B0EE407A26EE220AB0EE406A26EEA20A46
:102AF000F0EE406A6AEEAA0A43EEA30A44EE040A24
:102B0000B0EE600A02F070F8F0EE402A2AEEA20A57
:102B1000F0EE40AA23EEA20AF0EE403A24EE220A9A
:102B2000B0EE404A3FEE4E0AF0EE000A20EE20BA28
:102B30009DED010A3DEE800AF0EE000A60EE20BA3B
:102B40003DEE6E0A70EE6F0A9DED000A30EE80CA0F
:102B50009A4890ED000AD0ED000A20EE200A96482F
:102B6000D0ED000A90ED001A00EE810AF7EE000A9F
:102B7000B0EE001A41EE400A9548C0ED000A8C48BC
:102B800090ED000AB1EE400A8C48D0ED000A20EE2C
:102B9000200A8848D0ED000A874890ED001A00EE20
:102BA000810AF0EE000A20EE200A894880ED010A31
:102BB0007F4890ED000A8048D0ED000A20EE200A00
:102BC0007C48D0ED000A7D4890ED001A00EEC10A65
:102BD000F0EE000A20EE200A7D4880ED020A7448DB
:102BE00090ED000A7548D0ED000A20EE200A7148E9
:102BF000D0ED000A704890ED001A00EE810AF0EE68
:102C0000000A20EE200A734880ED000A6B4890ED20
:102C1000000AD0ED000A20EE200A6648D0ED000A36
:102C200090ED001A00EE810AF7EE000AB0EE001AED
:102C300041EE400A6748C0ED010A5D4890ED000A88
:102C4000B1EE400A5B48D0ED000A20EE200A5A4857
:102C5000D0ED000A594890ED001A00EE810AF0EE1E
:102C6000000A20EE200A5B4880ED020A26EE0C0ADC
:102C7000F0EE407A46EEEB7A26EE8B0AB0EE408A12
:102C800007EE4C8A27EE2B0AF0EE408A46EE4B8A7E
:102C9000F5EEC07AF1EE10FA51D0B5EEC08AF1EE41
:102CA00010FA4CD0F5EEC08AF1EE10FA47D09FED45
:102CB0004A0A67EE800A494890ED000A00EE830A4E
:102CC00080ED000A9FED440A68EE000A444890ED4A
:102CD000000A00EE830A80ED000A9FED3F0A68EECD
:102CE000800A404890ED000A00EE830A80ED000A59
:102CF000F6EE000AB0EE640A00EEA70A3748D0EDFF
:102D0000000A30EE200AF0EE404AF6EE000AB0EE7D
:102D1000450A00EE880A3248D0ED000A30EE200A5B
:102D2000B0EE405AF6EE000AB0EE650A00EEA80AD0
:102D30002C48D0ED000A30EE200AF0EE405A1D4833
:102D400090ED000AB1EE400A20EE240A1A48D0EDB8
:102D5000000A00EEC50A1948D0ED000A00EEE50AA7
:102D60001348D0ED000AF0EE60CA40EE03CA90EDC1
:102D7000000A20EE240A1048D0ED000A00EEA50A51
:102D80000E48D0ED000A00EEC50A0A48D0ED000A50
:102D9000B0EE609A00EE039A054890ED000A20EE2E
:102DA000050A0448D0ED000A00EEE50A03481BE0DE
:102DB00024000020280000202C00002030000020EB
:102DC00054000020400000203C00002000409C46B1
:102DD000D0010020DC0100206F12833A180000208F
:102DE0001C00002020000020D0ED000A00EEA40A04
:102DF0002148D0ED000AF0EE609A40EE039A1F4899
:102E000090ED000A20EE250A1D48D0ED000A00EEE4
:102E1000850A1948D0ED000A00EEE40A1948D0ED01
:102E2000000AB0EE60AA00EE03AA6CEEAC0A49EE0E
:102E3000090A49EEA90A4AEE0A0AB0EE600A01F050
:102E4000D3FEF0EE402A2CEEA20A0C4880ED000AD8
:102E500029EE220A0A4880ED000A29EEA20A064855
:102E600080ED000A2AEE220A064880ED000A04B02E
:102E7000BDEC108B00BD00002C00002024000020C1
:102E800028000020300000200E4991ED000A80ED5E
:102E9000000A91ED010A80ED010A91ED020A80ED30
:102EA000020A91ED030A80ED030A91ED040A80ED18
:102EB000040A91ED050A80ED050A91ED060A80ED00
:102EC000060A7047FC01002010B52DED048B044666
:102ED0002F4800F06BF82E4890ED050ADFED2D0A23
:102EE00020EE200ADFED2C0A80EE201AB0EE418A97
:102EF00090ED040ADFED270A20EE200ADFED260A16
:102F000080EE201AF0EE418A90ED030ADFED210AEF
:102F100020EE200ADFED200A80EE201AB0EE419A62
:102F200090ED080AB0EE404A90ED070AF0EE403A04
:102F300090ED060AB0EE403A90ED020AF0EE402A1B
:102F400090ED010AB0EE402A90ED000AF0EE401A32
:102F5000B0EE481AF0EE680AB0EE490AFFF718FD25
:102F60000E4890ED000A84ED000A0D4890ED000A2D
:102F700084ED010A0B4890ED000A84ED020A0A482C
:102F800090ED000A84ED030ABDEC048B10BD000037
:102F9000841E0020DB0F4940000034432400002041
:102FA000280000202C0000203000002010B58EB03A
:102FB00004460DAA0AA907A801F0DCFA9DED070A4C
:102FC000474880ED000A9DED080A80ED010A9DED5D
:102FD000090A80ED020A9DED0A0A80ED030A9DEDC3
:102FE0000B0A80ED040A9DED0C0A80ED050A9DEDAB
:102FF0000D0A80ED060A01AB04AA64210C3001F031
:1030000077FB9DED040ADFED370AB4EEE00AF1EE3E
:1030100010FA35D29DED050ADFED320AB4EEE00A72
:10302000F1EE10FA2CD29DED060ADFED2E0AB4EE79
:10303000E00AF1EE10FA23D22B48006863281FDB68
:103040009DED010A294880ED000A9DED020A80ED00
:10305000010A9DED030A80ED020A9FED250A25482D
:1030600080ED000A9FED220A234880ED000A9FEDC3
:10307000200A224880ED000A00201B49086008E071
:1030800019480068642804DA17480068401C16498B
:1030900008609DED070A84ED000A9DED080A84EDA5
:1030A000010A9DED090A84ED020A9DED0A0A0F4806
:1030B000D0ED000A30EE600A84ED030A9DED0B0AA4
:1030C000D0ED010A30EE600A84ED040A9DED0C0A91
:1030D000D0ED020A30EE600A84ED050A0EB010BD94
:1030E000FC0100200AD7A33C50000020781E0020DD
:1030F00000000000180000201C000020200000201C
:1031000010B52DED0C8B88B004469FED870A8DED30
:10311000030A9FED850A8DED020A9FED830A8DED6E
:10312000010A04A8FFF7D0FE9DED060AF8EE000A9A
:1031300020EE200ADDED060A20EE200ADDED070A6A
:10314000B0EE001A60EE810A9DED071A00EEC10A8A
:10315000F7EE000A30EE200A10EE101A084603F0CF
:1031600037F941EC1C0B9DED050AF0EE000A20EE4C
:10317000200ADDED060A20EE200ADDED040AB0EE9D
:10318000001A60EE810A9DED071A00EE810A10EE2A
:10319000101A084603F01CF941EC1D0BB0EE4C1A56
:1031A000F0EE6C1AB0EE4D0AF0EE6D0A01F028F860
:1031B000B0EE40BAF0EE60BA51EC1B0B02F0F2FB3D
:1031C00041EC1A0B9FED590B53EC102B02F040FE13
:1031D00041EC190B9FED570B53EC102B02F0C8FC80
:1031E00041EC180B02F0EAFB20609DED050AF8EEB9
:1031F000000A20EE200ADDED070A20EE200ADDEDB0
:10320000040AB0EE001A60EE810A9DED061A00EE87
:10321000810A10EE101A084603F0DAF841EC1C0B94
:10322000B0EE4C0AF0EE6C0A00F0CEFCB0EE40BA04
:10323000F0EE60BA51EC1B0B02F0B4FB41EC1A0B40
:103240009FED3A0B53EC102B02F002FE41EC190BF0
:103250009FED380B53EC102B02F08AFC41EC180B5D
:1032600002F0ACFB60609DED050AF8EE000A20EE6E
:10327000200ADDED050A20EE200ADDED060AB0EE9B
:10328000001A60EE810A9DED061A00EEC10AF7EE03
:10329000000A30EE200A10EE101A084603F098F8E3
:1032A00041EC1B0B9DED060AF0EE000A20EE200A11
:1032B000DDED070A20EE200ADDED040AB0EE001A6B
:1032C00060EE810A9DED051A00EE810A10EE101ADB
:1032D000084603F07DF841EC1C0BB0EE4B1AF0EE03
:1032E0006B1AB0EE4C0AF0EE6C0A00F089FFB0EEFB
:1032F00040AAF0EE60AA9FED0D0B53EC102B51ECA1
:103300001A0B02F0A5FD41EC190B9FED0A0B53ECD3
:10331000102B02F02DFC41EC180B02F04FFBA060CB
:1033200008B0BDEC0C8B10BD0000000000000000D8
:103330000080664000000060FB21094010B50122BA
:103340001146104602F038F878BB5321632000F094
:1033500017F9B7EE000A184880ED000A9FED170A2A
:10336000174880ED000A9FED150A164880ED000A07
:103370009FED120A144880ED000A9FED100A1348D1
:1033800080ED000A9FED0D0A114880ED000A9FEDC7
:103390000B0A104880ED000A0F4800680F490860CA
:1033A0000D4800680E49086010BDFFE70DA0FCF74E
:1033B00073FF00BFF8E700002400002000000000B9
:1033C000280000202C0000203000002018000020E1
:1033D0001C00002020000020540000203C000020A1
:1033E00040000020494D55204552524F5221210D99
:1033F0000A00000000BFFEE77047000002480068B6
:10340000C0F30220704700000CED00E010B500286A
:1034100007DA0A07140E054A00F00F031B1FD454E5
:1034200003E00A07130E024A135410BD18ED00E022
:1034300000E400E0704770472DE9F04192B0044687
:10344000884615461E46002700BF002000902A48E7
:10345000006840F08050284908600846006800F085
:103460008050009000BF00BF00BF002000902348A4
:10347000006840F48040214908600846006800F474
:103480008040009000BF00BF01200690000407901C
:1034900002200C9041050D91CDF838800F941095C5
:1034A000119606A8FEF77AFB07460FB100BFFEE7AC
:1034B0000F20019002200290002003904FF4A050B2
:1034C00004904FF480500590052101A8FEF7F2F911
:1034D00007460FB100BFFEE7FEF74CF941F20101CC
:1034E000884205D10648006840F4807004490860AD
:1034F00012B0BDE8F081000040380240007000408A
:10350000003C024010B5FEF741F910BD14480068B8
:1035100040F47000124908601248006840F0010051
:103520001049086000200F49083108600D48006804
:103530000D4908400B4908600C48091D0860081F28
:10354000006820F48020091F0860002005490C3124
:1035500008604FF000600249803908607047000041
:1035600088ED00E000380240FFFFF6FE1030002436
:1035700010B50248FEF7B6FD10BD0000A81E0020E1
:1035800070B505460C460748074908600846446080
:1035900000218160C5600161FEF756FD0248FEF71B
:1035A00091FD70BD00040040A81E002000220268AA
:1035B0002C4B98420ED0B0F1804F0BD02A4B984242
:1035C00008D02A4B984205D0294B984202D0294B6B
:1035D000984201D1012300E000231BB122F07002C8
:1035E0004B681A431F4B984220D0B0F1804F1DD03A
:1035F0001D4B98421AD01D4B984217D01C4B984235
:1036000014D01C4B984211D01B4B98420ED01B4B30
:1036100098420BD01A4B984208D01A4B984205D0CA
:10362000194B984202D0194B984201D1012300E076
:1036300000231BB122F44072CB681A4302608B68EE
:10364000C3620B688362074B984202D0094B9842D1
:1036500001D1012300E000230BB10B6903630123B7
:103660004361704700000140000400400008004032
:10367000000C0040000401400040014000440140B3
:103680000048014000180040001C0040002000409D
:1036900070B50546AC6B0020E085E0842046FEF75F
:1036A000FEFD70BD0168C96821F490710268D160A7
:1036B0000168496921F0010102685161202180F807
:1036C0003A10704710B504462068C06820F04000EA
:1036D0002168C860202084F839002046FEF78EFF5C
:1036E000002010BD70B5044694F83A00222844D159
:1036F000A068B0F5805F13D1A56A206940B9206841
:103700004068C0F308002880A06A801CA06219E00D
:1037100020684068C0B22880A06A401CA06211E006
:10372000206938B920684068C1B2A26A501CA06202
:10373000117007E02068406800F07F01A26A501C09
:10374000A0621170E08D401E80B2E08598B92068BB
:10375000C06820F490702168C8602068406920F03B
:10376000010021684861202084F83A002046FEF7D5
:1037700001FF002070BD0020FCE70220FAE70000F6
:103780002DE9F041044600252068056925F44055DF
:10379000E0680543206805612068C56849F20C604F
:1037A00085432169A068084361690843E1690843CA
:1037B00005432068C5602068456925F44075A06907
:1037C000054320684561E069B0F5004F7ED1C449EA
:1037D0002068884203D0C349206888425DD1FEF743
:1037E0006DF900EBC00101EB001061684900B0FB0E
:1037F000F1F06421B0FBF1F00601FEF75FF900EB98
:10380000C00101EB001061684900B0FBF1F7FEF761
:1038100055F900EBC00101EB001061684900B0FBF5
:10382000F1F06421B0FBF1F000EBC00101EB0010FE
:10383000A7EB8000322101EBC0006421B0FBF1F066
:1038400000F0F80006EB4006FEF738F900EBC00187
:1038500001EB001061684900B0FBF1F7FEF72EF9AB
:1038600000EBC00101EB001061684900B0FBF1F012
:103870006421B0FBF1F000EBC00101EB0010A7EBFD
:103880008000322101EBC0006421B0FBF1F000F0B8
:10389000070030442168886020E1FEF7F9F800EB6A
:1038A000C00101EB001061684900B0FBF1F0642138
:1038B000B0FBF1F00601FEF7EBF800EBC00101EB05
:1038C000001061684900B0FBF1F700E045E0FEF749
:1038D000DFF800EBC00101EB001061684900B0FBAC
:1038E000F1F06421B0FBF1F000EBC00101EB00103E
:1038F000A7EB8000322101EBC0006421B0FBF1F0A6
:1039000000F0F80006EB4006FEF7C2F800EBC0013D
:1039100001EB001061684900B0FBF1F7FEF7B8F861
:1039200000EBC00101EB001061684900B0FBF1F051
:103930006421B0FBF1F000EBC00101EB0010A7EB3C
:103940008000322101EBC0006421B0FBF1F000F0F7
:103950000700304421688860C0E0614920688842DF
:1039600003D06049206888425CD1FEF7A7F800EBDD
:10397000C00101EB001061688900B0FBF1F6FEF7B1
:103980009DF800EBC00101EB001061688900B0FBFD
:10399000F1F06421B0FBF1F000EBC00101EB00108D
:1039A000A6EB8000322101EB00106421B0FBF1F0A6
:1039B00000F0F006FEF782F800EBC00101EB00100A
:1039C00061688900B0FBF1F06421B0FBF1F006EB17
:1039D0000016FEF773F800EBC00101EB0010616800
:1039E0008900B0FBF1F7FEF769F800EBC00101EBCD
:1039F000001061688900B0FBF1F06421B0FBF1F0C8
:103A000000EBC00101EB0010A7EB8000322101EBBD
:103A100000106421B0FBF1F000F00F003044216889
:103A200088605BE0FEF734F800EBC00101EB0010AA
:103A300061688900B0FBF1F6FEF72AF800EBC001DF
:103A400001EB001061688900B0FBF1F06421B0FB6C
:103A5000F1F000EBC00101EB0010A6EB8000322179
:103A600001EB00106421B0FBF1F000F0F006FEF76E
:103A70000FF800EBC00101EB001061688900B0FB9A
:103A8000F1F06421B0FBF1F006EB0016FEF700F850
:103A900000EBC00101EB001061688900B0FBF1F799
:103AA000FDF7F6FF00EBC00101EB00106168890033
:103AB000B0FBF1F06421B0FBF1F000EBC00101EBD1
:103AC0000010A7EB8000322101EB00106421B0FB55
:103AD000F1F000F00F00304421688860BDE8F0810B
:103AE0000010014000140140014691F839002128DE
:103AF0002CD18868B0F5805F0FD10A6A1088C0F3B6
:103B000008000B685860086918B9086A801C0862C8
:103B100009E0086A401C086205E00B6A581C08624C
:103B200018780B685860C88C401E80B2C88458B999
:103B30000868C06820F080000B68D8600868C0681A
:103B400040F040000B68D860002070470220FCE77E
:103B500010B500240C48FEF7ADFB00BF01E0641C6B
:103B600000BF0948FEF79CFB2028F8D100BF0024C5
:103B700001E0641C00BF012204490348FEF7C8FCB1
:103B80000028F6D100BF10BD9001002016000020D3
:103B900000BFFEE703B401984100009850EAC1203D
:103BA00018BF04204A0D18BF40F0010040F2FF7218
:103BB000B2EB515F08BF40F00200012808BF0520AA
:103BC00002B070470000000070B5C1482DED020B37
:103BD0002DED0E8B82B0119D25F000449FEDBEDBD4
:103BE0009FEDBFEB84423EDBA4F140511098A1F160
:103BF0007F6108430FD0BC48844202DC28D1109872
:103C000030B39DED100B02B0BDEC0E8B02B0BDE8E1
:103C1000704000F069BC9DED100B53EC1D2B51EC76
:103C2000100B02F015F99DED100B41EC180B53EC45
:103C30001E2B51EC100B02F00BF953EC182B01F07A
:103C4000EFFE41EC100B02B0BDEC0E8B02B070BD6C
:103C50000120FCF78AFC02B0BDEC0E8B02B0BDE87F
:103C6000704000F055BCA1489FEDA18B844256DA0C
:103C70009DED100BB4F1795F0ADA51EC100BFFF7F0
:103C800089FF042808BF00F053FC9DED100BDAE714
:103C900053EC102B51EC100B02F0DAF841EC190B3D
:103CA00095480621B0EE490AF0EE690A784400F022
:103CB0009FFB53EC192B51EC100B02F0C9F841ECAF
:103CC0001A0B8E48B0EE490AF0EE690A04217844D6
:103CD00000F08EFB53EC192B51EC100B02F0B8F8EE
:103CE00053EC182B01F09CFE41EC100B51EC1A0B1D
:103CF00053EC102B01F03CFFCDE900019DED000BD2
:103D000053EC102B9DED100B51EC100B02F0A0F8B2
:103D10009DED101B53EC112B01F082FED2E09DEDC6
:103D2000100B51EC100B00F023FF53EC182B02F09A
:103D30008DF99FED730BCDE9000153EC102B9DED38
:103D4000000B51EC100B02F083F841EC190B6E489C
:103D50000621B0EE490AF0EE690A784400F048FB0B
:103D600053EC192B51EC100B02F072F841EC1B0BC9
:103D70006648B0EE490AF0EE690A0421784400F082
:103D800037FB53EC192B51EC100B02F061F853EC9C
:103D9000182B01F045FE41EC1C0B51EC190B01F006
:103DA00047FD41EC180B5A489FED5BABA04222DC6B
:103DB00053EC1C2B51EC1B0B01F0DAFECDE900019A
:103DC0009DED000B51EC180B53EC102B02F040F85A
:103DD00053EC182B01F024FE53EC1A2B02F038F8A8
:103DE00053EC1D2B02F00AFA53EC1E2B02F02EF9B5
:103DF00041EC100B5FE08DED008B002000909DEDFD
:103E0000000B51EC180B53EC102B01F009FE9DED4B
:103E1000000B41EC1E0B53EC102B51EC100B02F07D
:103E200017F853EC192B02F011F953EC1E2B01F08B
:103E30009FFE41EC190B53EC1C2B51EC1B0B01F0BA
:103E400097FE41EC1B0B53EC1A2B51EC190B01F0B4
:103E5000FFFF53EC1D2B02F0F9F841EC190B53EC6A
:103E60001A2B51EC180B01F0F3FF53EC1B2B01F054
:103E7000EFFF53EC192B02F0C1F99DED000B41EC63
:103E8000180B53EC1A2B51EC100B01F0E1FF9FEDD6
:103E9000249B53EC192B02F0D9F841EC100B51EC98
:103EA000180B53EC102B02F0A9F953EC192B02F06C
:103EB000CDF841EC100B002D3FF7C5AE51EC100BC7
:103EC00001F070FD41EC100BBDE6000000000000A9
:103ED0000000F03F00000000075C143326A6913C70
:103EE000182D4454FB21F93F0000F07F0000E03F13
:103EF000000000000000F03F702800007E28000055
:103F0000000000000000E03FC2270000D0270000B2
:103F10003333EF3F000000000000000000000040CD
:103F2000182D4454FB21E93F70B59B482DED020B41
:103F30002DED068B079D25F00044A04218DC974824
:103F4000844202DC0AD1069840B19DED060BBDEC1F
:103F5000068B02B0BDE8704000F0C6BA002DCCBFA1
:103F60009FED8F0B9FED900BBDEC068B02B070BDEB
:103F70008F48A04215DD8F48A042D8BF4FF0FF34D4
:103F800058DD9DED060B51EC100BFFF703FE0428E6
:103F900008BF00F0CDFA9DED060BBDEC068B02B01C
:103FA00070BD9DED060B51EC100B00F0E1FDCDE96D
:103FB000060181489FED828BA0423CDD8248A042F1
:103FC0001FDD00249FED82AB9DED060B53EC1A2BF9
:103FD00051EC100B01F024FD9DED060B41EC190B8B
:103FE00053EC1A2B51EC100B01F032FF53EC182B51
:103FF00002F004F953EC192B01F0BAFDCDE90601EA
:1040000049E09DED060B012453EC182B51EC100BED
:1040100001F006FD9DED060B41EC190B53EC182B3E
:1040200051EC100B02F0EAF853EC192B01F0A0FD53
:10403000CDE906012FE06848A0421FDD02249FED74
:10404000689B9DED060B53EC192B51EC100B01F006
:10405000FFFE53EC182B01F0E3FC9DED060B41EC49
:10406000180B53EC192B51EC100B02F0C7F853EC62
:10407000182B01F07DFDCDE906010CE09DED060B4E
:10408000032453EC102B9FED580B51EC100B01F057
:104090006FFDCDE906019DED060B53EC102B51ECA5
:1040A000100B01F0D5FE41EC180B53EC182B01F06E
:1040B000CFFE41EC190B4E480621B0EE490AF0EE56
:1040C000690A784400F094F953EC182B51EC100B6A
:1040D00001F0BEFE41EC180B4648B0EE490AF0EE86
:1040E000690A0521784400F083F953EC192B51EC4F
:1040F000100B01F0ADFE41EC100B51EC180B53EC22
:10410000102B002C0EDA01F08BFC9DED061B53ECFE
:10411000112B01F09DFE9DED061B53EC112B01F0C0
:1041200095FF35E001F07CFC9DED061B53EC112B57
:1041300001F08EFE41EC100B2F48784400EBC400D8
:1041400090ED001B51EC100B53EC112B02F056F8C4
:104150009DED061B53EC112B02F050F841EC100BB7
:104160002648784400EBC40090ED001B51EC100B86
:1041700053EC112B01F06AFF41EC100B002DA2BF94
:10418000BDEC068B02B070BD51EC100B01F00AFCC7
:1041900041EC100B01E70000000010440000F07F2C
:1041A000182D4454FB21F93F182D4454FB21F9BF2D
:1041B0000000DC3F0000203E0000F33F0000000054
:1041C000000000000000F03F0000E63F000000009B
:1041D00000000000000000400080034000000000DC
:1041E000000000000000F83F000000000000F0BFE9
:1041F00012250000C8240000522400000A240000F8
:1042000070B56B4E2DED040B2DED028B82B0DDF8F9
:104210001CC0DDE905235C422CF000411C4341EA4F
:10422000D474049D22F00040B44205D86C422C4363
:1042300040EAD474B4420BD99DED061B9DED040BEE
:1042400002B0BDEC028B04B0BDE8704000F056B97E
:10425000ACF14054A4F17F641C430BD0022404EA67
:10426000AC7444EAD27405439FED538B9FED542BFD
:1042700007D015E09DED040B51EC100B00F071F927
:1042800042E0002C11BF012C9DED040B02B0BDECEF
:10429000028B04BF04B070BD022C38D0032C3BD07D
:1042A0000B439FED491B9FED4A0B0AD0B14218D139
:1042B000B04209D121F0804120F080400791059063
:1042C0000FE0002A15DA10E0434B7B44002C08BFB6
:1042D00093ED000B0DD0012C10D0022C17D0032C25
:1042E0001AD0B0421DD1002A03DAB0EE410AF0EE36
:1042F000610A02B0BDEC028B04B070BD93ED000BFF
:1043000051EC100B01F04EFB41EC100BF1E7B0EE5D
:10431000480AF0EE680AECE7B0EE420AF0EE620AF4
:10432000E7E7401A00153C28C8BF8DED000B19DCEB
:10433000BCF1000FBEBF10F13C0F9FED290B8DEDBE
:10434000000B0FDB9DED060B53EC102B9DED040BCA
:1043500051EC100B01F00CFC00F00AFC00F001F92C
:10436000CDE90001002C08BF9DED000BC1D0012C50
:1043700010D0022C9FED1C0B53EC102B9DED000B6D
:1043800051EC100B0DD001F039FF53EC182B01F05C
:1043900035FFB9E7019880F0004001909DED000BDA
:1043A000A7E701F02BFF53EC182B01F04FFEABE712
:1043B0000000F07F00000000182D4454FB2109404C
:1043C000182D4454FB2109C0182D4454FB21F9BF7A
:1043D000182D4454FB21F93F3A230000000000004F
:1043E0000000000000000000075C143326A6A13C7A
:1043F00070B504462DED028B4D1E00EBC500B0EEEE
:10440000408AF0EE608A90ED000B35F0060017D080
:1044100053EC182B51EC100B01F01AFD41EC100B72
:104420006D1E04EBC50090ED001B51EC100B53EC1E
:10443000112B01F0F5FA41EC100B35F00600E7D135
:10444000022D36D0042D1CD0062D1CBFBDEC028BD6
:1044500070BD53EC182B51EC100B01F0F9FC94EDEE
:104460000A1B53EC112B01F0DBFA53EC182B01F073
:10447000EFFC94ED081B53EC112B01F0D1FA41EC49
:10448000100B53EC182B51EC100B01F0E1FC94EDE8
:10449000061B53EC112B01F0C3FA53EC182B01F05F
:1044A000D7FC94ED040B53EC102B01F0B9FA41EC5E
:1044B000100B53EC182B51EC100B01F0C9FC94EDD0
:1044C000021B53EC112B01F0ABFA53EC182B01F04B
:1044D000BFFC94ED001B53EC112B01F0A1FABDECD5
:1044E000028B41EC100B70BD10B553EC102B51EC4E
:1044F000100B01F095FA41EC100B10BD10B553EC08
:10450000112B51EC100B01F08BFA41EC100B10BD8C
:104510009FED050B10B553EC102B51EC100B01F077
:1045200027FB41EC100B10BD000000000000000054
:104530009FED050B10B553EC102B51EC100B01F057
:1045400087FC41EC100B10BD0000000000000010C3
:1045500030380A2801D2012070470020704700BF80
:10456000704710B541EC100BFFF7DEFC51EC100B5F
:1045700010BD0000F0B52DED068B85B004460D464C
:104580001646002701A9454800F05FFB074300BF1E
:10459000384601F0B1F868B1FF2341A2194646A0A0
:1045A000FBF77AFE642000F0B3FA384605B0BDECA4
:1045B000068BF0BD00BFBDF90410880001F030FC8F
:1045C0009FED430B53EC102B01F0D2FA01F0F6F9FA
:1045D0002060BDF90610880001F022FC9FED3C0B25
:1045E00053EC102B01F0C4FA01F0E8F96060BDF95A
:1045F0000810880001F014FC9FED350B53EC102BD4
:1046000001F0B6FA01F0DAF9A060BDF80A104FF433
:104610007A7211FB02F001F003FC9FED2F0B53ECBB
:10462000102B01F0A5FA01F0C9F92860BDF80C10B3
:104630004FF47A7211FB02F001F0F2FB9FED260BB2
:1046400053EC102B01F094FA01F0B8F96860BDF852
:104650000E104FF47A7211FB02F001F0E1FB9FEDB6
:104660001E0B53EC102B01F083FA01F0A7F9A860A0
:10467000BDF9100001F0D4FB9FED190B53EC102B8A
:1046800001F076FA9FED180B53EC102B01F0C8F9EE
:1046900001F094F93060002088E7000080000020DD
:1046A000726561645F6175785F646174615F6D6F8D
:1046B00064652E630000000025642C41742025737E
:1046C00020286C696E65202564290D0A0000000011
:1046D000FCA9F1D24D624040000000000000E04023
:1046E00000000000000060400000000000003940B1
:1046F0002DE9F0412DED0A8B05460E4617469846EA
:10470000DB480068002864D100245FE005EB8400EA
:1047100090ED000A10EE101A084601F059FEC4EBA5
:10472000041202EB8202D34B03EB4212D24B1B6802
:1047300002EBC30203C205EB840090ED000A10EE09
:10474000101A084601F044FE41EC190BCB4800EB6F
:10475000C40090ED001BB0EE410AF0EE610A53EC8C
:10476000102B51EC190B01F05BF9C44A02EBC402A7
:1047700003C205EB840090ED000A20EE000A10EE63
:10478000101A084601F024FE41EC190BBC4800EB5E
:10479000C40090ED001BB0EE410AF0EE610A53EC4C
:1047A000102B51EC190B01F03BF9B54A02EBC40296
:1047B00003C29FEDB40A07EB840080ED000A9FED71
:1047C000B20A08EB840080ED000A641C032C9DDB18
:1047D000DCE00024D7E0C4EB041000EB8000A54926
:1047E00001EB4010A449096800EBC10090ED002BDB
:1047F000B0EE420AF0EE620AA04800EBC40090ED71
:10480000002BB0EE421AF0EE621A53EC102B51EC72
:10481000110B01F0F3FC994A02EBC40203C2C4EB92
:10482000041000EB8000934901EB401092490968A5
:1048300000EBC10090ED002BB0EE420AF0EE620AF0
:10484000C4EB041000EB80008A4901EB40108A4958
:10485000096800EBC10090ED002BB0EE421AF0EEBB
:10486000621A53EC102B51EC110B01F0F1FA41ECF0
:10487000190B834800EBC40090ED001BB0EE410A19
:10488000F0EE610A53EC102B51EC190B01F0DEFB3A
:104890007B4A02EBC40203C205EB840090ED000AE0
:1048A00010EE101A084601F093FDC4EB041202EB5F
:1048B0008202704B03EB42126F4B1B6802EBC30288
:1048C00003C2C4EB041000EB80006A4901EB401006
:1048D0006949096800EBC10090ED002BB0EE420A77
:1048E000F0EE620A654800EBC40090ED002BB0EEDC
:1048F000421AF0EE621A53EC102B51EC110B01F03E
:104900008FF85E4A02EBC40203C2C4EB041000EB52
:104910008000584901EB40105749096800EBC1007D
:1049200090ED002BB0EE420AF0EE620AC4EB0410E8
:1049300000EB80004F4901EB40104F49096800EB44
:10494000C10090ED002BB0EE421AF0EE621A53EC6B
:10495000102B51EC110B01F07BFA41EC190B48487C
:1049600000EBC40090ED001BB0EE410AF0EE610ACE
:1049700053EC102B51EC190B01F052F8404A02EBAA
:10498000C40203C2641C032CFFF625AF3A4800683A
:10499000401C3949086008460068B04204DB00202A
:1049A00008600120324908603148006818B9BDEC40
:1049B0000A8BBDE8F081304601F032FA41EC180B69
:1049C000002450E02D4800EBC40090ED001BB0EE39
:1049D000410AF0EE610A53EC182B51EC100B01F078
:1049E000C7F841EC190B00F0E9FF48F82400234810
:1049F00000EBC40090ED002BB0EE420AF0EE620A2C
:104A00001E4800EBC40090ED002BB0EE421AF0EE11
:104A1000621A53EC102B51EC110B01F019FA41EC16
:104A20001C0B53EC182B01F0A3F841EC1B0B1448A2
:104A300000EBC40090ED001BB0EE410AF0EE610AFD
:104A400053EC102B51EC1B0B01F000FB41EC1A0B4B
:104A500053EC182B01F08CF841EC190B00F0AEFF71
:104A600047F82400641C032CACDB00BF9FE7000068
:104A700048000020280200204C000020481E002092
:104A8000601E00200000C8420000000010B5034670
:104A90000C4619461819421EB1F5105F02D3B1F544
:104AA000804F0BD3B2F5105F02D3B2F5804F05D320
:104AB000B1F5105F05D2B2F5804F02D36FF002005E
:104AC00010BDB1F5044F02D3B1F5204F0BD3B2F5B1
:104AD000044F02D3B2F5204F05D3B1F5044F05D2F0
:104AE000B2F5204F02D36FF00200E9E7B2F5304F84
:104AF00002D36FF00200E3E70020E1E710B50446BF
:104B00000420FDF771FA0148046010BD0C0000207C
:104B100030B50446002504E04FF47A7000F004F844
:104B20006D1CA542F8D330BD70B5034600224FF08E
:104B3000E02675690D4E366803FB06F44FF0E0265B
:104B4000B16910E04FF0E026B06988420BD088428E
:104B500002D20E1A324402E02E1A0E4432440146AA
:104B6000A24200D300E0EDE700BF70BD0C000020C2
:104B700082B0CDE9000121F0004001909DED000BD5
:104B800002B051EC100B704700BF054A126802F0EA
:104B90004002002AF9D0C2B2014B5A6070470000AF
:104BA0000010014070B504460D461646B2B22B46C1
:104BB00021466920FDF7DAFD002070BD2DE9F041A6
:104BC00006460F46904600240AE0395D3219D0B2FD
:104BD00000F0D9FA054615B12846BDE8F081641CFD
:104BE0004445F2D30020F8E7F0EE400AF6EE001A52
:104BF00060EEA11AB0EE611AB0EE600A10EE100A73
:104C00000749A1EB600000EE100A21EE002AF7EE42
:104C1000081A42EE401A61EE801AB0EE610A70473F
:104C2000DF59375F38B5054600246B4601224AF24A
:104C30006721284600F087F8044324B99DF8000056
:104C4000C0F340006874204638BD70B505460C4678
:104C5000002623460E220021284600F074F8064361
:104C6000687C012804D16078217840EA012003E0C3
:104C70002078617840EA01202080687C012804D1F6
:104C8000E078A17840EA012003E0A178E07841EAE9
:104C900000206080687C012804D16079217940EA95
:104CA000012003E02179607941EA0020A080687C3E
:104CB000012804D1E079A17940EA012003E0A1793B
:104CC000E07941EA0020E080687C012804D1617A23
:104CD000207A41EA002003E0217A607A41EA00204C
:104CE0002081687C012804D1E17AA07A41EA002081
:104CF00003E0A17AE07A41EA00206081687C012823
:104D000004D1607B217B40EA012003E0217B607BB2
:104D100041EA0020A081304670BD70B504460D46C2
:104D20002B4601227221204600F00DF80646A068AD
:104D300038B936B12B4601227221204600F003F823
:104D40000646304670BD2DE9F04105460C46164634
:104D50001F46A846FF2C07D9A1B23B463246404623
:104D600000F0F2FABDE8F081E1B23B46324640463F
:104D700000F0D8FAF6E7F8B506460D4600246B4673
:104D800001224AF258213046FFF7DDFF04439DF827
:104D9000000065F3041000906B4601224AF258218E
:104DA000304600F0D8F904432046F8BDF8B5064671
:104DB0000D4600246B4601221B213046FFF7C3FF3E
:104DC00004439DF8000065F3030000906B46012248
:104DD0001B21304600F0BFF904432046F8BDF8B56A
:104DE00006460D4600246B4601221B213046FFF784
:104DF000AAFF04439DF8000065F3061000906B467F
:104E000001221B21304600F0A6F904432046F8BDDC
:104E1000F8B506460D4600246B4601224AF283513E
:104E20003046FFF790FF04439DF8000065F3020051
:104E300000906B4601224AF28351304600F08BF914
:104E400004432046F8BDF8B506460D46002430461A
:104E5000FFF7E8FE04436B46012210213046FFF7BE
:104E600072FF04439DF8000065F3010000906B465B
:104E700001221021304600F06EF904432046F8BDAF
:104E80002DE9F84380460E461446002716B1012E40
:104E900004D101E0162505E0562503E06FF00A0075
:104EA000BDE8F88300BF21789DF8000061F30000A1
:104EB0008DF8000061789DF8000061F341008DF8E5
:104EC0000000A1789DF8000061F382008DF80000D9
:104ED00021799DF8000061F304108DF800006179DC
:104EE0009DF8000061F345108DF80000A1799DF850
:104EF000000061F386108DF80000E1799DF8000054
:104F000061F3C7108DF80000217A9DF8010061F36C
:104F100000008DF80100617A9DF8010061F3410005
:104F20008DF80100A17A9DF8010061F382008DF8EF
:104F30000100E17A9DF8010061F3C3008DF80100E2
:104F4000217B9DF8010061F304108DF80100617B65
:104F50009DF8010061F345108DF80100A17B9DF8DB
:104F6000010061F386108DF801006B46022229468C
:104F7000404600F0F0F80743384691E7F8B506469A
:104F80000D4600246B4601221C213046FFF7DBFE54
:104F900004439DF8000065F3030000906B46012276
:104FA0001C21304600F0D7F804432046F8BDF8B580
:104FB00006460D4600246B4601221C213046FFF7B1
:104FC000C2FE04439DF8000065F3071000906B4695
:104FD00001221C21304600F0BEF804432046F8BDF3
:104FE000F8B506460D4600246B4601224AF2AC4154
:104FF0003046FFF7A8FE04439DF8000065F3020069
:1050000000906B4601224AF2AC41304600F0A3F812
:1050100004432046F8BDF8B506460D460024304648
:10502000FFF700FE04436B46012210213046FFF7D4
:105030008AFE04439DF8000065F3830000906B46F0
:1050400001221021304600F086F804432046F8BDC6
:105050002DE9F84380460F461446002517B1012F6D
:1050600004D101E0182605E0582603E06FF00A009D
:10507000BDE8F88300BF6B46012231464046FFF78A
:1050800062FE054321789DF8000061F30000009066
:1050900061789DF8000061F341000090A1789DF8CF
:1050A000000061F3820000906B46012231464046C9
:1050B00000F051F805432846DAE770B504460D467E
:1050C000E06810B12846E168884770BD7FB50546A5
:1050D00000240020019003AB01222D212846FFF778
:1050E00032FE044302AB012232212846FFF72BFE99
:1050F00004439DF8040020F00200801C019001ABE5
:1051000001227F21284600F026F804434FF47A71EB
:105110002846FFF7D2FF02AB01223221284600F0D9
:105120001AF8044303AB01222D21284600F013F89E
:1051300004436B46012219212846FFF704FE04436D
:105140009DF800000121B1EBD01F02D0881E04B0F1
:1051500070BD2046FBE72DE9F04105460C4616469A
:105160001F46A846FF2C07D93B46324621464046FB
:1051700000F0C4FBBDE8F081E1B23B463246404658
:1051800000F0AAFBF6E713B5044601AB0122214665
:105190006920FDF7D3FB00201CBD00002DED0C8B1A
:1051A0008AB0FCF7FBFA0723022208214FF4A8700B
:1051B000FEF742F9A820FFF7A1FC4FF4E13000F020
:1051C0006FFBFEF7BBF86420FFF7A2FC7FE04048CE
:1051D000FDF796FF3F48FDF757FE3E4890ED050A64
:1051E00010EE101A084601F0F3F841EC180B39489C
:1051F00090ED040A10EE101A084601F0E9F841ECAF
:10520000190B344890ED030A10EE101A084601F00D
:10521000DFF841EC1A0B2F4890ED020A10EE101A3D
:10522000084601F0D5F841EC1B0B2A4890ED010A25
:1052300010EE101A084601F0CBF841EC1C0B254883
:1052400090ED000A10EE101A084601F0C1F841EC8A
:105250001D0B8DED088B8DED069B8DED04AB8DED5B
:1052600002BB8DED00CB53EC1D2B1BA0FBF714F8FC
:10527000174890ED020A10EE101A084601F0A8F83F
:1052800041EC180B124890ED010A10EE101A084676
:1052900001F09EF841EC190B0D4890ED000A10EE5C
:1052A000101A084601F094F841EC1A0B8DED028BB0
:1052B0008DED009B53EC1A2B13A0FAF7EDFF184865
:1052C0000068401C164908601420FFF721FC7EE7A7
:1052D0007400002058000020616363286D67293A3C
:1052E000252E326609252E326609252E326609677B
:1052F00079726F28647073293A252E326609252E3B
:10530000326609252E32660009616E676C653A25A2
:105310002E326609252E326609252E32660D0A00C8
:10532000000000202DE9F04104460D4617461E46B8
:105330003A46314628462368984718B16FF0020074
:10534000BDE8F0810020FBE72DE9F84306460D4655
:1053500017469946002439462846FFF797FB044331
:1053600014B12046BDE8F883280A8DF80000E8B2A1
:105370008DF801000420F16888476B4602227C21E9
:10538000304600F0A9FA04430CB12046EAE74FF09A
:1053900000080CE00420F168884709EB08030122AB
:1053A0007E213046FFF7BEFF044308F10108B845EF
:1053B000F0D32046D6E70000F0B587B007460D468B
:1053C0001646002400200690A648A7490860A74872
:1053D0004860A748C860FDF73DF90020A2498860F1
:1053E0006420FFF795FBA0488068022803D09E4800
:1053F0008068012822D19DF8000020F00E00001DD9
:1054000000906B46012232219748FFF7A4FE044327
:1054100000BF204600F070F958B1AC2395A21946A0
:105420009AA0FAF739FF6420FFF772FB204607B015
:10543000F0BD00BF0220FFF777FB00BF06A98A4836
:10544000FFF76BFC044300BF204600F055F950B154
:10545000B22388A219468DA0FAF71EFF6420FFF739
:1054600057FB2046E3E700BF9DF81800E92811D05C
:10547000B4218CA0FAF710FF9DF81820B52191A057
:10548000FAF70AFFE922B62194A0FAF705FF4FF0D8
:10549000FF30CCE77448FFF719FE044300BF2046F5
:1054A00000F02AF950B1BB2372A2194677A0FAF78F
:1054B000F3FE6420FFF72CFB2046B8E700BF012075
:1054C0008DF8140000208DF815008DF8160005AA3F
:1054D00000216548FFF7BCFD044300BF204600F0F3
:1054E0000BF950B1C72363A2194668A0FAF7D4FE9E
:1054F0006420FFF70DFB204699E700BF00200190D4
:1055000002900390049001208DF8060001AA00216A
:105510005548FFF7B5FC044300BF204600F0ECF807
:1055200050B1CD2353A2194658A0FAF7B5FE642016
:10553000FFF7EEFA20467AE700BF03214A48FFF75B
:105540004EFC044302214848FFF731FD044300BFED
:10555000204600F0D1F850B1D22346A219464BA004
:10556000FAF79AFE6420FFF7D3FA20465FE700BF00
:1055700008213D48FFF71AFC044308213A48FFF789
:10558000FDFC044300BF204600F0B6F850B1D7231D
:1055900038A219463DA0FAF77FFE6420FFF7B8FA5B
:1055A000204644E700BF01212F48FFF731FC0443A8
:1055B00001212D48FFF714FD044300BF204600F0F1
:1055C0009BF850B1DC232BA2194630A0FAF764FEF9
:1055D0006420FFF79DFA204629E700BF01212248F9
:1055E000FFF7C9FB044300BF204600F085F850B127
:1055F000E02320A2194625A0FAF74EFE6420FFF70B
:1056000087FA204613E700BF67B125B1032116488A
:10561000FFF719FC04438EB103211348FFF7FBFC8D
:1056200004430BE025B102210F48FFF70CFC0443B3
:1056300026B102210C48FFF7EEFC044300BF2046D0
:1056400000F05AF850B1F5230AA219460FA0FAF754
:1056500023FE6420FFF75CFA2046E8E600BF204600
:10566000E5E60000A54B000880000020BD4B0008C7
:10567000294B0008726561645F6175785F646174CD
:10568000615F6D6F64652E630000000025642C412E
:105690007420257320286C696E65202564290D0A05
:1056A0000000000025642C4572726F6E656F757383
:1056B0002057484F414D492076616C75652E0D0A83
:1056C0000000000025642C20202D205265616420FC
:1056D0003078253032780D0A0000000025642C2037
:1056E000202D2045787065637465642030782530FE
:1056F00032780D0A0000000010B50446002C2FD0AF
:1057000014F1040F17D006DC14F17F0F1DD014F133
:105710000B0F1FD114E014F1030F07D0B4F1FF3FBA
:1057200018D121460FA0FAF7B7FD18E0214613A0C3
:10573000FAF7B2FD13E021461AA0FAF7ADFD0EE02C
:10574000214627A0FAF7A8FD09E021462CA0FAF788
:10575000A3FD04E0214631A0FAF79EFD00BF00BF83
:10576000204610BD556E7370656369666965642077
:105770006572726F72202825642900004572726F6D
:1057800072206F6363757272656420617420747235
:10579000616E73706F7274206C6576656C2028255D
:1057A00064290000416374696F6E20646964206E2F
:1057B0006F7420636F6D706C65746520696E207402
:1057C00068652065787065637465642074696D65CB
:1057D0002077696E646F7720282564290000000017
:1057E000496E76616C696420617267756D656E746F
:1057F0002070726F76696465642028256429000032
:1058000045444D5020627566666572206973206557
:105810006D7074792028256429000000556E6B6E28
:105820006F776E206572726F7220282564290000E0
:1058300000B52DED048B83B041EC190B00F012FC88
:1058400041EC180B18EE100A18EE901A8DED008B33
:10585000002818BF0120084320F00040C0F17F60FD
:1058600000F1E040C00F14D019EE101A19EE900AA2
:105870008DED009B002918BF0121084320F0004056
:10588000C0F17F6000F1E040C00F04BF0120FAF7D3
:105890006CFE51EC180B03B0BDEC048B00BD000096
:1058A00010B5044609480A490860084644600021CA
:1058B0008160C160016181610C214161FCF7A0FD43
:1058C000012204490248FCF723FE10BD00100140EC
:1058D00090010020160000202DE9F04104460D46FD
:1058E00017461E463A46314628466368984718B11F
:1058F0006FF00200BDE8F0810020FBE72DE9F843DE
:1059000005460E4617469846002439463046FFF7AE
:10591000BDF8044314B12046BDE8F883300A8DF881
:105920000000F0B28DF8010098F800008DF8020038
:105930000420E96888476B4603227C212846FFF74C
:10594000CBFF04430420E96888470CB12046E3E715
:105950004FF001090CE008EB090301227E212846E3
:10596000FFF7BAFF04430420E968884709F10109F9
:10597000B945F0D32046CFE710B500290AD0087802
:10598000002807D005487844FBF7D4F9002801D057
:10599000002010BD0248784410BD00003E0D0000FC
:1059A000360D000081F00041704780F000407047E4
:1059B00021F00041704720F00040704721F0004284
:1059C000A2F16052B2F5801F01F0004328BFD2F16E
:1059D0007F6C0BD95FEA001C43EAC20242EB5070B5
:1059E00018BF704728BF20F001007047B2F5801F34
:1059F000BCBF184670474FEA410C1CF5001F02D28D
:105A0000084600F05BBD70B500F0CCFA00000089DC
:105A1000FFF7F6BF4FF00040A0F580007047000090
:105A200010B591EA030F48BF83F0004300F1EE8305
:105A3000841A71EB030C05D2121943EB0C03001B03
:105A400061EB0C01DFF824E14FEA1154A4EB135C85
:105A50001EEA430F18BF9EEA445F73D023EA0E0389
:105A6000DCF1200E21EA045143F4801332D322FAF0
:105A70000CFE10EB0E0023FA0CFE41EB0E01CCF1F4
:105A8000200E03FA0EFE10EB0E0051F10001B1F5ED
:105A9000801FCCF1200E32D201EB045112FA0EF22B
:105AA000BDE8104058BF7047401C38BF5FEA420253
:105AB00018BF7047002814BF20F0010041F1000119
:105AC0004FEA410313F5001F38BF7047A1F1C041F1
:105AD00000F0B6BA012A43EB0302ACF1200CDCF172
